:100000000C9495010C94C6010C94C6010C94C60185
:100010000C94C6010C94C6010C94C6010C94C60144
:100020000C94C6010C94C6010C94C6010C94C60134
:100030000C94C6010C94C6010C94C6010C94C60124
:100040000C94C6010C94C6010C94C6010C94C60114
:100050000C94C6010C94C6010C94C6010C94BA16FB
:100060000C94C6010C942E170C9404170C94C60122
:100070000C94C6010C94C6010C94C6010C94C601E4
:100080000C94C6010C94C6010C94C6010C94C601D4
:100090000C94C6010C94C6010C94C6010C94C601C4
:1000A0000C94C6010C94C6010C94C6010C94C601B4
:1000B0000C94C6010C94C6010C94C6010C94C601A4
:1000C0000C94C6010C94C6010C94C6010C94C60194
:1000D0000C94C6010C94C6010C94C6010C94C60184
:1000E0000C94C6010C94940D0C9401020C942602FD
:1000F0000C946C080C94C5050C94F40D0C944D06EE
:100100000C942A020C9434020C94FD010C949B1064
:100110000C94230F0C9436060C94EC110C9494114F
:100120000C9417060C9413060C948E050C9464170B
:100130000C9430020C9437030C9471100C944E06FE
:100140000C9493120C9452100C94540B0C94ED15C7
:100150000C94B3080C9459030C94BE120C941C021A
:100160000C947F0D0C94BA050C94710C0C940E0930
:100170000C941B060C9418020C947A0F0C944006F5
:100180000C94630B0C9468120C94A4050C94D50881
:100190000C944B030C9487080C9442060C94CC01ED
:1001A0000C9432060C94EF010C9476110C94DE033F
:1001B0000C940A020C9414020C94B5100C943E0793
:1001C0000C9428030C94FB020C942F020C94F50160
:1001D0000C942B060C9478160C940F0E0C94E106DC
:1001E0000C9404020C94F9010C947A150C940E02F0
:1001F0000C9445060C9491030C944F060C94220227
:100200000C94D0010C94DC05000020002300260093
:1002100029002C002F00320000010000030106011C
:10022000090100000A0B02090C0D0E080703040166
:1002300000000000000000000000000000000000BE
:10024000000000000000000000000000000012118B
:10025000100000000000000000000000000000008E
:10026000000000000000000000002200250028001F
:100270002B002E00310034000201000005010801AE
:100280000B0100002100240027002A002D0030006F
:10029000330001010000040107010A0101021020DE
:1002A00020080810204010204080020102010804AC
:1002B0000201010204081020408080402010080440
:1002C0000201800402018040201008040201080499
:1002D00002010102040810204080010204081020DD
:1002E0004080050505050705080808080202020206
:1002F0000A0A0808040404040101010101010101C2
:100300000303030303030303040707070C0C0C0C8C
:100310000C0C0C0C02020202060606060606060675
:100320000B0B0B0B0B0B0B0B641711241FBECFEF2A
:10033000D1E2DEBFCDBF00E00CBF13E0A0E0B2E031
:10034000E6E3FEE300E00BBF02C007900D92AC3F76
:10035000B107D9F725E0ACEFB3E001C01D92A83793
:10036000B207E1F711E0C5E9D1E000E006C021974E
:100370000109802FFE010E94E51DC439D10780E0EC
:100380000807A9F70E9474180C94191F0C94000018
:1003900008958CBD9DBD0895FC01818D928D0895B9
:1003A00008958150823108F05AC0E82FF0E0882784
:1003B000E352FE4F8F4F0C94E51DFD010102EF014A
:1003C000F501F9012F0204020A020E0214021802BA
:1003D0001C02220226022F022A02300234028091DD
:1003E00080008F77809380000895809180008F7DBA
:1003F000F9CF80918000877FF5CF84B58F7784BD5A
:10040000089584B58F7DFBCF8091B0008F77809366
:10041000B00008958091B0008F7DF9CF8091900059
:100420008F77809390000895809190008F7DF9CF11
:1004300080919000877FF5CF8091A0008F77809387
:10044000A00008958091A0008F7DF9CF8091A00039
:10045000877FF5CF809120018F77809320010895C9
:10046000809120018F7DF9CF80912001877FF5CF8A
:100470001F93CF93DF93282F30E0F901EE5DFD4FFE
:100480008491F901E456FD4FD491F901EE51FD4FED
:10049000C491CC23A9F0162F81110E94D101EC2F19
:1004A000F0E0EE0FFF1FE859FD4FA591B4918FB713
:1004B000F894EC91111108C0D095DE23DC938FBF26
:1004C000DF91CF911F910895DE2BF8CFCF93DF936B
:1004D00090E0FC01E456FD4F24918E519D4FFC01AC
:1004E00084918823D1F090E0880F991FFC01EE578A
:1004F000FD4FA591B491FC01E859FD4FC591D491F0
:1005000061110EC09FB7F8948C91E22FE0958E2375
:100510008C932881E223E8839FBFDF91CF910895D8
:100520008FB7F894EC91E22BEC938FBFF6CF3FB7E7
:10053000F8948091110490911204A0911304B09149
:10054000140426B5A89B05C02F3F19F00196A11DE4
:10055000B11D3FBFBA2FA92F982F8827BC01CD010D
:10056000620F711D811D911D42E0660F771F881F6C
:10057000991F4A95D1F708958F929F92AF92BF929B
:10058000CF92DF92EF92FF926B017C010E94970263
:100590004B015C01C114D104E104F104B9F00E94E3
:1005A0009702681979098A099B09683E7340810599
:1005B000910580F321E0C21AD108E108F10888EE24
:1005C000880E83E0981EA11CB11CE4CFFF90EF9031
:1005D000DF90CF90BF90AF909F908F9008952FB7EE
:1005E000F89460910D0470910E0480910F04909125
:1005F00010042FBF0895AF92BF92CF92DF92EF9277
:10060000FF920F931F93CF93DF936C017B018B01BC
:10061000040F151FEB015E01AE18BF08C017D1070C
:1006200059F06991D601ED91FC910190F081E02D96
:10063000C6011995892B79F7C501DF91CF911F91DB
:100640000F91FF90EF90DF90CF90BF90AF90089503
:10065000FC01538D448D252F30E0842F90E0821BC8
:10066000930B541710F0CF96089501970895FC014D
:10067000918D828D981761F0A28DAE0FBF2FB11DA5
:100680005D968C91928D9F5F9F73928F90E00895FD
:100690008FEF9FEF0895FC01918D828D981731F0B7
:1006A000828DE80FF11D858D90E008958FEF9FEF0B
:1006B0000895FC01918D228D892F90E0805C9F4FE1
:1006C000821B91098F739927089580E794E00E9417
:1006D000590321E0892B09F420E0822F0895FC01C1
:1006E000A48DA80FB92FB11DA35ABF4F2C91848D93
:1006F00090E001968F739927848FA689B7892C93F0
:10070000A089B1898C91837080648C93938D848D42
:10071000981306C00288F389E02D80818F7D808345
:100720000895EF92FF920F931F93CF93DF93EC0105
:1007300081E0888F9B8D8C8D98131AC0E889F98988
:10074000808185FF15C09FB7F894EE89FF8960838B
:10075000E889F98980818370806480839FBF81E00C
:1007600090E0DF91CF911F910F91FF90EF9008954E
:10077000F62E0B8D10E00F5F1F4F0F731127E02E29
:100780008C8D8E110CC00FB607FCFACFE889F98961
:10079000808185FFF5CFCE010E946F03F1CFEB8DF5
:1007A000EC0FFD2FF11DE35AFF4FF0829FB7F89435
:1007B0000B8FEA89FB8980818062CFCFCF93DF9353
:1007C000EC01888D8823B9F0AA89BB89E889F98969
:1007D0008C9185FD03C0808186FD0DC00FB607FC9E
:1007E000F7CF8C9185FFF2CF808185FFEDCFCE01D1
:1007F0000E946F03E9CFDF91CF91089580E090E0F0
:10080000892B29F00E94650381110E94000080E07D
:1008100090E0892B49F080E090E0892B29F00E943C
:10082000000081110E94000080E090E0892B49F0D7
:1008300080E090E0892B29F00E94000081110E9445
:10084000000080E090E0892B49F080E090E0892B67
:1008500029F00E94000081110C9400000895FC0111
:1008600020812EBD9B012150310941F051810DB4F1
:1008700007FEFDCF4EB55EBD4193F5CF61507109C6
:10088000860F971F0DB407FEFDCF2EB5FC01208308
:100890000895E0916A04F0916B048081909169045D
:1008A000892B80830895E0916A04F0916B04908114
:1008B0008091690480958923808308958EBD00000E
:1008C0000DB407FEFDCF8EB50895AF92BF92CF92C3
:1008D000DF92EF92FF920F931F93CF93DF9300D09D
:1008E00000D01F921F92CDB7DEB78C017B016A0149
:1008F00080916D048333E1F45801A40EB51EA01657
:10090000B10609F46FC00E94530480EF0E945E0498
:10091000812F0E945E04802F0E945E040F5F1F4F94
:10092000F70181917F010E945E040E944904E7CF94
:100930005B01A40EB51E8433C1F40E9453041983D5
:100940000A838D2D80688B83CC8264E070E0CE01B9
:1009500001960E942F04AE14BF0409F441C0F701B0
:1009600081917F010E945E04F6CF0E9453040F3FE5
:10097000110509F028F419820A8384E08B830CC0E6
:1009800017FD17C019820A8333E0169507953A952B
:10099000E1F7007E0C600B8386E0C816D104A0F559
:1009A000F701DE011496EA15FB0599F081918D930C
:1009B000FACFC80126E0969587952A95E1F7807EC3
:1009C00019830A830115104C10F48461D7CF8C6110
:1009D000D5CFB6016D5F7F4FCE0101960E942F04E7
:1009E0000E944904C60128960FB6F894DEBF0FBED8
:1009F000CDBFDF91CF911F910F91FF90EF90DF90CE
:100A0000CF90BF90AF90089563E070E0CE01019663
:100A10000E942F04F70181917F010E945E04AE14B1
:100A2000BF04C1F7DDCFCF93DF931F92CDB7DEB701
:100A3000898341E050E0BE016F5F7F4F90E080E02E
:100A40000E9465040F90DF91CF91089590E020916E
:100A50006D04233339F40C96982F990F990F990F41
:100A600080E008954896F8CFDA01E0916E04F0E056
:100A7000FE2FEE27E60FF71F90E0982F8827A90199
:100A8000BD018E0F9F1F0C946504CF93DF931F92BF
:100A90001F92CDB7DEB779836A8322E030E0AE01E2
:100AA0004F5F5F4F60E170E00E9434050F900F9040
:100AB000DF91CF910895CF93DF931F921F92CDB70F
:100AC000DEB779836A8322E030E0AE014F5F5F4F8B
:100AD00064E070E00E9434050F900F90DF91CF9199
:100AE0000895CF93DF931F92CDB7DEB720916E04A8
:100AF00030E0322F2227260F371F90E0982F8827CB
:100B0000498341E050E0BE016F5F7F4F820F931F2A
:100B10000E9465040F90DF91CF910895CF93DF93EA
:100B20001F92CDB7DEB76983DC01ED91FC910280A5
:100B3000F381E02D41E050E0BE016F5F7F4F1995DA
:100B40000F90DF91CF910895CF93DF931F92CDB790
:100B5000DEB76983DC01ED91FC910280F381E02D29
:100B600041E050E0BE016F5F7F4F19950F90DF911C
:100B7000CF910895FC019485FB018485981303C0EF
:100B800081E0983008F080E00895CF93DF931F92C2
:100B9000CDB7DEB76983DC01ED91FC910280F38172
:100BA000E02D41E050E0BE016F5F7F4F19950F903F
:100BB000DF91CF9108950895FF920F931F93CF93E4
:100BC000DF93EB01FC01178A168A2A81211109C0E3
:100BD0002B81211106C02C81211103C02D812223DC
:100BE00001F141155105E9F08A01FC01F08C80E525
:100BF00091E00E94C901AE014E5F5F4F24E030E0FA
:100C00006CE070E08F2D0E943405B8018F2D0E949A
:100C1000450581E090E0DF91CF911F910F91FF900A
:100C2000089580E0F7CFFC01848595850895FC0147
:100C300084899589089526EA32E0FC013183208376
:100C4000FB014089518962897389FC014283538386
:100C5000648375830895DC01ED91FC91048CF58D1E
:100C6000E02D1994FC01768765870895DC01ED91EC
:100C7000FC9102A0F3A1E02D199591E08927089538
:100C8000862F089581E08627089521E0FC01848560
:100C9000883008F020E0822F08950895089590E0AC
:100CA00080E008956F927F928F929F92AF92BF9251
:100CB000CF92DF92EF92FF920F931F93CF93DF9328
:100CC0007C0160E081E30E94380261E081E30E94E0
:100CD0003802F70113821282CFE0D0E010E000E08A
:100CE00092E5C92E92E0D92E2CECA22E22E0B22E53
:100CF00032E1832E33E0932EF6018491F501749056
:100D0000F4016490662009F438C081110E94D10179
:100D1000E62DF0E0EE0FFF1FE85FFD4FA591B491C7
:100D20008C91782231E020E009F430E0832F922F7B
:100D30000C2E02C0880F991F0A94E2F7082B192B7A
:100D400061E08EE20E94380260E08EE20E9438028A
:100D5000219790F6F7011383028380E0DF91CF9112
:100D60001F910F91FF90EF90DF90CF90BF90AF90C9
:100D70009F908F907F906F90089590E080E0D8CF03
:100D8000CF93C82F8091610481110BC010925D0434
:100D900010925E041092600410925F0481E08093D0
:100DA00061048DE594E00E94520680915F04909169
:100DB000600402C096958795CA95E2F78170CF913D
:100DC00008950C94891EFB0101900020E9F73197EA
:100DD000AF01461B570BDC01ED91FC910280F381C2
:100DE000E02D19948F929F92AF92BF92EF92FF9253
:100DF0000F931F93CF93DF93CDB7DEB7A1970FB6B5
:100E0000F894DEBF0FBECDBF7C01FA01CB0119A261
:100E1000223008F42AE08E010F5D1F4F822E912CA4
:100E2000B12CA12CBF01A50194010E94B41DF901B0
:100E3000CA016A300CF5605DD8016E938D01232BD9
:100E4000242B252B79F790E080E0109721F0BD014D
:100E5000C7010E94E306A1960FB6F894DEBF0FBE4D
:100E6000CDBFDF91CF911F910F91FF90EF90BF9079
:100E7000AF909F908F900895695CDECF8F929F9284
:100E8000AF92BF92CF92DF92EF92FF920F931F9398
:100E9000CF93DF937C01EB016C0182E0C80ED11C83
:100EA0004701E5E08E0E911C10E000E0F601419153
:100EB0006F0150E070E060E02AE0CE010E94F2068F
:100EC0005C01E881F9810190F081E02D6EE2CE01B4
:100ED00019958A0D9B1D080F191FC814D90431F7E5
:100EE000F701458150E070E060E02AE0CE010E9409
:100EF000F206800F911FDF91CF911F910F91FF900C
:100F0000EF90DF90CF90BF90AF909F908F9008951B
:100F10000F931F93CF93DF93EC010E94E3068C01A4
:100F200068EA72E0CE010E94E306800F911FDF9114
:100F3000CF911F910F910895AF92BF92CF92DF9200
:100F4000EF92FF920F931F93CF93DF9300D01F92E6
:100F5000CDB7DEB78C016B017A0180916D048333CC
:100F6000E9F45B016801C40ED51EC016D106A9F1D3
:100F70000E9453048FE00E945E04812F0E945E0451
:100F8000802F0E945E040F5F1F4F80E00E945E046E
:100F9000F50181935F010E944904E7CF843369F52D
:100FA0000E94530419830A838F2D8F778B83EC82E1
:100FB00064E070E0CE0101960E942F04A70170E06A
:100FC00060E0C6010E94121FE114F10421F0B70194
:100FD000C6010E942F040E944904C7010F900F9080
:100FE0000F900F90DF91CF911F910F91FF90EF9095
:100FF000DF90CF90BF90AF9008950E9453040F3FB1
:10100000110509F030F419820A831B8263E070E055
:10101000D1CF17FD0BC019820A8333E016950795CF
:101020003A95E1F7007E08600B83F0CFC80126E017
:10103000969587952A95E1F7807E19830A83011595
:10104000104C18F480618B83E1CF8861FCCFCF9383
:10105000DF931F92CDB7DEB720916E0430E0322FC0
:101060002227260F371F90E0982F882741E050E075
:10107000BE016F5F7F4F820F931F0E949C07898183
:101080000F90DF91CF910895CF93C82F462F61E045
:1010900070E00E94710561E070E08C2F0E942708CB
:1010A0008111F9CFCF910895CF93C82F80E591E0BA
:1010B0000E94C90168E070E08C2FCF910C94440825
:1010C000CF93C82F80E591E00E94C90160E170E0F4
:1010D0008C2FCF910C944408CF93DF93EC01888D33
:1010E000883020F40E94600888E0888FDF91CF91DB
:1010F000089563E070E00C942708CF93C82F80E533
:1011000091E00E94C9018C2FCF910C947908EF9245
:10111000FF920F931F93CF93DF937C0180916D0417
:10112000D4E0833309F0D8E00DE414E0C0E0F80126
:10113000219131918F01F701848195812817390719
:1011400029F0CF5FDC13F3CF80E006C08C2F0E9424
:101150007D088431B1F781E0DF91CF911F910F912C
:10116000FF90EF900895CF93DF93EC018C8588304A
:10117000D0F40E947D08843189F0882379F0883189
:1011800069F021E08C3159F4E881F9810084F1851E
:10119000E02DCE01199521E0892B09F420E0822F62
:1011A000DF91CF91089580E0FBCFCF92DF92EF9255
:1011B000FF92CF93DF93EC018C85883068F40E9416
:1011C00054080E94EF026B017C018C850E947D080F
:1011D000811109C088E08C87DF91CF91FF90EF905B
:1011E000DF90CF90089561E070E080E090E00E9491
:1011F000BC020E94EF02AB01BC014C195D096E09F3
:101200007F098D859E85B0E0A0E0481759076A07E1
:101210007B07D8F28C850E946008DCCFCF93FC015D
:10122000C08D80E591E00E94C90160E270E08C2FE2
:101230000E94440862E070E08C2F0E94270884FD21
:1012400016C062E070E08C2F0E94270883FF0AC05E
:1012500048E162E070E08C2F0E94710580E090E030
:10126000CF91089580E591E00E94C901E3CF40E16C
:1012700062E070E08C2F0E94710581E0F0CFCF9387
:10128000DF931F92CDB7DEB741E050E0BE016F5F44
:101290007F4F90E080E00E949C0789810F90DF9152
:1012A000CF910895CF93DF93C4E1D0E00E943F092E
:1012B000882361F061E070E080E090E00E94BC0271
:1012C0002197A1F780E0DF91CF91089581E0FBCFD6
:1012D000CF92DF92EF92FF920F931F93CF93DF9302
:1012E000CDB7DEB7C454D1090FB6F894DEBF0FBE38
:1012F000CDBFFC0182819381A481B58123968CAFFF
:101300009DAFAEAFBFAF239721E023962FAF2397BA
:1013100023964CAD5DAD6EAD7FAD23974BAB5CAB13
:101320006DAB7EAB89AF9AAFABAFBCAF8DA79EA7BD
:10133000AFA7B8AB28AB4DA55EA56FA578A94FA305
:1013400058A769A77AA72EAB4BA95CA96DA97EA95E
:1013500049A35AA36BA37CA38B8F9C8FAD8FBE8FA9
:1013600046EA52E05C8B4B8B3FEF3D8B3E8B3F8BD5
:10137000188E5E874D872AA7CFA0D8A4E9A4FAA427
:10138000CF86D88AE98AFA8A2CA309A11AA12BA1AF
:101390003CA109871A872B873C875A8349838B8313
:1013A0009C83AD83BE8380916F048111A2C060E3F2
:1013B00072E080E090E00E94BC021FB7F894809138
:1013C0006C04811127C0E7E1F3E08491E1EDF2E0E4
:1013D0009491E82FF0E0EE0FFF1FEE57FD4FA5911F
:1013E000B491EC91E92321F461E085E30E94380295
:1013F00061E085E30E9466028CB580618CBD8CB58E
:1014000080648CBD61E084E30E94660261E083E356
:101410000E94660280916C048F5F80936C041FBFF2
:1014200080910202282F30E0F901EE51FD4FE49146
:10143000F0E0EE0FFF1FE859FD4F45915491509396
:101440006B0440936A04F901E456FD4FE491E09384
:10145000690461E00E9466020E94490480E591E00F
:101460000E94C90184E380936D0480E80E94130503
:101470000E945209882309F472C088E00E94130573
:101480000E943F09883009F06AC080E10E9413057C
:101490000E943F09803109F062C080E00E9413057C
:1014A0000E943F09182F81115AC041E050E0BE014F
:1014B0006D5B7F4F8FE190E00E949C0724968FAD7B
:1014C0002497833009F04BC080E480936E0442E09F
:1014D0006EE170E0812F0E94710542E06FE170E0E3
:1014E000812F0E9471051F5F183089F781E080937A
:1014F0006F0480E591E00E94C90146E050E063E09E
:1015000072E089E090E00E94650444E050E0BE0192
:101510006D5F7F4F8FE090E00E94650444E050E0F3
:10152000BE01615F7F4F81E090E00E94650444E06E
:1015300050E0BE016B5E7F4F85E090E00E94650445
:1015400081E08C8789859A85AB85BC8580932D0544
:1015500090932E05A0932F05B09330056FC087E3BD
:1015600080936D0480E80E9413050E94520988232D
:1015700039F188E00E9413050E943F09883001F587
:1015800080E10E9413050E943F09182F8031C1F4A9
:1015900080E00E9413050E943F09811111C041E0C3
:1015A00050E0BE016D5B7F4F89E390E00E949C0795
:1015B00024968FAD2497843019F410936E0496CF3F
:1015C00083E380936D0480E80E9413050E94520912
:1015D000882391F180E10E9413050E943F09803128
:1015E00059F582E10E9413050E943F09823121F5DD
:1015F00080E00E9413050E943F0981111DC084E014
:1016000080936E0415E525961FAF259741E050E0C5
:10161000BE016C5B7F4F8BE190E00E9465042496D5
:101620001FAF249741E050E0BE016D5B7F4F8AE120
:1016300090E00E9465045ACF10926D04CC5BDF4F9E
:101640000FB6F894DEBF0FBECDBFDF91CF911F91D3
:101650000F91FF90EF90DF90CF9008951F93CF935D
:10166000DF931F92CDB7DEB7182F80E591E00E947F
:10167000C901812F0E94260527E0129FF001112445
:10168000EB5EFB4F22813381377041E050E0BE01B9
:101690006F5F7F4F820F931F0E949C0789810F907D
:1016A000DF91CF911F910895FC01808D883040F427
:1016B000218D328D232B21F00E942E0B90E0089576
:1016C0008FEF9FEF0895CF93DF93FC01248528309F
:1016D00028F08FEF9FEFDF91CF910895EC010190FB
:1016E000F081E02D0084F185E02D1995892B89F397
:1016F0008C850E942E0B90E0EECFDA01E0916E0413
:10170000F0E0FE2FEE27E60FF71F90E0982F8827D6
:10171000A901BD018E0F9F1F0C949C078F929F9271
:10172000AF92BF92CF92DF92EF92FF920F931F93EF
:10173000CF93DF93CDB7DEB760970FB6F894DEBFD7
:101740000FBECDBF7C0190916D04911115C018E0C2
:10175000812F60960FB6F894DEBF0FBECDBFDF912C
:10176000CF911F910F91FF90EF90DF90CF90BF909E
:10177000AF909F908F90089508E0933309F404E0B0
:101780006B0180E591E00E94C9019E012F5F3F4FF0
:101790005901490110E0812F0E947908F4018193D9
:1017A0004F018823C1F01F5F0113F5CF00E0F50161
:1017B00081915F018D3149F0883139F08A51823051
:1017C00020F00F5F1013F3CFC2CF60E170E0802FE5
:1017D0000E944408102FA12EB12CF501EE0FFF1F1F
:1017E000E35BFB4F1182108283EE93E00197F1F7E8
:1017F00042E870E060E0812F0E9471054FEF62E0E7
:1018000070E0812F0E947105B601C114D10491F4DA
:10181000809100029091010201968115F0EC9F07E2
:1018200008F45CC090930102809300026091000272
:1018300070910102812F0E945B0586E0EFE0F2E0EB
:10184000DE01199601900D928A95E1F7F7018381E7
:101850008F778C8784818D8785818E87A7014E5FE6
:101860005F4F24E030E06CE070E0812F0E9434058F
:10187000B601812F0E94450526E030E0AE01475FAA
:101880005F4F66E070E0812F0E94340561E070E0F8
:10189000812F0E94440827E02A9DC0012B9D900DB6
:1018A00011249C012B5E3B4F7901F90111821082BA
:1018B00022E030E0AE01415F5F4F68E270E0812FCF
:1018C0000E947D0B8F859889982789279827F70193
:1018D000938382831682158214823ACF80E090EC43
:1018E000A1CFCF92DF92EF92FF920F931F93CF93EE
:1018F000DF9300D000D0CDB7DEB78C016B017A0149
:10190000FC01808D883010F40E94600886EA92E025
:101910009A838983F60182819381A481B5818B8327
:101920009C83AD83BE83B701CE0101960E948E0BCE
:10193000F801808F8830A0F4F586E486128E118E2F
:1019400081E026960FB6F894DEBF0FBECDBFDF91C3
:10195000CF911F910F91FF90EF90DF90CF9008955E
:1019600080E0EFCF7F928F929F92AF92BF92CF9203
:10197000DF92EF92FF920F931F93CF93DF931F920B
:101980001F92CDB7DEB7782E8B014A01590122E0B4
:1019900030E0AE014F5F5F4F64E270E00E947D0B6C
:1019A000E980FA80FE24EF24FE24E00EF11E970168
:1019B000377040916D04072D10E0433309F042C0A9
:1019C000085F1F4F102F0027110F110F110FC901B2
:1019D000800F911F4733C9F1A9014A0D5B1D4130AA
:1019E000584098F160E078E06B01C21AD30AA60172
:1019F000B4010E946504A5014C195D09B4016C0D88
:101A00007D1DC8010E946504EA0CFB1CF982EA8274
:101A100022E030E0AE014F5F5F4F64E270E0872D5F
:101A20000E9434050F900F90DF91CF911F910F917D
:101A3000FF90EF90DF90CF90BF90AF909F908F90EE
:101A40007F900895005F1F4FBDCFA501B401DACF8D
:101A5000EF92FF921F93CF93DF931F921F92CDB708
:101A6000DEB7182F22E030E0AE014F5F5F4F60E23B
:101A700070E00E947D0BE980FA80FE24EF24FE24B2
:101A800022E030E0AE014F5F5F4F60E270E0812FF7
:101A90000E947D0B89819A81982789279827E816CB
:101AA000F90689F487E0189FF0011124EB5EFB4FE3
:101AB000F582E482C7010F900F90DF91CF911F91C3
:101AC000FF90EF9008957C01DBCF1F93CF93DF93BE
:101AD000182F80E591E00E94C901812F0E94280DF6
:101AE000EC01812F0E947908873121F08C3111F0AF
:101AF000D0E0C0E0CE01DF91CF911F910895CF9348
:101B0000DF93EC018C85883060F40E947D0887317A
:101B100011F08C3131F48C850E94650D811598404F
:101B200088F3DF91CF910895FC018485883010F40B
:101B30000C94650D90E080E00895CF92DF92EF92D3
:101B4000FF921F93CF93DF93182F7B01EA0141305F
:101B5000584010F0C0E0D8E080E591E00E94C90153
:101B6000812F0E94280D6C01812F0E9479088731F6
:101B700011F08C3121F5CC16DD0670F380E591E093
:101B80000E94C9019E01A70170E060E0812F0E94C0
:101B9000B20C60E270E0812F0E94440862E070E0C5
:101BA000812F0E94270884FD0DC0812F0E94790893
:101BB0008823B9F080E591E00E94C901EFCFD0E021
:101BC000C0E0DCCF40E162E070E0812F0E9471054F
:101BD000CE01DF91CF911F91FF90EF90DF90CF90DA
:101BE0000895D0E0C0E0F4CF0F931F93CF93DF931D
:101BF0008C01EA01FC018485883048F40E949D0D27
:101C0000892B39F481E090E0F80193838283D0E05E
:101C1000C0E0CE01DF91CF911F910F9108959F9267
:101C2000AF92BF92CF92DF92EF92FF920F931F93EA
:101C3000CF93DF938C015B01942EE52EFC01C688C7
:101C4000D788F08C80E591E00E94C9018F2D0E9419
:101C5000280DC92DDE2D8C179D0708F4EC019E017F
:101C6000A501B6018F2D0E94B20CF80186899789D3
:101C70008C0F9D1F978B868BCE01DF91CF911F918B
:101C80000F91FF90EF90DF90CF90BF90AF909F901B
:101C90000895FF920F931F93CF93DF931F921F928C
:101CA000CDB7DEB7F82E22E030E0AE014F5F5F4FD8
:101CB00066E270E00E947D0B09811A8110270127DE
:101CC000102722E030E0AE014F5F5F4F66E270E028
:101CD0008F2D0E947D0B89819A81982789279827CB
:101CE0000817190749F4C8010F900F90DF91CF91A1
:101CF0001F910F91FF9008958C01E3CF1F93CF9315
:101D0000DF93182F87E0189FE0011124CB5EDB4F93
:101D100088819981009761F480E591E00E94C90172
:101D2000812F0E94490E2E81821B910999838883FD
:101D3000DF91CF911F9108959F92AF92BF92CF9262
:101D4000DF92EF92FF920F931F93CF93DF93EC01FB
:101D50007B0180916D04811121C01B821A8288EE63
:101D600093E0A0E0B0E08C839D83AE83BF8384E6E4
:101D700092E09983888388E08C8788EE93E09E8741
:101D80008D87CE01DF91CF911F910F91FF90EF9042
:101D9000DF90CF90BF90AF909F90089534E0932E46
:101DA000833311F028E0922E8DE4C82E84E0D82EE3
:101DB00010E098E0B92EA12CD6012D913D916D0136
:101DC000F701848195812817390791F4812F0E94AA
:101DD0007D08082F873111F08C3139F5812F0E9451
:101DE0007E0E892B59F50C3119F4812F0E9454086D
:101DF0001F5F9112E1CFA11008C0D701ED91FC91B6
:101E00000084F185E02DC70119951B821A8288EEA6
:101E100093E0A0E0B0E08C839D83AE83BF8384E633
:101E200092E099838883BC86A8CF843149F08111E0
:101E3000DFCFF601329711821082DACFB12ED8CFE0
:101E4000AA24A394D5CF8F929F92AF92BF92CF92A4
:101E5000DF92EF92FF920F931F93CF93DF93CDB753
:101E6000DEB72F970FB6F894DEBF0FBECDBF5C0173
:101E70004B017A0180916D048823C9F104E083331A
:101E800009F008E0B501CE0101960E949C0E8DE498
:101E9000C82E84E0D82E10E0F601219131916F0117
:101EA000F501848195812817390751F4812F0E940B
:101EB0007D08873129F4A701B401812F0E949D0D6F
:101EC0001F5F0113E9CFC7012F960FB6F894DEBF4D
:101ED0000FBECDBFDF91CF911F910F91FF90EF907B
:101EE000DF90CF90BF90AF909F908F900895F12C8E
:101EF000E12CE9CFFC018485883010F40C947E0E2F
:101F000090E080E008954F925F927F928F929F922F
:101F1000AF92BF92CF92DF92EF92FF920F931F93F7
:101F2000CF93DF931F921F92CDB7DEB7782E6B0150
:101F30004A01A82EB12C27E0829FC0011124FC0188
:101F4000EB5EFB4F7F010081118180E591E00E94F3
:101F5000C9010815190554F4872D0E94490EF7018F
:101F600026818C01021B11091183008301151105C3
:101F700019F5872D0E947908843159F0882349F09A
:101F800001E010E08C3111F410E000E011950195B2
:101F90001109C8010F900F90DF91CF911F910F9100
:101FA000FF90EF90DF90CF90BF90AF909F908F9079
:101FB0007F905F904F900895801691060CF48401F5
:101FC00087E08A9DF0018B9DF00D1124EB5EFB4FA5
:101FD000E280F380C114D10451F12701F7E05F22C0
:101FE000872D0E942605840D951D20916D042733B1
:101FF00009F453C09801240D351D2130384008F4F0
:102000004CC020E038E0490184189508A401B601CD
:102010000E949C072601480C591C6801C818D90861
:10202000872D0E942605A601B2010E949C07E00EA2
:10203000F11E87E08A9DF0018B9DF00D1124EB5E6F
:10204000FB4FF382E28220813181201B310B3183EF
:1020500020838681800F912F911D8A3F910510F476
:10206000232BF1F487E08A9DF0018B9DF00D112464
:10207000EB5EFB4F1682F982EA8222E030E0AE018D
:102080004F5F5F4F68E270E0872D0E94340560E487
:1020900070E0872D0E9444087CCFA801B601C5CF0F
:1020A000868377CFCF93DF93FC01218D328D21156D
:1020B000310529F48FEF9FEFDF91CF910895EC0167
:1020C000808D4217530708F0A9010E94830F18164C
:1020D000190684F7298D3A8D281B390B3A8F298FE1
:1020E000EBCF0F931F93CF93DF931F92CDB7DEB744
:1020F000FC01218D328D232B41F48FEF9FEF0F9048
:10210000DF91CF911F910F9108958C0141E050E034
:10211000BE016F5F7F4FFC01808D0E94830F1816F8
:1021200019065CF7F801818D928D0197928F818F4E
:10213000898190E0E4CFCF93DF931F92CDB7DEB7D4
:1021400041E050E0BE016F5F7F4FFC0184850E943B
:10215000830F1816190634F4898190E00F90DF91EF
:10216000CF9108958FEF9FEFF9CFFC0184858830E0
:1021700010F40C94830F90E080E008958F929F926A
:10218000AF92BF92CF92DF92EF92FF920F931F9385
:10219000CF93DF9300D000D000D01F92CDB7DEB731
:1021A00090916D04911115C018E0812F2A960FB6F9
:1021B000F894DEBF0FBECDBFDF91CF911F910F917D
:1021C000FF90EF90DF90CF90BF90AF909F908F9057
:1021D000089528E0F22E933311F494E0F92E6B0168
:1021E000082F80E591E00E94C9019E012F5F3F4FBB
:1021F0005901490110E0812F0E947908F40181936F
:102200004F018823C1F01F5FF112F5CFF12CF501CA
:1022100091915F019D3149F0983139F09A51923096
:1022200020F0F3941F11F3CFBFCF60E170E08F2D4A
:102230000E9444081F2DE12EF12CF701EE0FFF1F25
:10224000E35BFB4F1182108283EE93E00197F1F77D
:10225000402F70E060E0812F0E9471054FEF62E037
:1022600070E0812F0E947105B601CD2889F480911C
:1022700000029091010201968115F0EC9F0798F100
:10228000909301028093000260910002709101021C
:10229000812F0E945B0561E070E0812F0E9444085D
:1022A00027E02E9DC0012F9D900D11249C012B5ED7
:1022B0003B4F7901F9011182108222E030E0AE013A
:1022C000475F5F4F68E270E0812F0E947D0B898538
:1022D0009A85982789279827F70193838283168206
:1022E0001582148262CF80E090ECCACF0F931F93C7
:1022F000CF93DF93EC018B01888D883010F40E941E
:102300006008B80182E00E94BE10888F883050F4C7
:102310001D870C871A8E198E81E0DF91CF911F9156
:102320000F91089580E0F9CF0F931F93CF938C0105
:10233000FC016481758181E20E94BE10C82F883043
:10234000F8F480E591E00E94C9018C2F0E94790881
:10235000833131F08C2FCF911F910F910C94540841
:1023600062E070E08C2F0E944408F801848195811E
:10237000EC2FF0E0EE0FFF1FE35BFB4F91838083B8
:10238000CF911F910F9108950F931F93CF93DF93D8
:1023900000D000D0CDB7DEB78C0186EA92E09A83F8
:1023A0008983FB0182819381A481B5818B839C8386
:1023B000AD83BE83CE0101960E946809C8010E94C8
:1023C000941126960FB6F894DEBF0FBECDBFDF91F5
:1023D000CF911F910F910895CF92DF92EF92FF92CC
:1023E0001F93CF93DF93EC017B016A018C858830CA
:1023F00048F40E947D08882319F08C850E945408B7
:1024000088E08C87F70182819381A481B581009750
:10241000A105B10551F490E080E0DF91CF911F91CB
:10242000FF90EF90DF90CF9008958F3F9F4FAF4F79
:10243000BF4F89F370E060E081E20E94BE10182F68
:102440008C87883040F780E591E00E94C901A701A0
:102450004E5F5F4F24E030E06CE070E0812F0E941F
:102460003405B601812F0E94450564E070E0812F9C
:102470000E9444080E94EF026B017C018C850E943F
:102480007D08873111F18C3101F1882321F20E94FE
:10249000EF02AB01BC014C195D096E097F098D8506
:1024A0009E85B0E0A0E084179507A607B70738F02F
:1024B00061E070E080E090E00E94BC02DFCF8C859C
:1024C0000E94600888E08C87A6CF81E090E0A5CFCD
:1024D0000F931F93CF93DF931F921F92CDB7DEB759
:1024E000FC0124852830E0F48C0180E591E00E9415
:1024F000C90122E030E0AE014F5F5F4F60E170E064
:10250000F80184850E947D0B89819A81982789270B
:1025100098270F900F90DF91CF911F910F91089501
:1025200090E080E0F6CF0F931F93CF93DF931F923D
:102530001F92CDB7DEB7FC0124852830E0F48C0172
:1025400080E591E00E94C90122E030E0AE014F5FDA
:102550005F4F64E070E0F80184850E947D0B898103
:102560009A819827892798270F900F90DF91CF9114
:102570001F910F91089590E080E0F6CF0F931F9385
:10258000CF93DF9300D000D01F921F92CDB7DEB75C
:102590008C01D80159964D915C915A97411551057E
:1025A00051F0ED91FC91048CF58DE02D70E060E030
:1025B000C8011995EECFF801808D0E947E0E892BFF
:1025C000B1F148E050E0BE016F5F7F4FD8015896EF
:1025D0008C910E94830F18161906F4F4D8015096B6
:1025E00084E0FE01319601900D928A95E1F78D818C
:1025F00090E0982F88272E81820F911DF801958BEE
:10260000848B8F81282F30E0322F22278885820FFC
:10261000932F911D928F818F28960FB6F894DEBF6D
:102620000FBECDBFDF91CF911F910F91089590E024
:1026300080E0F2CF4F925F926F927F928F929F9243
:10264000AF92BF92CF92DF92EF92FF920F931F93C0
:10265000CF93DF93CDB7DEB763970FB6F894DEBFA5
:102660000FBECDBF7C016B013A01FB0120E090E081
:1026700080E06AE03191332309F461C040ED430FFB
:102680004A3008F04DC0689FA001699F500D112489
:10269000CA01C097830F911D37FD9A958F3F910511
:1026A00049F340F3F7014281538164817581809140
:1026B000390590913A05A0913B05B0913C0548172A
:1026C00059076A077B0709F40DC28701085F1F4F8E
:1026D0000E94EF026F7077277C5FC8010E9476111D
:1026E000813009F004C286EA92E09A838983F70177
:1026F00082819381A481B5818B839C83AD83BE83CA
:1027000045E350E0BE016F5F7F4FC8010E94DC05CA
:10271000892BA9F5D12CC12CC8010E946C0817C0C7
:102720003E3209F0BFCF233009F4BCCFD301A20F52
:10273000B11D12968C932F5F90E080E09BCF2330E9
:1027400009F0B0CFF3018583CC24C394D12CC6010A
:1027500063960FB6F894DEBF0FBECDBFDF91CF9169
:102760001F910F91FF90EF90DF90CF90BF90AF90AF
:102770009F908F907F906F905F904F9008950E94F0
:10278000EF02F7017783668342E050E0B7016A5FAA
:102790007F4FC8010E940F0E81E090E09A838983E9
:1027A00042E050E0BE016F5F7F4FC8010E940F0EF4
:1027B00080E091E09A83898342E050E0BE016F5F40
:1027C0007F4FC8010E940F0E1A82198242E050E02A
:1027D000BE016F5F7F4FC8010E940F0E42E050E0C4
:1027E000BE016F5F7F4FC8010E940F0E42E050E0B4
:1027F000BE016F5F7F4FC8010E940F0E5601F601A8
:102800008081882301F16501F60181912F018823E0
:1028100011F08E32B1F446018A189B08181419047D
:1028200074F48D8641E050E0BE01635F7F4FC801C4
:102830000E940F0EA401B501C8010E940F0E5201A3
:10284000DECF6201E1CF1D8641E050E0BE01635F53
:102850007F4FC8010E940F0EC12CDD24D394DA8271
:10286000C98242E050E0BE016F5F7F4FC8010E9405
:102870000F0EDA82C98242E050E0BE016F5F7F4FE7
:10288000C8010E940F0EC8010E940E09892B09F48D
:1028900041CFF3E0AF2EB12C230122E0420E511CB8
:1028A000D4C0F7014281538164817581808D918DFF
:1028B000A28DB38D481759076A077B0709F008C135
:1028C000848D958DC59709F003C181A192A15DEF1B
:1028D000C52EDD24DA940C970CF4ADC04CE050E02A
:1028E000BE016F5F7F4FC8010E9452108B819C8197
:1028F0009827892798279A8B898BF70146815781DA
:1029000029813A814217530709F0E7C097FFE5C0D4
:102910008F7092703BEFC32EDD24DA94892B09F07F
:102920008AC06F8078847624672476242AEFC22EAA
:10293000DD24DA946114710409F47DC0D12CC12C1A
:102940008D819E81982789279827C816D906F8F483
:1029500041E050E0BE01635F7F4FC8010E9452100A
:102960004D85442331F050E070E060E0C8010E94E2
:1029700052108D858111ECCF44E050E070E060E0B2
:10298000C8010E945210FFEFCF1ADF0AD9CF912C55
:10299000812C41E050E0BE016D5E7F4FC8010E9476
:1029A00052104B89842F807C09F06CC0442331F095
:1029B00050E070E060E0C8010E9452108B898111E4
:1029C000E8CF42E050E0BE01615F7F4FC8010E9446
:1029D000521042E050E0BE01635F7F4FC8010E9489
:1029E000521044E050E070E060E0C8010E945210D4
:1029F00042E050E0BE016F5E7F4FC8010E9452105E
:102A00008F85988949895A898115914009F043C079
:102A1000CD84DE84DC24CD24DC2481E0C816D104FE
:102A2000D1F54115544009F04AC044E050E0B201EC
:102A3000C8010E94521021E0A21AB10809F46CCE1C
:102A4000FFEFCF16DF0609F067CE0E94EF023B01D1
:102A50004C01C8010E94BE12181619060CF421CFB1
:102A60000E94EF026619770988099909693873414C
:102A70008105910548F562E370E080E090E00E94F6
:102A8000BC02E7CF41E050E070E060E0C8010E9486
:102A900052101B8A93CF54274527542770E060E0DB
:102AA000C8010E945210FFEF8F1A9F0A6814790420
:102AB00009F06FCF96EFC92EDD24DA94BCCFE7EF93
:102AC000CE2EDD24DA94B7CFCC24CA94DC2CB3CF3D
:102AD0006EEFC62EDD24DA94AECF4CEFC42EDD248B
:102AE000DA94A9CF8EEFC82EDD24DA9430CED12C23
:102AF000C12C2DCECF92DF92EF92FF920F931F93B6
:102B0000CF93DF93CDB7DEB7AF970FB6F894DEBFA4
:102B10000FBECDBF7C016A0106EA12E01A83098369
:102B20001C861B8688EE93E0A0E0B0E08D879E8730
:102B3000AF87B88B89E192E09A878987188F0F8BCE
:102B4000198E1A8E1B8E1C8E88E089A31BA70AA7DC
:102B50001CA61DA61EA61FA680912D0590912E05D0
:102B6000A0912F05B09130058EA39FA3A8A7B9A768
:102B70008B839C83AD83BE8318861F82AE01465D26
:102B80005F4FCE0101960E941A1381309105B1F476
:102B9000D701ED91FC910488F589E02D1DA30CA3CC
:102BA0008CA59DA5AEA5BFA58EA39FA3A8A7B9A7D9
:102BB000A601BE016C5D7F4FC7011995AF960FB698
:102BC000F894DEBF0FBECDBFDF91CF911F910F9163
:102BD000FF90EF90DF90CF900895CF92DF92EF9229
:102BE000FF920F931F93CF93DF93CDB7DEB7AF97CD
:102BF0000FB6F894DEBF0FBECDBF8C016B017A011A
:102C000086EA92E09A8389831B821C821D821E823F
:102C10001C861B8648EE53E060E070E04D875E87BF
:102C20006F87788B29E132E03A872987988F8F8BDD
:102C3000198E1A8E1B8E1C8E28E029A39BA78AA7AB
:102C40001CA61DA61EA61FA6D8011C968C91883016
:102C500060F40E947D08882321F0F80184850E9499
:102C6000540888E0D8011C968C9380912D05909192
:102C70002E05A0912F05B09130058EA39FA3A8A784
:102C8000B9A78B839C83AD83BE8318861F82AE0158
:102C9000465D5F4FB601CE0101960E941A13009760
:102CA000C1F0D801ED91FC910684F785E02D86EA0C
:102CB00092E09DA38CA38CA59DA5AEA5BFA58EA3D8
:102CC0009FA3A8A7B9A7A701BE016C5D7F4FC8014C
:102CD0001995AF960FB6F894DEBF0FBECDBFDF914A
:102CE000CF911F910F91FF90EF90DF90CF900895BB
:102CF000EF92FF920F931F93CF93DF9300D01F9219
:102D0000CDB7DEB78C017B01FB0184858830A8F04C
:102D100086EA92E0F8019183808312821382148202
:102D20001582C8010F900F900F900F90DF91CF91F7
:102D30001F910F91FF90EF90089580E591E00E9420
:102D4000C90124E030E0AE014F5F5F4F6CE070E0FE
:102D5000F70184850E947D0B86EA92E0F801918359
:102D6000808389819A81AB81BC8182839383A48390
:102D7000B583D7CF1F920F920FB60F9211242F93C6
:102D80003F938F939F93AF93BF9380910D04909146
:102D90000E04A0910F04B091100430910C0423E0B4
:102DA000230F2D3758F50196A11DB11D20930C045A
:102DB00080930D0490930E04A0930F04B09310041D
:102DC0008091110490911204A0911304B091140405
:102DD0000196A11DB11D8093110490931204A0933C
:102DE0001304B0931404BF91AF919F918F913F91C1
:102DF0002F910F900FBE0F901F90189526E8230F6C
:102E00000296A11DB11DD2CF1F920F920FB60F9245
:102E100011240BB60F922F933F934F935F936F93B1
:102E20007F938F939F93AF93BF93EF93FF9380E72D
:102E300094E00E946F03FF91EF91BF91AF919F913A
:102E40008F917F916F915F914F913F912F910F9053
:102E50000BBE0F900FBE0F901F9018951F920F92F0
:102E60000FB60F9211240BB60F922F938F939F934F
:102E7000EF93FF93E0918004F09181048081E091D1
:102E80008604F091870482FD1DC0908180918904A1
:102E90008F5F8F7320918A04821741F0E09189043B
:102EA000F0E0E059FB4F958F80938904FF91EF91FB
:102EB0009F918F912F910F900BBE0F900FBE0F908F
:102EC0001F9018958081F2CF1092730410927204B3
:102ED00048EE53E060E070E0409374045093750452
:102EE000609376047093770482E592E09093710486
:102EF0008093700485EC90E090937D0480937C0433
:102F000084EC90E090937F0480937E0480EC90E0CA
:102F1000909381048093800481EC90E090938304EB
:102F20008093820482EC90E09093850480938404E3
:102F300086EC90E090938704809386041092890435
:102F400010928A0410928B0410928C0486EA92E00C
:102F500090930E0580930D0510920F0510921005A9
:102F60001092110510921205909314058093130589
:102F7000109215051092160510921705109218055B
:102F800090931A058093190510921B0510921C0549
:102F900010921D0510921E059093200580931F0529
:102FA00010922105109222051092230510922405FB
:102FB00090932605809325051092270510922805E9
:102FC0001092290510922A059093320580933105BD
:102FD0001092330510923405109235051092360583
:102FE00090932C0580932B0510922D0510922E05A1
:102FF00010922F0510923005909338058093370575
:103000001092390510923A0510923B0510923C053A
:1030100090933E0580933D0510923F051092400528
:103020001092410510924205909344058093430508
:1030300010924505109246051092470510924805DA
:1030400090936F0580936E05109270051092710534
:10305000109272051092730590936905809368052C
:1030600080EC80936A0588EA80936B0510926C056A
:103070008DE880936D0580915E0581112EC01092C0
:103080004C0510924B0586E992E090934A05809397
:10309000490586EF91E090934E0580934D0510927F
:1030A0005205109251054093530550935405609377
:1030B00055057093560584E692E0909350058093F1
:1030C0004F0588E080935B0588EE93E090935D0563
:1030D00080935C0581E080935E0589E495E09093A0
:1030E0006705809366050895CF93DF93CDB7DEB76C
:1030F000CF56D1090FB6F894DEBF0FBECDBF78947E
:1031000084B5826084BD84B5816084BD85B58260EC
:1031100085BD85B5816085BD80916E00816080939D
:103120006E00109281008091810082608093810006
:103130008091810081608093810080918000816016
:10314000809380008091B10084608093B100809171
:10315000B00081608093B000809191008260809384
:103160009100809191008160809391008091900006
:103170008160809390008091A10082608093A10083
:103180008091A10081608093A1008091A000816066
:103190008093A00080912101826080932101809121
:1031A00021018160809321018091200181608093C1
:1031B000200180917A00846080937A0080917A0067
:1031C000826080937A0080917A00816080937A0097
:1031D00080917A00806880937A001092C100E0911B
:1031E0008004F091810482E08083E0917C04F0917E
:1031F0007D041082E0917E04F0917F0480E1808361
:1032000010928804E0918404F091850486E0808324
:10321000E0918204F0918304808180618083E09159
:103220008204F0918304808188608083E09182042D
:10323000F0918304808180688083E0918204F09122
:10324000830480818F7D808385E380930202809157
:1032500066059091670526EA32E03A83298340911A
:103260006A0550916B0560916C0570916D054B83FB
:103270005C836D837E83BE016F5F7F4F0E94C411AC
:103280006BEA72E080E794E00E94880767EB72E0E7
:1032900080E794E00E94E30660E774E088E695E04A
:1032A0000E943E0768EA72E080E794E00E94E3062D
:1032B0008091610481110BC010925D0410925E0434
:1032C0001092600410925F0481E08093610461E0D9
:1032D00081E30E94660260E080E30E94660261E092
:1032E0008EE20E94660261E080E10E94660260E078
:1032F0008EE20E94380261E081E30E94380260E0C1
:1033000080E10E9438026CEB72E080E794E00E945A
:1033100088070FE312E066E4C62E62E0D62ED801DD
:10332000FD908D0161E08F2D0E94660260E08F2D7F
:103330000E943802C016D10691F762EC72E080E775
:1033400094E00E94880706E412E0F801F180E08032
:1033500061E08E2D0E94660261E08F2D0E94660260
:1033600060E08E2D0E94380260E08F2D0E943802AE
:103370000E5F1F4FF2E00E341F0739F75E012DE399
:10338000A20EB11C1E0145E1240E311C80915E0588
:10339000811132C010924C0510924B0586E992E0E3
:1033A00090934A058093490586EF91E090934E05EE
:1033B00080934D05109252051092510588EE93E0CE
:1033C000A0E0B0E08093530590935405A093550579
:1033D000B093560584E692E09093500580934F0594
:1033E00088E080935B0588EE93E090935D05809381
:1033F0005C0581E080935E0569E475E0CE01805A4A
:103400009F4F0E949C0EAD968FADAD978830E8F52A
:103410008FE495E00E94B308811137C0A4968EAD69
:103420009FADA4979093520580935105A8968CADBB
:103430009DADAEADBFADA897809353059093540555
:10344000A0935505B0935605AC968CAD9DADAEAD31
:10345000BFADAC978093570590935805A09359053D
:10346000B0935A05AD968FADAD9780935B05AF963F
:103470008EAD9FADAF9790935D0580935C0568EC32
:1034800072E080E794E00E9488078FE495E00E9454
:103490007A0F8C01181619060CF018C375018FE409
:1034A00095E00E949B10D7018D937D01CD018A1973
:1034B0009B09801791079CF3B801615071090115B0
:1034C000110509F403C38091FC03811103C081E05D
:1034D0008093FC0380910404811103C081E08093F8
:1034E00004048DAD89A721E030E081E090E04EE753
:1034F000E42E5AEAD52EE9E2F0E0EC0FFD1FE80FCA
:10350000F91F2617370730F5D501A20FB31FFC901E
:10351000BDE7FB121CC0A9014F5F5F4F4017510769
:10352000B0F4D501A40FB51FAC91AD3569F0AE353F
:1035300029F0AA3231F40196D08202C00196E082CD
:103540009A012F5F3F4FD7CF0196F082F9CF0196B6
:10355000F082F7CF6A0D7B1DDB01FC90F08284E1E5
:10356000F10111928A95E9F7E9A4FEE7EF1679F0E7
:1035700066EF72E080E794E00E9488078EE78D8B0B
:1035800080EE8E8B8AEA8F8B03E010E0EEC02AEA91
:10359000F21649F067E073E080E794E00E94880744
:1035A000ED8A81EEEECF8AA5803B41F566E173E0BE
:1035B00080E794E00E9488078091610481110BC02C
:1035C00010925D0410925E041092600410925F04E9
:1035D00081E0809361048DE594E00E945206909111
:1035E0005F04809160042EE72D8B20EC2E8B9F8B47
:1035F000888F8AEA898F05E010E0B7C0813B09F027
:103600001EC16EE273E080E794E00E9488077BA40D
:10361000072D10E0C8010197079728F0ED8A82EE88
:103620008E8B80ED20C1FCA49DA46FE473E080E745
:1036300094E00E94E3064F2D50E070E060E02AE045
:1036400080E794E00E94F20668EA72E080E794E086
:103650000E94E30688EE93E0F89E6001F99ED00C8C
:1036600011240D2C000CEE08FF0867E673E080E7DC
:1036700094E00E94E3062AE0B701A60180E794E007
:103680000E94F20668EA72E080E794E00E94E30696
:10369000892D90E0B0E0A0E08A309105A105B10548
:1036A00008F0ADC0292D30E0A4E6B0E00E94D61DA0
:1036B000C60ED71EE81EF91E80E190E00E94ED1DA7
:1036C0004C01DC0111961C930E93FC01C382D48241
:1036D000E582F6821786F801E25CFD4F10811296B2
:1036E0001C93C114D104E104F10409F034C260E078
:1036F000812F0E94380260E0812F0E9438028EE7FD
:103700008D8B81EC8E8B7F8A83E090E0C114D10495
:10371000E104F104F9F0C701B60128EE33E040E01E
:1037200050E00E94B41D022F162FD72E7C0124E6F4
:1037300030E040E050E00E94B41D672B682B692BFD
:1037400009F06CC020930000088F80910000898FE1
:1037500085E090E08C010F5F1F4F820D931D2AEAD8
:10376000FC012083C4010E94891E8D898983DE01AA
:10377000569681E090E0015011093DE76EE57DE548
:103780002AE2D22E7C01EFEFEE1AFE0AE1E0F0E031
:10379000EC0FFD1FE80FF91FAD0142195309401747
:1037A000510708F080C12D9141E050E04C0F5D1FA2
:1037B000E40EF51E2E3709F469C12A3A09F46EC1E8
:1037C0002D3789F4E1E0F0E0EC0FFD1FE80FF91F61
:1037D0003083FC01319641E050E04C0F5D1FE40F57
:1037E000F51F02967083AC014F5F5F4FE1E0F0E0A0
:1037F000EC0FFD1F8E0F9F1FFC0120834DC18436EF
:103800009105A105B10528F4292D30E0AAE0B0E02A
:103810004DCFC80ED91EEA1EFB1E4ECF612F7D2D47
:10382000C7012AE030E040E050E00E94B41D672B61
:10383000682B692B09F486CF1093000085CF823B5B
:1038400009F0F8C066E873E080E794E00E9488071A
:103850005BA444244A94450CF3E0F41538F4ED8A53
:1038600083EE8E8B81ED8F8BF88E37C06DE973E020
:1038700080E794E00E94E306452D50E070E060E0B0
:103880002AE080E794E00E94F20668EA72E080E7AE
:1038900094E00E94E3066CA48FEF860D8E3F28F41F
:1038A000ED8A83EE8E8B84EDDECFCDA4DEA48FA4D3
:1038B00098A879A88FEF870D873018F0ED8A83EEEE
:1038C000AFCEFAA820E12F1558F48EE78D8B83EE4A
:1038D0008E8B85ED8F8B8AEA888F04E010E045CFD0
:1038E000EBA88FE090E00E94ED1D8C01E42DF0E04C
:1038F000DC014C9211966C9211971396DC92CE9249
:10390000129715969C928E92149716967C92169703
:103910001796FC9217971896EC9218971C961C9283
:103920001E921B971D961C921D971E961C921E9709
:10393000EE0FFF1FEA5BFD4F808119968C9319975C
:1039400041801A964C9261E0611060E00E9438025A
:10395000E72DF0E0E25CFD4F708061E0872D0E9472
:103960003802912C812CF801F585E096FFAFE097A5
:103970008C149D0489F120E1F21659F0F1111FC059
:103980008F2D0E94C006882321F0E1E0D8011D960A
:10399000EC9361E0842D0E943802F80183859485C0
:1039A00001969487838760E0842D0E9438028BEA19
:1039B00094E00197F1F7FFEF8F1A9F0AD4CFD80157
:1039C00014968D919C911597009731F0019715965B
:1039D0009C938E931497DDCF6AEA73E080E794E0BE
:1039E0000E94880760E0872D0E94380220E1E216DD
:1039F00031F08E2D0E94C006D8011E968C938EE762
:103A00008D8B82EC8E8B5F8A688EF801938584851E
:103A1000998F8A8FE096FFADE097FB8FD8011E96B5
:103A20008C918C8F8AEA8D8FC8010E94891E09E0D3
:103A300010E09BCE833B29F56BEB73E080E794E0CD
:103A40000E9488070BA58FEF800F873018F0ED8A52
:103A500084EEE6CD1CA5123028F0ED8A84EE8E8B24
:103A600086ED01CFE02FF0E0E25CFD4F612F808119
:103A70000E943802ED8A83EC8E8B0F8B188FF98EA3
:103A8000BACDED8A8AEE8E8BFF8A7ECD3083AC0173
:103A90004E5F5F4FF7016083CA0174CE3083029698
:103AA000F701D0828FCE020D131DD8018C91808337
:103AB0008FE495E00E94B308882359F0A701BE0166
:103AC0006F5F7F4F8FE495E00E94F40D0E94FE032C
:103AD0005DCC69E475E0CE018F5A9F4F0E949C0E29
:103AE0006E968FAD6E97883078F565962EAD3FADAA
:103AF0006597309352052093510569964CAD5DADA5
:103B00006EAD7FAD69974093530550935405609314
:103B10005505709356056D964CAD5DAD6EAD7FADA0
:103B20006D974093570550935805609359057093CE
:103B30005A0580935B05A0968EAD9FADA09790939C
:103B40005D0580935C05BACF60ED73E080E794E09B
:103B50000E948807BBCF61E0812F0E943802C70115
:103B6000B6010E94BC02C7CDA1E21A2EAA1BBB1B44
:103B7000FD010DC0AA1FBB1FEE1FFF1FA217B30739
:103B8000E407F50720F0A21BB30BE40BF50B661F4F
:103B9000771F881F991F1A9469F760957095809513
:103BA00090959B01AC01BD01CF010895A29FB0018A
:103BB000B39FC001A39F700D811D1124911DB29F61
:103BC000700D811D1124911D0895EE0FFF1F881F98
:103BD0008BBF0790F691E02D19940F931F93CF930D
:103BE000DF938230910510F482E090E0E091760559
:103BF000F091770530E020E0B0E0A0E0309799F454
:103C00002115310509F44AC0281B390B2430310530
:103C1000D8F58A819B816115710589F1FB01938338
:103C20008283FE0111C040815181028113814817B6
:103C30005907E0F04817590799F4109761F0129668
:103C40000C93129713961C933296CF01DF91CF916C
:103C50001F910F9108950093760510937705F4CF87
:103C60002115310551F04217530738F0A901DB0146
:103C70009A01BD01DF01F801C1CFEF01F9CF9093A7
:103C8000770580937605CDCFFE01E20FF31F819378
:103C900091932250310939832883D7CF209174051D
:103CA00030917505232B41F420910B0230910C02C9
:103CB00030937505209374052091090230910A0212
:103CC0002115310541F42DB73EB740910D025091B9
:103CD0000E02241B350BE0917405F0917505E21777
:103CE000F307A0F42E1B3F0B2817390778F0AC011F
:103CF0004E5F5F4F2417350748F04E0F5F1F5093FC
:103D0000750540937405819391939FCFF0E0E0E0B7
:103D10009CCFCF93DF930097E9F0FC013297138299
:103D20001282A0917605B0917705ED0130E020E098
:103D30001097A1F420813181820F931F2091740587
:103D4000309175052817390709F061C0F0937505A2
:103D5000E0937405DF91CF910895EA01CE17DF0754
:103D6000E8F54A815B819E0141155105B1F7E901F2
:103D7000FB83EA8349915991C40FD51FEC17FD07C6
:103D800061F4808191810296840F951FE9019983E6
:103D90008883828193819B838A83F0E0E0E012969E
:103DA0008D919C9113970097B9F52D913C911197A6
:103DB000CD010296820F931F2091740530917505F5
:103DC0002817390739F6309751F510927705109278
:103DD0007605B0937505A0937405BCCFD383C283D9
:103DE00040815181840F951FC817D90761F44E5F38
:103DF0005F4F88819981480F591F518340838A8181
:103E00009B81938382832115310509F0B0CFF09314
:103E10007705E09376059ECFFD01DC01C0CF1382CC
:103E20001282D7CFDC0101C06D9341505040E0F7C2
:063E30000895F894FFCF95
:103E360000C00ADEADBEEFFEED0000780580000191
:103E4600005E000000000000008E050F0E4F06D039
:103E560001CC017110540B7611710C6C08DC057ADB
:103E6600150E09BE1252102B061B06170613061650
:103E76001718191A1B1C200D210C220B230A0000EF
:103E860000009103FB022803DE03590337034B03AB
:103E960000000000C505F40D940D7F0D7A0F9B10F0
:103EA600630BEC11ED15B510D508B30845064D06A4
:103EB600E10642064006BA053606931278166812DF
:103EC600320600000000A405230F4F064E0694118B
:103ED6008708000000003E070D0A00746370206822
:103EE600616E646C65720049503A200072656C61BF
:103EF60079006D6F746F720074637020636C69650E
:103F06006E7420646973636F6E6E65637465642096
:103F1600616E64206E657720636C69656E742061DE
:103F2600636365707400737461727420627974657A
:103F3600206572726F7200656E6420627974652006
:103F46006572726F720073656E736F72207265713F
:103F56007565737420646973706174636800726553
:103F66006C617920636F6E74726F6C207769746808
:103F76002074696D65206469737061746368006498
:103F860061746120312028696E74656765722070DE
:103F9600617274293A2000646174612031202869B5
:103FA6006E7465676572207061727429202A2031EB
:103FB6003030303A20006D6F746F7220636F6E740C
:103FC600726F6C206469737061746368006D6F74DE
:103FD6006F725F6E756D6265720072656C617920D5
:103FE6006F66662074696D696E670072656C6179CB
:103FF600206F6E2F6F66662068616E646C65720056
:10400600746370206E6F7420617661696C61626C96
:104016006520746F2073656E6420726573706F6EB1
:0C4026007365206D6573736167650000B1
:00000001FF
