:100000000C9495010C94C6010C94C6010C94C60185
:100010000C94C6010C94C6010C94C6010C94C60144
:100020000C94C6010C94C6010C94C6010C94C60134
:100030000C94C6010C94C6010C94C6010C94C60124
:100040000C94C6010C94C6010C94C6010C94C60114
:100050000C94C6010C94C6010C94C6010C944D1767
:100060000C94C6010C94C1170C9497170C94C601FC
:100070000C94C6010C94C6010C94C6010C94C601E4
:100080000C94C6010C94C6010C94C6010C94C601D4
:100090000C94C6010C94C6010C94C6010C94C601C4
:1000A0000C94C6010C94C6010C94C6010C94C601B4
:1000B0000C94C6010C94C6010C94C6010C94C601A4
:1000C0000C94C6010C94C6010C94C6010C94C60194
:1000D0000C94C6010C94C6010C94C6010C94C60184
:1000E0000C94C6010C942E110C9427120C94280326
:1000F0000C9414020C94DE030C9432060C94360615
:100100000C9468090C94B60F0C9491030C94DC05C4
:100110000C94C1060C944F060C941A090C94130607
:100120000C94C5050C94FF080C94FD010C948016EA
:100130000C942B060C947F120C94A4050C94BA0515
:100140000C9440060C9437030C94E70B0C9430028B
:100150000C9451130C94D0010C944E060C941C0278
:100160000C9434020C94A20E0C948E050C94E510A1
:100170000C94040D0C9446090C940D160C94120E5C
:100180000C9422020C94870E0C94F9010C94261303
:100190000C9401020C9445060C944B030C940E0233
:1001A0000C94F7170C940B170C9442060C940D103A
:1001B0000C940A020C941B060C9459030C94F50140
:1001C0000C942F020C94EF010C94FB020C94270E5C
:1001D0000C9417060C94CC010C942A020C94260261
:1001E0000C9409120C94A1090C9464060C944D060D
:1001F0000C9418020C94F60B0C94FB120C944811FE
:100200000C9404020C94041100002000230026002A
:1002100029002C002F00320000010000030106011C
:10022000090100000A0B02090C0D0E080703040166
:1002300000000000000000000000000000000000BE
:10024000000000000000000000000000000012118B
:10025000100000000000000000000000000000008E
:10026000000000000000000000002200250028001F
:100270002B002E00310034000201000005010801AE
:100280000B0100002100240027002A002D0030006F
:10029000330001010000040107010A0101021020DE
:1002A00020080810204010204080020102010804AC
:1002B0000201010204081020408080402010080440
:1002C0000201800402018040201008040201080499
:1002D00002010102040810204080010204081020DD
:1002E0004080050505050705080808080202020206
:1002F0000A0A0808040404040101010101010101C2
:100300000303030303030303040707070C0C0C0C8C
:100310000C0C0C0C02020202060606060606060675
:100320000B0B0B0B0B0B0B0BF71711241FBECFEF97
:10033000D1E2DEBFCDBF00E00CBF13E0A0E0B2E031
:10034000ECEEFEE300E00BBF02C007900D92AC3F65
:10035000B107D9F725E0ACEFB3E001C01D92A83793
:10036000B207E1F711E0C5E9D1E000E006C021974E
:100370000109802FFE010E94401EC439D10780E090
:100380000807A9F70E9407190C94741F0C94000029
:1003900008958CBD9DBD0895FC01818D928D0895B9
:1003A00008958150823108F05AC0E82FF0E0882784
:1003B000E352FE4F8F4F0C94401EFD010102EF01EE
:1003C000F501F9012F0204020A020E0214021802BA
:1003D0001C02220226022F022A02300234028091DD
:1003E00080008F77809380000895809180008F7DBA
:1003F000F9CF80918000877FF5CF84B58F7784BD5A
:10040000089584B58F7DFBCF8091B0008F77809366
:10041000B00008958091B0008F7DF9CF8091900059
:100420008F77809390000895809190008F7DF9CF11
:1004300080919000877FF5CF8091A0008F77809387
:10044000A00008958091A0008F7DF9CF8091A00039
:10045000877FF5CF809120018F77809320010895C9
:10046000809120018F7DF9CF80912001877FF5CF8A
:100470001F93CF93DF93282F30E0F901EE5DFD4FFE
:100480008491F901E456FD4FD491F901EE51FD4FED
:10049000C491CC23A9F0162F81110E94D101EC2F19
:1004A000F0E0EE0FFF1FE859FD4FA591B4918FB713
:1004B000F894EC91111108C0D095DE23DC938FBF26
:1004C000DF91CF911F910895DE2BF8CFCF93DF936B
:1004D00090E0FC01E456FD4F24918E519D4FFC01AC
:1004E00084918823D1F090E0880F991FFC01EE578A
:1004F000FD4FA591B491FC01E859FD4FC591D491F0
:1005000061110EC09FB7F8948C91E22FE0958E2375
:100510008C932881E223E8839FBFDF91CF910895D8
:100520008FB7F894EC91E22BEC938FBFF6CF3FB7E7
:10053000F89480911D0490911E04A0911F04B09125
:10054000200426B5A89B05C02F3F19F00196A11DD8
:10055000B11D3FBFBA2FA92F982F8827BC01CD010D
:10056000620F711D811D911D42E0660F771F881F6C
:10057000991F4A95D1F708958F929F92AF92BF929B
:10058000CF92DF92EF92FF926B017C010E94970263
:100590004B015C01C114D104E104F104B9F00E94E3
:1005A0009702681979098A099B09683E7340810599
:1005B000910580F321E0C21AD108E108F10888EE24
:1005C000880E83E0981EA11CB11CE4CFFF90EF9031
:1005D000DF90CF90BF90AF909F908F9008952FB7EE
:1005E000F8946091190470911A0480911B04909101
:1005F0001C042FBF0895AF92BF92CF92DF92EF926B
:10060000FF920F931F93CF93DF936C017B018B01BC
:10061000040F151FEB015E01AE18BF08C017D1070C
:1006200059F06991D601ED91FC910190F081E02D96
:10063000C6011995892B79F7C501DF91CF911F91DB
:100640000F91FF90EF90DF90CF90BF90AF90089503
:10065000FC01538D448D252F30E0842F90E0821BC8
:10066000930B541710F0CF96089501970895FC014D
:10067000918D828D981761F0A28DAE0FBF2FB11DA5
:100680005D968C91928D9F5F9F73928F90E00895FD
:100690008FEF9FEF0895FC01918D828D981731F0B7
:1006A000828DE80FF11D858D90E008958FEF9FEF0B
:1006B0000895FC01918D228D892F90E0805C9F4FE1
:1006C000821B91098F739927089580E794E00E9417
:1006D000590321E0892B09F420E0822F0895FC01C1
:1006E000A48DA80FB92FB11DA35ABF4F2C91848D93
:1006F00090E001968F739927848FA689B7892C93F0
:10070000A089B1898C91837080648C93938D848D42
:10071000981306C00288F389E02D80818F7D808345
:100720000895EF92FF920F931F93CF93DF93EC0105
:1007300081E0888F9B8D8C8D98131AC0E889F98988
:10074000808185FF15C09FB7F894EE89FF8960838B
:10075000E889F98980818370806480839FBF81E00C
:1007600090E0DF91CF911F910F91FF90EF9008954E
:10077000F62E0B8D10E00F5F1F4F0F731127E02E29
:100780008C8D8E110CC00FB607FCFACFE889F98961
:10079000808185FFF5CFCE010E946F03F1CFEB8DF5
:1007A000EC0FFD2FF11DE35AFF4FF0829FB7F89435
:1007B0000B8FEA89FB8980818062CFCFCF93DF9353
:1007C000EC01888D8823B9F0AA89BB89E889F98969
:1007D0008C9185FD03C0808186FD0DC00FB607FC9E
:1007E000F7CF8C9185FFF2CF808185FFEDCFCE01D1
:1007F0000E946F03E9CFDF91CF91089580E090E0F0
:10080000892B29F00E94650381110E94000080E07D
:1008100090E0892B49F080E090E0892B29F00E943C
:10082000000081110E94000080E090E0892B49F0D7
:1008300080E090E0892B29F00E94000081110E9445
:10084000000080E090E0892B49F080E090E0892B67
:1008500029F00E94000081110C9400000895FC0111
:1008600020812EBD9B012150310941F051810DB4F1
:1008700007FEFDCF4EB55EBD4193F5CF61507109C6
:10088000860F971F0DB407FEFDCF2EB5FC01208308
:100890000895E0916A04F0916B048081909169045D
:1008A000892B80830895E0916A04F0916B04908114
:1008B0008091690480958923808308958EBD00000E
:1008C0000DB407FEFDCF8EB50895AF92BF92CF92C3
:1008D000DF92EF92FF920F931F93CF93DF9300D09D
:1008E00000D01F921F92CDB7DEB78C017B016A0149
:1008F00080916D048333E1F45801A40EB51EA01657
:10090000B10609F46FC00E94530480EF0E945E0498
:10091000812F0E945E04802F0E945E040F5F1F4F94
:10092000F70181917F010E945E040E944904E7CF94
:100930005B01A40EB51E8433C1F40E9453041983D5
:100940000A838D2D80688B83CC8264E070E0CE01B9
:1009500001960E942F04AE14BF0409F441C0F701B0
:1009600081917F010E945E04F6CF0E9453040F3FE5
:10097000110509F028F419820A8384E08B830CC0E6
:1009800017FD17C019820A8333E0169507953A952B
:10099000E1F7007E0C600B8386E0C816D104A0F559
:1009A000F701DE011496EA15FB0599F081918D930C
:1009B000FACFC80126E0969587952A95E1F7807EC3
:1009C00019830A830115104C10F48461D7CF8C6110
:1009D000D5CFB6016D5F7F4FCE0101960E942F04E7
:1009E0000E944904C60128960FB6F894DEBF0FBED8
:1009F000CDBFDF91CF911F910F91FF90EF90DF90CE
:100A0000CF90BF90AF90089563E070E0CE01019663
:100A10000E942F04F70181917F010E945E04AE14B1
:100A2000BF04C1F7DDCFCF93DF931F92CDB7DEB701
:100A3000898341E050E0BE016F5F7F4F90E080E02E
:100A40000E9465040F90DF91CF91089590E020916E
:100A50006D04233339F40C96982F990F990F990F41
:100A600080E008954896F8CFDA01E0916E04F0E056
:100A7000FE2FEE27E60FF71F90E0982F8827A90199
:100A8000BD018E0F9F1F0C946504CF93DF931F92BF
:100A90001F92CDB7DEB779836A8322E030E0AE01E2
:100AA0004F5F5F4F60E170E00E9434050F900F9040
:100AB000DF91CF910895CF93DF931F921F92CDB70F
:100AC000DEB779836A8322E030E0AE014F5F5F4F8B
:100AD00064E070E00E9434050F900F90DF91CF9199
:100AE0000895CF93DF931F92CDB7DEB720916E04A8
:100AF00030E0322F2227260F371F90E0982F8827CB
:100B0000498341E050E0BE016F5F7F4F820F931F2A
:100B10000E9465040F90DF91CF910895CF93DF93EA
:100B20001F92CDB7DEB76983DC01ED91FC910280A5
:100B3000F381E02D41E050E0BE016F5F7F4F1995DA
:100B40000F90DF91CF910895CF93DF931F92CDB790
:100B5000DEB76983DC01ED91FC910280F381E02D29
:100B600041E050E0BE016F5F7F4F19950F90DF911C
:100B7000CF910895FC019485FB018485981303C0EF
:100B800081E0983008F080E00895CF93DF931F92C2
:100B9000CDB7DEB76983DC01ED91FC910280F38172
:100BA000E02D41E050E0BE016F5F7F4F19950F903F
:100BB000DF91CF9108950895FF920F931F93CF93E4
:100BC000DF93EB01FC01178A168A2A81211109C0E3
:100BD0002B81211106C02C81211103C02D812223DC
:100BE00001F141155105E9F08A01FC01F08C80E525
:100BF00091E00E94C901AE014E5F5F4F24E030E0FA
:100C00006CE070E08F2D0E943405B8018F2D0E949A
:100C1000450581E090E0DF91CF911F910F91FF900A
:100C2000089580E0F7CFFC01848595850895FC0147
:100C300084899589089526EA32E0FC013183208376
:100C4000FB014089518962897389FC014283538386
:100C5000648375830895DC01ED91FC91048CF58D1E
:100C6000E02D1994FC01768765870895DC01ED91EC
:100C7000FC9102A0F3A1E02D199591E08927089538
:100C8000862F089581E08627089521E0FC01848560
:100C9000883008F020E0822F08950895089590E0AC
:100CA00080E008958091000481110BC01092FC0334
:100CB0001092FD031092FF031092FE0381E08093D7
:100CC00000048CEF93E008950C94E41EFB01019066
:100CD0000020E9F73197AF01461B570BDC01ED917E
:100CE000FC910280F381E02D19948F929F92AF9234
:100CF000BF92EF92FF920F931F93CF93DF93CDB7E5
:100D0000DEB7A1970FB6F894DEBF0FBECDBF7C0152
:100D1000FA01CB0119A2223008F42AE08E010F5DFE
:100D20001F4F822E912CB12CA12CBF01A501940143
:100D30000E940F1EF901CA016A300CF5605DD801EE
:100D40006E938D01232B242B252B79F790E080E0E7
:100D5000109721F0BD01C7010E946606A1960FB64B
:100D6000F894DEBF0FBECDBFDF91CF911F910F91E1
:100D7000FF90EF90BF90AF909F908F900895695C27
:100D8000DECF8F929F92AF92BF92CF92DF92EF927F
:100D9000FF920F931F93CF93DF937C01EB016C01C4
:100DA00082E0C80ED11C4701E5E08E0E911C10E0D8
:100DB00000E0F60141916F0150E070E060E02AE050
:100DC000CE010E9475065C01E881F9810190F081F5
:100DD000E02D6EE2CE0119958A0D9B1D080F191F9B
:100DE000C814D90431F7F701458150E070E060E0A4
:100DF0002AE0CE010E947506800F911FDF91CF91EE
:100E00001F910F91FF90EF90DF90CF90BF90AF9028
:100E10009F908F900895BC0180E794E00C94660643
:100E2000CF92DF92EF92FF92CF93DF936C01990FF5
:100E3000EE08FF08F7FE23C06DE280E794E00E9411
:100E40009103EC0144275527BA014C195D096E093D
:100E50007F092AE080E794E00E947506C80FD91F39
:100E600068EA72E080E794E00E9466068C0F9D1F9E
:100E7000DF91CF91FF90EF90DF90CF9008952AE01F
:100E8000B701A60180E794E00E947506EC01E8CF67
:100E9000CF93DF93AC0170E060E02AE080E794E05C
:100EA0000E947506EC0168EA72E080E794E00E9417
:100EB00066068C0F9D1FDF91CF9108956F927F92F0
:100EC0008F929F92AF92BF92CF92DF92EF92FF925A
:100ED0000F931F93CF93DF938C0160E081E30E9417
:100EE000380261E081E30E943802F8011382128225
:100EF000CFE0D0E0F12CE12C92E5C92E92E0D92E82
:100F00002CECA22E22E0B22E32E1832E33E0932E7F
:100F1000F6018491F5017490F4016490662009F45F
:100F200041C081110E94D101E62DF0E0EE0FFF1FBC
:100F3000E85FFD4FA591B4918C91782231E020E0DB
:100F400009F430E0832F922F0C2E02C0880F991FD6
:100F50000A94E2F7E82AF92A61E08EE20E94380258
:100F600060E08EE20E943802219790F6F801F38249
:100F7000E2828BEA92E00E940B07F8018281938162
:100F80000E94480780E0DF91CF911F910F91FF9061
:100F9000EF90DF90CF90BF90AF909F908F907F9019
:100FA0006F90089590E080E0CFCFCF93DF93482FEC
:100FB00050E070E060E02AE080E794E00E9475066F
:100FC000EC0168EA72E080E794E00E9466068C0F0C
:100FD0009D1FDF91CF9108950F931F93CF93DF93C0
:100FE000EC010E9466068C0168EA72E0CE010E9464
:100FF0006606800F911FDF91CF911F910F91089589
:101000000F93CF93DF93EC01798368832B833C8329
:101010004D835E830F87625C7D4FFB0180818A83F5
:10102000232B242B252B51F00E94EF026F8378870E
:1010300089879A87DF91CF910F9108956AEB72E0CB
:1010400080E794E00E94EC078F8590E00E941007F3
:101050006F858A81DF91CF910F910C943802AF9206
:10106000BF92CF92DF92EF92FF920F931F93CF9395
:10107000DF9300D01F92CDB7DEB78C016B017A01F0
:1010800080916D048333E9F45B016801C40ED51EC1
:10109000C016D106A9F10E9453048FE00E945E049D
:1010A000812F0E945E04802F0E945E040F5F1F4FFD
:1010B00080E00E945E04F50181935F010E94490473
:1010C000E7CF843369F50E94530419830A838F2D77
:1010D0008F778B83EC8264E070E0CE0101960E94F2
:1010E0002F04A70170E060E0C6010E946D1FE114AB
:1010F000F10421F0B701C6010E942F040E944904A7
:10110000C7010F900F900F900F90DF91CF911F911B
:101110000F91FF90EF90DF90CF90BF90AF90089528
:101120000E9453040F3F110509F030F419820A831D
:101130001B8263E070E0D1CF17FD0BC019820A83D8
:1011400033E0169507953A95E1F7007E08600B832A
:10115000F0CFC80126E0969587952A95E1F7807E25
:1011600019830A830115104C18F480618B83E1CF39
:101170008861FCCFCF93DF931F92CDB7DEB720916C
:101180006E0430E0322F2227260F371F90E0982F71
:10119000882741E050E0BE016F5F7F4F820F931FB1
:1011A0000E942F0889810F90DF91CF910895CF93EE
:1011B000C82F462F61E070E00E94710561E070E089
:1011C0008C2F0E94BA088111F9CFCF910895CF9347
:1011D000C82F80E591E00E94C90168E070E08C2F83
:1011E000CF910C94D708CF93C82F80E591E00E944F
:1011F000C90160E170E08C2FCF910C94D708CF9398
:10120000DF93EC01888D883020F40E94F30888E099
:10121000888FDF91CF91089563E070E00C94BA0855
:10122000CF93C82F80E591E00E94C9018C2FCF9108
:101230000C940C09EF92FF920F931F93CF93DF93BF
:101240007C0180916D04D4E0833309F0D8E009E596
:1012500014E0C0E0F801219131918F01F701848100
:1012600095812817390729F0CF5FDC13F3CF80E091
:1012700006C08C2F0E9410098431B1F781E0DF9104
:10128000CF911F910F91FF90EF900895CF93DF932F
:10129000EC018C858830D0F40E941009843189F0EB
:1012A000882379F0883169F021E08C3159F4E881A4
:1012B000F9810084F185E02DCE01199521E0892B7B
:1012C00009F420E0822FDF91CF91089580E0FBCFD9
:1012D000CF92DF92EF92FF92CF93DF93EC018C8558
:1012E000883068F40E94E7080E94EF026B017C01DD
:1012F0008C850E941009811109C088E08C87DF91DC
:10130000CF91FF90EF90DF90CF90089561E070E073
:1013100080E090E00E94BC020E94EF02AB01BC01A1
:101320004C195D096E097F098D859E85B0E0A0E0AE
:10133000481759076A077B07D8F28C850E94F30883
:10134000DCCFCF93FC01C08D80E591E00E94C90104
:1013500060E270E08C2F0E94D70862E070E08C2F72
:101360000E94BA0884FD16C062E070E08C2F0E94D3
:10137000BA0883FF0AC048E162E070E08C2F0E9447
:10138000710580E090E0CF91089580E591E00E94A2
:10139000C901E3CF40E162E070E08C2F0E9471054B
:1013A00081E0F0CFCF93DF931F92CDB7DEB741E05E
:1013B00050E0BE016F5F7F4F90E080E00E942F08F9
:1013C00089810F90DF91CF910895CF93DF93C4E18E
:1013D000D0E00E94D209882361F061E070E080E0F3
:1013E00090E00E94BC022197A1F780E0DF91CF91AD
:1013F000089581E0FBCFCF92DF92EF92FF920F939F
:101400001F93CF93DF93CDB7DEB7C454D1090FB686
:10141000F894DEBF0FBECDBFFC0182819381A48111
:10142000B58123968CAF9DAFAEAFBFAF239721E0C0
:1014300023962FAF239723964CAD5DAD6EAD7FAD58
:1014400023974BAB5CAB6DAB7EAB89AF9AAFABAFC9
:10145000BCAF8DA79EA7AFA7B8AB28AB4DA55EA527
:101460006FA578A94FA358A769A77AA72EAB4BA958
:101470005CA96DA97EA949A35AA36BA37CA38B8FFA
:101480009C8FAD8FBE8F46EA52E05C8B4B8B3FEF5B
:101490003D8B3E8B3F8B188E5E874D872AA7CFA052
:1014A000D8A4E9A4FAA4CF86D88AE98AFA8A2CA318
:1014B00009A11AA12BA13CA109871A872B873C8778
:1014C0005A8349838B839C83AD83BE8380916F0451
:1014D0008111A2C060E372E080E090E00E94BC0253
:1014E0001FB7F89480916C04811127C0E7E1F3E005
:1014F0008491E1EDF2E09491E82FF0E0EE0FFF1F10
:10150000EE57FD4FA591B491EC91E92321F461E0F0
:1015100085E30E94380261E085E30E9466028CB593
:1015200080618CBD8CB580648CBD61E084E30E94D9
:10153000660261E083E30E94660280916C048F5F23
:1015400080936C041FBF80910202282F30E0F901C4
:10155000EE51FD4FE491F0E0EE0FFF1FE859FD4F13
:101560004591549150936B0440936A04F901E456F9
:10157000FD4FE491E093690461E00E9466020E94DD
:10158000490480E591E00E94C90184E380936D04E1
:1015900080E80E9413050E94E509882309F472C0BF
:1015A00088E00E9413050E94D209883009F06AC0C1
:1015B00080E10E9413050E94D209803109F062C0C7
:1015C00080E00E9413050E94D209182F81115AC091
:1015D00041E050E0BE016D5B7F4F8FE190E00E94E3
:1015E0002F0824968FAD2497833009F04BC080E4F8
:1015F00080936E0442E06EE170E0812F0E947105DD
:1016000042E06FE170E0812F0E9471051F5F18308A
:1016100089F781E080936F0480E591E00E94C90121
:1016200046E050E063E072E089E090E00E946504EB
:1016300044E050E0BE016D5F7F4F8FE090E00E947C
:10164000650444E050E0BE01615F7F4F81E090E0BF
:101650000E94650444E050E0BE016B5E7F4F85E070
:1016600090E00E94650481E08C8789859A85AB852E
:10167000BC8580932D0590932E05A0932F05B093E4
:1016800030056FC087E380936D0480E80E941305E6
:101690000E94E509882339F188E00E9413050E9421
:1016A000D209883001F580E10E9413050E94D20919
:1016B000182F8031C1F480E00E9413050E94D209E6
:1016C000811111C041E050E0BE016D5B7F4F89E3A5
:1016D00090E00E942F0824968FAD2497843019F44F
:1016E00010936E0496CF83E380936D0480E80E948C
:1016F00013050E94E509882391F180E10E941305FA
:101700000E94D209803159F582E10E9413050E949E
:10171000D209823121F580E00E9413050E94D2098E
:1017200081111DC084E080936E0415E525961FAFDE
:10173000259741E050E0BE016C5B7F4F8BE190E06C
:101740000E94650424961FAF249741E050E0BE013B
:101750006D5B7F4F8AE190E00E9465045ACF109242
:101760006D04CC5BDF4F0FB6F894DEBF0FBECDBF6C
:10177000DF91CF911F910F91FF90EF90DF90CF906D
:1017800008951F93CF93DF931F92CDB7DEB7182F25
:1017900080E591E00E94C901812F0E94260527E083
:1017A000129FF0011124EF5DFB4F228133813770CE
:1017B00041E050E0BE016F5F7F4F820F931F0E9498
:1017C0002F0889810F90DF91CF911F910895FC011F
:1017D000808D883040F4218D328D232B21F00E94A2
:1017E000C10B90E008958FEF9FEF0895CF93DF93A3
:1017F000FC012485283028F08FEF9FEFDF91CF91F7
:101800000895EC010190F081E02D0084F185E02D38
:101810001995892B89F38C850E94C10B90E0EECF3E
:10182000DA01E0916E04F0E0FE2FEE27E60FF71FDD
:1018300090E0982F8827A901BD018E0F9F1F0C945F
:101840002F088F929F92AF92BF92CF92DF92EF922A
:10185000FF920F931F93CF93DF93CDB7DEB76097BF
:101860000FB6F894DEBF0FBECDBF7C0190916D0422
:10187000911115C018E0812F60960FB6F894DEBF65
:101880000FBECDBFDF91CF911F910F91FF90EF90D1
:10189000DF90CF90BF90AF909F908F90089508E019
:1018A000933309F404E06B0180E591E00E94C901E3
:1018B0009E012F5F3F4F5901490110E0812F0E9487
:1018C0000C09F40181934F018823C1F01F5F0113BC
:1018D000F5CF00E0F50181915F018D3149F088314C
:1018E00039F08A51823020F00F5F1013F3CFC2CF4E
:1018F00060E170E0802F0E94D708102FA12EB12C3C
:10190000F501EE0FFF1FE75AFB4F1182108283EEA5
:1019100093E00197F1F742E870E060E0812F0E94C8
:1019200071054FEF62E070E0812F0E947105B601F2
:10193000C114D10491F480910002909101020196AA
:101940008115F0EC9F0708F45CC09093010280932E
:1019500000026091000270910102812F0E945B05DC
:1019600086E0EFE0F2E0DE01199601900D928A9593
:10197000E1F7F70183818F778C8784818D8785815B
:101980008E87A7014E5F5F4F24E030E06CE070E08F
:10199000812F0E943405B601812F0E94450526E063
:1019A00030E0AE01475F5F4F66E070E0812F0E943C
:1019B000340561E070E0812F0E94D70827E02A9D5E
:1019C000C0012B9D900D11249C012F5D3B4F79018F
:1019D000F9011182108222E030E0AE01415F5F4FD9
:1019E00068E270E0812F0E94100C8F8598899827FB
:1019F00089279827F70193838283168215821482A0
:101A00003ACF80E090ECA1CFCF92DF92EF92FF929D
:101A10000F931F93CF93DF9300D000D0CDB7DEB7E5
:101A20008C016B017A01FC01808D883010F40E94DA
:101A3000F30886EA92E09A838983F6018281938192
:101A4000A481B5818B839C83AD83BE83B701CE0116
:101A500001960E94210CF801808F8830A0F4F58651
:101A6000E486128E118E81E026960FB6F894DEBFC2
:101A70000FBECDBFDF91CF911F910F91FF90EF90DF
:101A8000DF90CF90089580E0EFCF7F928F929F926A
:101A9000AF92BF92CF92DF92EF92FF920F931F937C
:101AA000CF93DF931F921F92CDB7DEB7782E8B01B5
:101AB0004A01590122E030E0AE014F5F5F4F64E21E
:101AC00070E00E94100CE980FA80FE24EF24FE24CE
:101AD000E00EF11E9701377040916D04072D10E064
:101AE000433309F042C0085F1F4F102F0027110F2A
:101AF000110F110FC901800F911F4733C9F1A901BF
:101B00004A0D5B1D4130584098F160E078E06B0170
:101B1000C21AD30AA601B4010E946504A5014C199A
:101B20005D09B4016C0D7D1DC8010E946504EA0CBD
:101B3000FB1CF982EA8222E030E0AE014F5F5F4F8A
:101B400064E270E0872D0E9434050F900F90DF91C2
:101B5000CF911F910F91FF90EF90DF90CF90BF90AA
:101B6000AF909F908F907F900895005F1F4FBDCFE3
:101B7000A501B401DACFEF92FF921F93CF93DF93C9
:101B80001F921F92CDB7DEB7182F22E030E0AE01D2
:101B90004F5F5F4F60E270E00E94100CE980FA80B6
:101BA000FE24EF24FE2422E030E0AE014F5F5F4FC1
:101BB00060E270E0812F0E94100C89819A81982741
:101BC00089279827E816F90689F487E0189FF0011D
:101BD0001124EF5DFB4FF582E482C7010F900F9057
:101BE000DF91CF911F91FF90EF9008957C01DBCFA3
:101BF0001F93CF93DF93182F80E591E00E94C901D6
:101C0000812F0E94BB0DEC01812F0E940C098731AE
:101C100021F08C3111F0D0E0C0E0CE01DF91CF9106
:101C20001F910895CF93DF93EC018C85883060F489
:101C30000E941009873111F08C3131F48C850E949B
:101C4000F80D8115984088F3DF91CF910895FC013C
:101C50008485883010F40C94F80D90E080E00895AD
:101C6000CF92DF92EF92FF921F93CF93DF93182FC3
:101C70007B01EA014130584010F0C0E0D8E080E537
:101C800091E00E94C901812F0E94BB0D6C01812F40
:101C90000E940C09873111F08C3121F5CC16DD063C
:101CA00070F380E591E00E94C9019E01A70170E0F8
:101CB00060E0812F0E94450D60E270E0812F0E945C
:101CC000D70862E070E0812F0E94BA0884FD0DC041
:101CD000812F0E940C098823B9F080E591E00E94D1
:101CE000C901EFCFD0E0C0E0DCCF40E162E070E0BE
:101CF000812F0E947105CE01DF91CF911F91FF903E
:101D0000EF90DF90CF900895D0E0C0E0F4CF0F9334
:101D10001F93CF93DF938C01EA01FC018485883007
:101D200048F40E94300E892B39F481E090E0F801EC
:101D300093838283D0E0C0E0CE01DF91CF911F91E9
:101D40000F9108959F92AF92BF92CF92DF92EF9240
:101D5000FF920F931F93CF93DF938C015B01942E1F
:101D6000E52EFC01C688D788F08C80E591E00E94C2
:101D7000C9018F2D0E94BB0DC92DDE2D8C179D072B
:101D800008F4EC019E01A501B6018F2D0E94450DBE
:101D9000F801868997898C0F9D1F978B868BCE01C2
:101DA000DF91CF911F910F91FF90EF90DF90CF9037
:101DB000BF90AF909F900895FF920F931F93CF9382
:101DC000DF931F921F92CDB7DEB7F82E22E030E0EE
:101DD000AE014F5F5F4F66E270E00E94100C098118
:101DE0001A8110270127102722E030E0AE014F5F53
:101DF0005F4F66E270E08F2D0E94100C89819A81FE
:101E00009827892798270817190749F4C8010F90C0
:101E10000F90DF91CF911F910F91FF9008958C014A
:101E2000E3CF1F93CF93DF93182F87E0189FE00134
:101E30001124CF5DDB4F88819981009761F480E5A3
:101E400091E00E94C901812F0E94DC0E2E81821B2D
:101E5000910999838883DF91CF911F9108959F9273
:101E6000AF92BF92CF92DF92EF92FF920F931F93A8
:101E7000CF93DF93EC017B0180916D04811121C030
:101E80001B821A8288EE93E0A0E0B0E08C839D83F1
:101E9000AE83BF8384E692E09983888388E08C8751
:101EA00088EE93E09E878D87CE01DF91CF911F91C1
:101EB0000F91FF90EF90DF90CF90BF90AF909F90E9
:101EC000089534E0932E833311F028E0922E89E5B3
:101ED000C82E84E0D82E10E098E0B92EA12CD601AF
:101EE0002D913D916D01F701848195812817390766
:101EF00091F4812F0E941009082F873111F08C3145
:101F000039F5812F0E94110F892B59F50C3119F4E5
:101F1000812F0E94E7081F5F9112E1CFA11008C036
:101F2000D701ED91FC910084F185E02DC701199551
:101F30001B821A8288EE93E0A0E0B0E08C839D8340
:101F4000AE83BF8384E692E099838883BC86A8CF62
:101F5000843149F08111DFCFF6013297118210826E
:101F6000DACFB12ED8CFAA24A394D5CF8F929F9247
:101F7000AF92BF92CF92DF92EF92FF920F931F9397
:101F8000CF93DF93CDB7DEB72F970FB6F894DEBFB0
:101F90000FBECDBF5C014B017A0180916D04882397
:101FA000C9F104E0833309F008E0B501CE010196E0
:101FB0000E942F0F89E5C82E84E0D82E10E0F6018C
:101FC000219131916F01F50184819581281739079D
:101FD00051F4812F0E941009873129F4A701B4011F
:101FE000812F0E94300E1F5F0113E9CFC7012F968A
:101FF0000FB6F894DEBF0FBECDBFDF91CF911F911A
:102000000F91FF90EF90DF90CF90BF90AF909F9097
:102010008F900895F12CE12CE9CFFC018485883064
:1020200010F40C94110F90E080E008954F925F92AD
:102030007F928F929F92AF92BF92CF92DF92EF9258
:10204000FF920F931F93CF93DF931F921F92CDB7F1
:10205000DEB7782E6B014A01A82EB12C27E0829FB3
:10206000C0011124FC01EF5DFB4F7F010081118154
:1020700080E591E00E94C9010815190554F4872DE7
:102080000E94DC0EF70126818C01021B11091183CD
:1020900000830115110519F5872D0E940C09843163
:1020A00059F0882349F001E010E08C3111F410E080
:1020B00000E0119501951109C8010F900F90DF9173
:1020C000CF911F910F91FF90EF90DF90CF90BF9035
:1020D000AF909F908F907F905F904F900895801663
:1020E00091060CF4840187E08A9DF0018B9DF00D30
:1020F0001124EF5DFB4FE280F380C114D10451F154
:102100002701F7E05F22872D0E942605840D951D8B
:1021100020916D04273309F453C09801240D351D17
:102120002130384008F44CC020E038E049018418E0
:102130009508A401B6010E942F082601480C591CDD
:102140006801C818D908872D0E942605A601B2018A
:102150000E942F08E00EF11E87E08A9DF0018B9D02
:10216000F00D1124EF5DFB4FF382E282208131817B
:10217000201B310B318320838681800F912F911D8D
:102180008A3F910510F4232BF1F487E08A9DF0013A
:102190008B9DF00D1124EF5DFB4F1682F982EA82D0
:1021A00022E030E0AE014F5F5F4F68E270E0872DC4
:1021B0000E94340560E470E0872D0E94D7087CCF30
:1021C000A801B601C5CF868377CFCF93DF93FC01FB
:1021D000218D328D2115310529F48FEF9FEFDF918D
:1021E000CF910895EC01808D4217530708F0A901A3
:1021F0000E9416101816190684F7298D3A8D281B8F
:10220000390B3A8F298FEBCF0F931F93CF93DF9327
:102210001F92CDB7DEB7FC01218D328D232B41F407
:102220008FEF9FEF0F90DF91CF911F910F91089546
:102230008C0141E050E0BE016F5F7F4FFC01808D5B
:102240000E941610181619065CF7F801818D928D00
:102250000197928F818F898190E0E4CFCF93DF93B4
:102260001F92CDB7DEB741E050E0BE016F5F7F4FF8
:10227000FC0184850E9416101816190634F4898111
:1022800090E00F90DF91CF9108958FEF9FEFF9CFFE
:10229000FC018485883010F40C94161090E080E0E6
:1022A00008958F929F92AF92BF92CF92DF92EF925A
:1022B000FF920F931F93CF93DF9300D000D000D0F5
:1022C0001F92CDB7DEB790916D04911115C018E043
:1022D000812F2A960FB6F894DEBF0FBECDBFDF91D7
:1022E000CF911F910F91FF90EF90DF90CF90BF9013
:1022F000AF909F908F90089528E0F22E933311F4C1
:1023000094E0F92E6B01082F80E591E00E94C9014D
:102310009E012F5F3F4F5901490110E0812F0E941C
:102320000C09F40181934F018823C1F01F5FF11262
:10233000F5CFF12CF50191915F019D3149F0983174
:1023400039F09A51923020F0F3941F11F3CFBFCFA0
:1023500060E170E08F2D0E94D7081F2DE12EF12C37
:10236000F701EE0FFF1FE75AFB4F1182108283EE39
:1023700093E00197F1F7402F70E060E0812F0E9419
:1023800071054FEF62E070E0812F0E947105B60188
:10239000CD2889F480910002909101020196811567
:1023A000F0EC9F0798F190930102809300026091F6
:1023B000000270910102812F0E945B0561E070E0D4
:1023C000812F0E94D70827E02E9DC0012F9D900DE0
:1023D00011249C012F5D3B4F7901F901118210827C
:1023E00022E030E0AE01475F5F4F68E270E0812F8E
:1023F0000E94100C89859A85982789279827F701CC
:102400009383828316821582148262CF80E090ECDF
:10241000CACF0F931F93CF93DF93EC018B01888D6D
:10242000883010F40E94F308B80182E00E94511134
:10243000888F883050F41D870C871A8E198E81E0A2
:10244000DF91CF911F910F91089580E0F9CF0F9305
:102450001F93CF938C01FC016481758181E20E94FE
:102460005111C82F8830F8F480E591E00E94C9012D
:102470008C2F0E940C09833131F08C2FCF911F914A
:102480000F910C94E70862E070E08C2F0E94D7084F
:10249000F80184819581EC2FF0E0EE0FFF1FE75AE1
:1024A000FB4F91838083CF911F910F9108950F93DC
:1024B0001F93CF93DF9300D000D0CDB7DEB78C0150
:1024C00086EA92E09A838983FB0182819381A481C9
:1024D000B5818B839C83AD83BE83CE0101960E9420
:1024E000FB09C8010E94271226960FB6F894DEBF9A
:1024F0000FBECDBFDF91CF911F910F910895CF9265
:10250000DF92EF92FF921F93CF93DF93EC017B0159
:102510006A018C85883048F40E941009882319F0DC
:102520008C850E94E70888E08C87F701828193817F
:10253000A481B5810097A105B10551F490E080E038
:10254000DF91CF911F91FF90EF90DF90CF90089592
:102550008F3F9F4FAF4FBF4F89F370E060E081E244
:102560000E945111182F8C87883040F780E591E048
:102570000E94C901A7014E5F5F4F24E030E06CE08C
:1025800070E0812F0E943405B601812F0E9445051D
:1025900064E070E0812F0E94D7080E94EF026B0177
:1025A0007C018C850E941009873111F18C3101F179
:1025B000882321F20E94EF02AB01BC014C195D0996
:1025C0006E097F098D859E85B0E0A0E08417950790
:1025D000A607B70738F061E070E080E090E00E9465
:1025E000BC02DFCF8C850E94F30888E08C87A6CFE1
:1025F00081E090E0A5CF0F931F93CF93DF931F92BD
:102600001F92CDB7DEB7FC0124852830E0F48C01A1
:1026100080E591E00E94C90122E030E0AE014F5F09
:102620005F4F60E170E0F80184850E94100C8981A1
:102630009A819827892798270F900F90DF91CF9143
:102640001F910F91089590E080E0F6CF0F931F93B4
:10265000CF93DF931F921F92CDB7DEB7FC01248585
:102660002830E0F48C0180E591E00E94C90122E06D
:1026700030E0AE014F5F5F4F64E070E0F8018485A9
:102680000E94100C89819A819827892798270F909A
:102690000F90DF91CF911F910F91089590E080E00E
:1026A000F6CF0F931F93CF93DF9300D000D01F92EC
:1026B0001F92CDB7DEB78C01D80159964D915C9130
:1026C0005A974115510551F0ED91FC91048CF58D0F
:1026D000E02D70E060E0C8011995EECFF801808D23
:1026E0000E94110F892BB1F148E050E0BE016F5FED
:1026F0007F4FD80158968C910E9416101816190613
:10270000F4F4D801509684E0FE01319601900D92C8
:102710008A95E1F78D8190E0982F88272E81820F8E
:10272000911DF801958B848B8F81282F30E0322FFB
:1027300022278885820F932F911D928F818F289653
:102740000FB6F894DEBF0FBECDBFDF91CF911F91C2
:102750000F91089590E080E0F2CF4F925F926F92D8
:102760007F928F929F92AF92BF92CF92DF92EF9221
:10277000FF920F931F93CF93DF93CDB7DEB763978D
:102780000FB6F894DEBF0FBECDBF7C016B013A01DE
:10279000FB0120E090E080E06AE03191332309F40E
:1027A00061C040ED430F4A3008F04DC0689FA00162
:1027B000699F500D1124CA01C097830F911D37FDE9
:1027C0009A958F3F910549F340F3F7014281538178
:1027D000648175818091390590913A05A0913B05FE
:1027E000B0913C05481759076A077B0709F40DC2E9
:1027F0008701085F1F4F0E94EF026F7077277C5F91
:10280000C8010E940912813009F004C286EA92E0F0
:102810009A838983F70182819381A481B5818B8317
:102820009C83AD83BE8345E350E0BE016F5F7F4F65
:10283000C8010E94DC05892BA9F5D12CC12CC80147
:102840000E94FF0817C03E3209F0BFCF233009F4C1
:10285000BCCFD301A20FB11D12968C932F5F90E0D5
:1028600080E09BCF233009F0B0CFF3018583CC24E7
:10287000C394D12CC60163960FB6F894DEBF0FBE89
:10288000CDBFDF91CF911F910F91FF90EF90DF901F
:10289000CF90BF90AF909F908F907F906F905F9000
:1028A0004F9008950E94EF02F7017783668342E01C
:1028B00050E0B7016A5F7F4FC8010E94A20E81E01D
:1028C00090E09A83898342E050E0BE016F5F7F4FC2
:1028D000C8010E94A20E80E091E09A83898342E0C1
:1028E00050E0BE016F5F7F4FC8010E94A20E1A82A6
:1028F000198242E050E0BE016F5F7F4FC8010E9425
:10290000A20E42E050E0BE016F5F7F4FC8010E94FF
:10291000A20E42E050E0BE016F5F7F4FC8010E94EF
:10292000A20E5601F6018081882301F16501F601AE
:1029300081912F01882311F08E32B1F446018A185B
:102940009B081814190474F48D8641E050E0BE0110
:10295000635F7F4FC8010E94A20EA401B501C801A8
:102960000E94A20E5201DECF6201E1CF1D8641E03E
:1029700050E0BE01635F7F4FC8010E94A20EC12CD0
:10298000DD24D394DA82C98242E050E0BE016F5F59
:102990007F4FC8010E94A20EDA82C98242E050E055
:1029A000BE016F5F7F4FC8010E94A20EC8010E9446
:1029B000A109892B09F441CFF3E0AF2EB12C2301FB
:1029C00022E0420E511CD4C0F70142815381648140
:1029D0007581808D918DA28DB38D481759076A0737
:1029E0007B0709F008C1848D958DC59709F003C157
:1029F00081A192A15DEFC52EDD24DA940C970CF431
:102A0000ADC04CE050E0BE016F5F7F4FC8010E9437
:102A1000E5108B819C819827892798279A8B898B31
:102A2000F7014681578129813A814217530709F0FE
:102A3000E7C097FFE5C08F7092703BEFC32EDD2497
:102A4000DA94892B09F08AC06F8078847624672411
:102A500076242AEFC22EDD24DA946114710409F47D
:102A60007DC0D12CC12C8D819E81982789279827E4
:102A7000C816D906F8F441E050E0BE01635F7F4F0D
:102A8000C8010E94E5104D85442331F050E070E00C
:102A900060E0C8010E94E5108D858111ECCF44E013
:102AA00050E070E060E0C8010E94E510FFEFCF1A2F
:102AB000DF0AD9CF912C812C41E050E0BE016D5E40
:102AC0007F4FC8010E94E5104B89842F807C09F05C
:102AD0006CC0442331F050E070E060E0C8010E9417
:102AE000E5108B898111E8CF42E050E0BE01615FC3
:102AF0007F4FC8010E94E51042E050E0BE01635FD5
:102B00007F4FC8010E94E51044E050E070E060E0B3
:102B1000C8010E94E51042E050E0BE016F5E7F4FA9
:102B2000C8010E94E5108F85988949895A898115C5
:102B3000914009F043C0CD84DE84DC24CD24DC2424
:102B400081E0C816D104D1F54115544009F04AC0BE
:102B500044E050E0B201C8010E94E51021E0A21A51
:102B6000B10809F46CCEFFEFCF16DF0609F067CE8F
:102B70000E94EF023B014C01C8010E94511318163C
:102B800019060CF421CF0E94EF0266197709880913
:102B90009909693873418105910548F562E370E050
:102BA00080E090E00E94BC02E7CF41E050E070E09E
:102BB00060E0C8010E94E5101B8A93CF5427452787
:102BC000542770E060E0C8010E94E510FFEF8F1A03
:102BD0009F0A6814790409F06FCF96EFC92EDD249F
:102BE000DA94BCCFE7EFCE2EDD24DA94B7CFCC2435
:102BF000CA94DC2CB3CF6EEFC62EDD24DA94AECFB0
:102C00004CEFC42EDD24DA94A9CF8EEFC82EDD243C
:102C1000DA9430CED12CC12C2DCECF92DF92EF9210
:102C2000FF920F931F93CF93DF93CDB7DEB7AF978C
:102C30000FB6F894DEBF0FBECDBF7C016A0106EA75
:102C400012E01A8309831C861B8688EE93E0A0E0BD
:102C5000B0E08D879E87AF87B88B89E192E09A8735
:102C60008987188F0F8B198E1A8E1B8E1C8E88E009
:102C700089A31BA70AA71CA61DA61EA61FA6809196
:102C80002D0590912E05A0912F05B09130058EA3B2
:102C90009FA3A8A7B9A78B839C83AD83BE83188607
:102CA0001F82AE01465D5F4FCE0101960E94AD13BB
:102CB00081309105B1F4D701ED91FC910488F5893B
:102CC000E02D1DA30CA38CA59DA5AEA5BFA58EA32D
:102CD0009FA3A8A7B9A7A601BE016C5D7F4FC7013E
:102CE0001995AF960FB6F894DEBF0FBECDBFDF913A
:102CF000CF911F910F91FF90EF90DF90CF900895AB
:102D0000CF92DF92EF92FF920F931F93CF93DF93B7
:102D1000CDB7DEB7AF970FB6F894DEBF0FBECDBF0D
:102D20008C016B017A0186EA92E09A8389831B8287
:102D30001C821D821E821C861B8648EE53E060E0CA
:102D400070E04D875E876F87788B29E132E03A87A4
:102D50002987988F8F8B198E1A8E1B8E1C8E28E0D8
:102D600029A39BA78AA71CA61DA61EA61FA6D8013D
:102D70001C968C91883060F40E941009882321F001
:102D8000F80184850E94E70888E0D8011C968C939E
:102D900080912D0590912E05A0912F05B0913005C1
:102DA0008EA39FA3A8A7B9A78B839C83AD83BE8363
:102DB00018861F82AE01465D5F4FB601CE010196B7
:102DC0000E94AD130097C1F0D801ED91FC910684EB
:102DD000F785E02D86EA92E09DA38CA38CA59DA5A6
:102DE000AEA5BFA58EA39FA3A8A7B9A7A701BE01A3
:102DF0006C5D7F4FC8011995AF960FB6F894DEBF92
:102E00000FBECDBFDF91CF911F910F91FF90EF903B
:102E1000DF90CF900895EF92FF920F931F93CF937F
:102E2000DF9300D01F92CDB7DEB78C017B01FB0191
:102E300084858830A8F086EA92E0F8019183808347
:102E40001282138214821582C8010F900F900F9086
:102E50000F90DF91CF911F910F91FF90EF90089508
:102E600080E591E00E94C90124E030E0AE014F5FAF
:102E70005F4F6CE070E0F70184850E94100C86EAD9
:102E800092E0F8019183808389819A81AB81BC8132
:102E900082839383A483B583D7CF1F920F920FB6FB
:102EA0000F9211242F933F938F939F93AF93BF93D0
:102EB0008091190490911A04A0911B04B0911C04F4
:102EC0003091180423E0230F2D3758F50196A11DEA
:102ED000B11D209318048093190490931A04A093B1
:102EE0001B04B0931C0480911D0490911E04A091BA
:102EF0001F04B09120040196A11DB11D80931D04F3
:102F000090931E04A0931F04B0932004BF91AF912F
:102F10009F918F913F912F910F900FBE0F901F9017
:102F2000189526E8230F0296A11DB11DD2CF1F923E
:102F30000F920FB60F9211240BB60F922F933F935F
:102F40004F935F936F937F938F939F93AF93BF93B1
:102F5000EF93FF9380E794E00E946F03FF91EF915E
:102F6000BF91AF919F918F917F916F915F914F91A1
:102F70003F912F910F900BBE0F900FBE0F901F909F
:102F800018951F920F920FB60F9211240BB60F9245
:102F90002F938F939F93EF93FF93E0918004F09191
:102FA00081048081E0918604F091870482FD1DC038
:102FB0009081809189048F5F8F7320918A0482179A
:102FC00041F0E0918904F0E0E059FB4F958F809348
:102FD0008904FF91EF919F918F912F910F900BBEDC
:102FE0000F900FBE0F901F9018958081F2CF109216
:102FF00073041092720448EE53E060E070E0409376
:10300000740450937504609376047093770482E59A
:1030100092E0909371048093700485EC90E090931B
:103020007D0480937C0484EC90E090937F048093F3
:103030007E0480EC90E0909381048093800481EC86
:1030400090E0909383048093820482EC90E09093CC
:1030500085048093840486EC90E0909387048093A9
:1030600086041092890410928A0410928B041092A4
:103070008C0486EA92E090930E0580930D051092E1
:103080000F051092100510921105109212059093E1
:1030900014058093130510921505109216051092D1
:1030A00017051092180590931A0580931905109230
:1030B0001B0510921C0510921D0510921E05909381
:1030C000200580931F051092210510922205109271
:1030D00023051092240590932605809325051092D0
:1030E0002705109228051092290510922A05909321
:1030F00032058093310510923305109234051092F9
:1031000035051092360590932C0580932B0510926F
:103110002D0510922E0510922F05109230059093D8
:103120003805809337051092390510923A051092B0
:103130003B0510923C0590933E0580933D0510920F
:103140003F05109240051092410510924205909360
:103150004405809343051092450510924605109250
:1031600047051092480590936F0580936E05109265
:10317000700510927105109272051092730590936C
:1031800069058093680580EC80936A0588EA8093DE
:103190006B0510926C058DE880936D0580915E053E
:1031A00081112EC010924C0510924B0586E992E0D9
:1031B00090934A058093490586EF91E090934E05E0
:1031C00080934D051092520510925105409353057E
:1031D00050935405609355057093560584E692E02C
:1031E0009093500580934F0588E080935B0588EEAF
:1031F00093E090935D0580935C0581E080935E058C
:1032000089E495E090936705809366050895CF93D0
:10321000DF93CDB7DEB7C057D1090FB6F894DEBF44
:103220000FBECDBF789484B5826084BD84B58160C3
:1032300084BD85B5826085BD85B5816085BD809181
:103240006E00816080936E001092810080918100F9
:1032500082608093810080918100816080938100F1
:10326000809180008160809380008091B1008460B3
:103270008093B1008091B00081608093B000809114
:103280009100826080939100809191008160809391
:103290009100809190008160809390008091A100C6
:1032A00082608093A1008091A10081608093A10041
:1032B0008091A00081608093A000809121018260B4
:1032C000809321018091210181608093210180916F
:1032D000200181608093200180917A008460809336
:1032E0007A0080917A00826080937A0080917A00DF
:1032F000816080937A0080917A00806880937A0060
:103300001092C100E0918004F091810482E08083FA
:10331000E0917C04F0917D041082E0917E04F091B4
:103320007F0480E1808310928804E0918404F0910E
:10333000850486E08083E0918204F091830480819B
:1033400080618083E0918204F091830480818860B1
:103350008083E0918204F09183048081806880837F
:10336000E0918204F091830480818F7D808385E3E6
:1033700080930202809166059091670526EA32E00B
:103380003A83298340916A0550916B0560916C05E1
:1033900070916D054B835C836D837E83BE016F5F8F
:1033A0007F4F0E94571263EC72E080E794E00E9426
:1033B000EC078FEC92E00E940B0760E774E088E670
:1033C00095E00E94C10668EA72E080E794E00E94FE
:1033D00066060E94520661E081E30E94660260E098
:1033E00080E30E94660261E08EE20E94660261E074
:1033F00080E10E94660260E08EE20E94380261E095
:1034000081E30E94380260E080E10E94380264EDAE
:1034100072E080E794E00E94EC070FE312E0B6E46C
:10342000CB2EB2E0DB2ED801FD908D0161E08F2D17
:103430000E94660260E08F2D0E943802C016D106FD
:1034400091F76AED72E080E794E00E94EC0706E4F1
:1034500012E0AEE4CA2EA2E0DA2EF801F180E0809C
:1034600061E08E2D0E94660261E08F2D0E9466024F
:1034700060E08E2D0E94380260E08F2D0E9438029D
:103480000E5F1F4FC016D10641F71E01FDE32F0E40
:10349000311C9E012B5E3F4FE1963FAF2EAFE1976F
:1034A00080915E05811132C010924C0510924B053F
:1034B00046E952E050934A054093490586EF91E072
:1034C00090934E0580934D05109252051092510530
:1034D00028EE33E040E050E020935305309354054C
:1034E000409355055093560544E652E050935005DD
:1034F00040934F0588E080935B0588EE93E09093BE
:103500005D0580935C0581E080935E0569E475E06C
:10351000CE01805A9F4F0E942F0FAD968FADAD9771
:103520008830E8F58FE495E00E944609811137C0A4
:10353000A4968EAD9FADA4979093520580935105AC
:10354000A8968CAD9DADAEADBFADA8978093530549
:1035500090935405A0935505B0935605AC968CAD49
:103560009DADAEADBFADAC97809357059093580518
:10357000A0935905B0935A05AD968FADAD97809342
:103580005B05AF968EAD9FADAF9790935D05809331
:103590005C0560EE72E080E794E00E94EC078FE447
:1035A00095E00E940D108C01181619060CF0F9C256
:1035B00071018FE495E00E942E11D7018D937D015A
:1035C000CD0182199309801791079CF3B8016150CE
:1035D00071090115110509F4E4C2809108048111F3
:1035E00003C081E08093080480911004811103C01E
:1035F00081E0809310048DAD89A721E030E081E067
:1036000090E0EEE7FE2EFAEAEF2EE9E2F0E0EC0FB2
:10361000FD1FE80FF91F2617370730F5D101A20F5C
:10362000B31FDC90BDE7DB121CC0A9014F5F5F4FE9
:1036300040175107B0F4D101A40FB51FAC91AD35BF
:1036400069F0AE3529F0AA3231F40196E08202C069
:103650000196F0829A012F5F3F4FD7CF0196D0821B
:10366000F9CF0196D082F7CF620D731DDB011C915B
:103670001083F9A4BEE7FB1649F08EE78D8B80EE30
:103680008E8B8AEA8F8B03E010E019C01A3A19F08A
:10369000FD8A81EEF5CF8AA5803B09F05FC00E94CC
:1036A00052066C010E945E07F60192818381FD8AB9
:1036B00020EC2E8B9F8B888F198F05E010E08D8971
:1036C0008983DE01569681E090E0015011093DE7C3
:1036D0006EE57DE55AE2D52E7C012FEFE21AF20A63
:1036E000E1E0F0E0EC0FFD1FE80FF91FAD01E196FE
:1036F000AEACBFACE1974A195B094017510708F01F
:1037000038C22D9141E050E04C0F5D1FE40EF51ED4
:103710002E3709F421C22A3A09F426C22D3791F432
:10372000E1E0F0E0EC0FFD1FE80FF91F3083FC0132
:103730003196AA24A394B12CAC0EBD1EEA0DFB1D3C
:1037400002967083AC014F5F5F4FE1E0F0E0EC0F59
:10375000FD1F8E0F9F1FFC01208304C2813B09F0D7
:10376000B3C0CBA4D12CC6010197079728F0FD8ADE
:1037700082EE8E8B80EDBCC02DA58CA578EEA72E99
:1037800073E0B72E8A9D40018B9D900C1124092C6B
:10379000000CAA08BB08822F90E0B0E0A0E08A30BD
:1037A0009105A105B10508F06EC030E0A4E6B0E0D7
:1037B0000E94311E860E971EA81EB91E80E190E061
:1037C0000E94481E7C0100E0A5019401B6010E9400
:1037D0000008F70183819481A581B681892B8A2B0A
:1037E0008B2B91F061E082810E943802D701139601
:1037F0006D917D918D919C9116970E94BC0260E025
:10380000F70182810E9438028EE78D8B81EC8E8BCE
:10381000D7018C918F8B13966D917D918D919C9199
:103820001697611571058105910509F44AC028EEC6
:1038300033E040E050E00E940F1E022F162FB72EFB
:103840006C0124E630E040E050E00E940F1E672B40
:10385000682B692B31F520930000088F80910000C0
:10386000898F85E090E08C010F5F1F4FE5E1F0E06C
:10387000EC0FFD1F8E0F9F1F2AEADC012C93C7015E
:103880000E94E41E1CCF84369105A105B10520F4E9
:1038900030E0AAE0B0E08CCF880E991EAA1EBB1EB5
:1038A0008DCF612F7B2DC6012AE030E040E050E053
:1038B0000E940F1E672B682B692B69F21093000082
:1038C000CCCF83E090E0CFCF823B09F040C16EE0E7
:1038D00073E080E794E00E94EC07BBA488248A94FC
:1038E0008B0CB3E0B81548F4FD8A83EE8E8B81ED26
:1038F0008F8B188F04E010E0E2CE0CA58FEF800FC5
:103900008E3F28F4FD8A83EE8E8B84EDF1CF4DA49B
:103910005EA46FA478A8C9A88FEF8C0D873018F02B
:10392000FD8A83EE26CF1AA9113148F08EE78D8BE0
:1039300083EE8E8B85ED8F8B8AEA888FDBCF68E1F3
:1039400073E080E794E00E94EC078DE090E00E9435
:10395000481E7C01912CBA94BA94FC01B082018378
:103960005382428275826482C682178313861286CE
:103970001486F401EE0FFF1FEA5BFD4F8081D70133
:1039800018968C931897A1801996AC9261E001115A
:1039900060E00E9438028AE293E00E940B07C401B3
:1039A0000E94100789E393E00E940B07802F0E947A
:1039B000D50784E493E00E940B07C2010E944807E8
:1039C00080E593E00E940B07C3010E9448078FE542
:1039D00093E00E940B078C2D0E94D5078CE693E0A4
:1039E0000E940B07812F0E94D5076AE773E080E7EA
:1039F00094E00E94EC0780E190E00E94481E4C0198
:103A0000D12C01E020E030E0A901B6010E940008BD
:103A1000C4010E94E41E712C612CF70194844614A9
:103A2000570409F466C0103181F1911054C00E940E
:103A300052064C010E945E07D40112968D909C9014
:103A40008EE893E00E940B07C4010E9448078CE6B1
:103A500093E00E940B07812F0E94D507012E02C020
:103A6000969487940A94E2F7133038F580949094F2
:103A7000082D0170002349F021E0F701248760EB55
:103A800073E080E794E00E94EC0761E08A2D0E94D9
:103A90003802F7018285938501969387828760E0DB
:103AA0008A2D0E94380261E070E080E090E00E9480
:103AB000BC02FFEF6F1A7F0AB0CF082D01706DE9CD
:103AC00073E080E794E00E94EC07C40181709927BD
:103AD0000E941007CFCF84819581009721F0019734
:103AE00095838483D2CF60EC73E080E794E00E94FA
:103AF000EC0769ED73E080E794E00E94EC0780E159
:103B000090E00E94481E3C0100E020E030E0A90166
:103B1000B6010E940008C3010E94E41E6AEE73E031
:103B200080E794E00E94EC078EE78D8B82EC8E8B11
:103B3000BF8AF70192858385988F898F9A8E8AEA4A
:103B40008B8FC7010E94E41E07E010E0B8CDFD8A0C
:103B50008AEE8E8B1F8B97CD3083AC014E5F5F4F0B
:103B6000F7016083CA01B8CD30830296F701D08295
:103B7000D7CD85E1A82EB12CAC0EBD1E0A0D1B1DA4
:103B8000D8018C9180838FE495E00E9446098823B8
:103B900059F0A701BE016F5F7F4F8FE495E00E944F
:103BA000870E0E94FE037CCC69E475E0CE018F5A3B
:103BB0009F4F0E942F0F6E968FAD6E97883088F7BB
:103BC00065962EAD3FAD6597309352052093510514
:103BD00069964CAD5DAD6EAD7FAD69974093530571
:103BE0005093540560935505709356056D964CADF2
:103BF0005DAD6EAD7FAD6D97409357055093580501
:103C00006093590570935A0580935B05A0968EAD1D
:103C10009FADA09790935D0580935C05BACFA1E21C
:103C20001A2EAA1BBB1BFD010DC0AA1FBB1FEE1F36
:103C3000FF1FA217B307E407F50720F0A21BB30B81
:103C4000E40BF50B661F771F881F991F1A9469F7FD
:103C500060957095809590959B01AC01BD01CF0159
:103C60000895A29FB001B39FC001A39F700D811D55
:103C70001124911DB29F700D811D1124911D089575
:103C8000EE0FFF1F881F8BBF0790F691E02D199450
:103C90000F931F93CF93DF938230910510F482E04E
:103CA00090E0E0917605F091770530E020E0B0E01B
:103CB000A0E0309799F42115310509F44AC0281B7A
:103CC000390B24303105D8F58A819B816115710546
:103CD00089F1FB0193838283FE0111C040815181F0
:103CE0000281138148175907E0F04817590799F4E2
:103CF000109761F012960C93129713961C933296BC
:103D0000CF01DF91CF911F910F9108950093760518
:103D100010937705F4CF2115310551F04217530761
:103D200038F0A901DB019A01BD01DF01F801C1CF23
:103D3000EF01F9CF9093770580937605CDCFFE0103
:103D4000E20FF31F81939193225031093983288325
:103D5000D7CF2091740530917505232B41F4209124
:103D60000B0230910C02309375052093740520915D
:103D7000090230910A022115310541F42DB73EB7F1
:103D800040910D0250910E02241B350BE0917405F9
:103D9000F0917505E217F307A0F42E1B3F0B2817CF
:103DA000390778F0AC014E5F5F4F2417350748F0B4
:103DB0004E0F5F1F50937505409374058193919347
:103DC0009FCFF0E0E0E09CCFCF93DF930097E9F046
:103DD000FC01329713821282A0917605B09177058B
:103DE000ED0130E020E01097A1F420813181820FB5
:103DF000931F20917405309175052817390709F034
:103E000061C0F0937505E0937405DF91CF9108953B
:103E1000EA01CE17DF07E8F54A815B819E01411573
:103E20005105B1F7E901FB83EA8349915991C40F28
:103E3000D51FEC17FD0761F4808191810296840FF4
:103E4000951FE90199838883828193819B838A836B
:103E5000F0E0E0E012968D919C9113970097B9F5F0
:103E60002D913C911197CD010296820F931F2091C5
:103E70007405309175052817390739F6309751F5D3
:103E80001092770510927605B0937505A09374058E
:103E9000BCCFD383C28340815181840F951FC81743
:103EA000D90761F44E5F5F4F88819981480F591F90
:103EB000518340838A819B819383828321153105BD
:103EC00009F0B0CFF0937705E09376059ECFFD0122
:103ED000DC01C0CF13821282D7CFDC0101C06D9309
:0C3EE00041505040E0F70895F894FFCFE7
:103EEC0000C00ADEADBEEFFEED00007805800001DB
:103EFC00005E000000000000008E05A20E4F06D0F0
:103F0C0001CC010411E70B0912040DFF08DC050DAF
:103F1C0016A1095113E5102B061B061706130616DE
:103F2C001718191A1B1C200D210C220B230A000038
:103F3C0000009103FB022803DE03590337034B03F4
:103F4C0000000000C505870E270E120E0D102E1155
:103F5C00F60B7F12801648116809460945064D0676
:103F6C00640642064006BA05360626130B17FB12EA
:103F7C00320600000000A405B60F4F064E062712AD
:103F8C001A0900000000C1060D0A0073656E736FFC
:103F9C00722076616C75653A20006F6E202F206F51
:103FAC006666007463702068616E646C65720049AB
:103FBC00503A200072656C6179006D6F746F7200FD
:103FCC0074637020636C69656E7420646973636FCD
:103FDC006E6E656374656420616E64206E65772017
:103FEC00636C69656E7420616363657074006D6FDA
:103FFC00746F725F72756E006D6F746F7220727574
:10400C006E2065786563757465006D6F746F7220D2
:10401C006E756D6265723A20006D6F746F724469D3
:10402C00723A20006D6F746F72537465703A200091
:10403C006D6F746F72416464537465703A200072D2
:10404C00656C61794272616B653A200073656E73C1
:10405C006F724C696D69743A20006D6F746F7220C9
:10406C00657865637574652073746172740073652B
:10407C006E736F722056616C75653A200073656EB5
:10408C00736F722076616C756520636865636B0075
:10409C0073656E736F72206C696D6974206F6E003E
:1040AC006D6F746F722072756E20656E642028615E
:1040BC0064642073746570290072656C6179206F7B
:1040CC0066662074696D696E67006D6F746F72201F
:0C40DC006578656375746520656E64008E
:00000001FF
