:100000000C9495010C94C6010C94C6010C94C60185
:100010000C94C6010C94C6010C94C6010C94C60144
:100020000C94C6010C94C6010C94C6010C94C60134
:100030000C94C6010C94C6010C94C6010C94C60124
:100040000C94C6010C94C6010C94C6010C94C60114
:100050000C94C6010C94C6010C94C6010C94A8160D
:100060000C94C6010C941C170C94F2160C94C60147
:100070000C94C6010C94C6010C94C6010C94C601E4
:100080000C94C6010C94C6010C94C6010C94C601D4
:100090000C94C6010C94C6010C94C6010C94C601C4
:1000A0000C94C6010C94C6010C94C6010C94C601B4
:1000B0000C94C6010C94C6010C94C6010C94C601A4
:1000C0000C94C6010C94C6010C94C6010C94C60194
:1000D0000C94C6010C94C6010C94C6010C94C60184
:1000E0000C94C6010C9401020C9426020C94C505D4
:1000F0000C944D060C942A020C9434020C94FD01CD
:100100000C9436060C94510B0C94FD0D0C941706B0
:100110000C9413060C94420B0C948E050C945217FD
:100120000C9475080C9430020C9468150C943703E9
:100130000C944E060C94DB150C9459030C941C0281
:100140000C94BA050C945F0C0C94820D0C941B0655
:100150000C9418020C946D0D0C94E20D0C94A108F3
:100160000C9466160C9440060C94CF060C94A405CF
:100170000C944B030C94DA110C9456120C94420616
:100180000C945F100C94A3100C9481120C94CC016D
:100190000C9432060C9464110C94C3080C942C0734
:1001A0000C94EF010C9482110C945A080C94DE0309
:1001B0000C940A020C9414020C9428030C94FB0275
:1001C0000C94FC080C9489100C942F020C94F501EB
:1001D0000C942B060C9440100C94680F0C940402A1
:1001E0000C94AC120C94F9010C940E020C9445067C
:1001F0000C9491030C94110F0C944F060C94220252
:100200000C94D0010C94DC05000020002300260093
:1002100029002C002F00320000010000030106011C
:10022000090100000A0B02090C0D0E080703040166
:1002300000000000000000000000000000000000BE
:10024000000000000000000000000000000012118B
:10025000100000000000000000000000000000008E
:10026000000000000000000000002200250028001F
:100270002B002E00310034000201000005010801AE
:100280000B0100002100240027002A002D0030006F
:10029000330001010000040107010A0101021020DE
:1002A00020080810204010204080020102010804AC
:1002B0000201010204081020408080402010080440
:1002C0000201800402018040201008040201080499
:1002D00002010102040810204080010204081020DD
:1002E0004080050505050705080808080202020206
:1002F0000A0A0808040404040101010101010101C2
:100300000303030303030303040707070C0C0C0C8C
:100310000C0C0C0C02020202060606060606060675
:100320000B0B0B0B0B0B0B0B521711241FBECFEF3C
:10033000D1E2DEBFCDBF00E00CBF12E0A0E0B2E032
:10034000E6EFFCE300E00BBF02C007900D92A63F72
:10035000B107D9F724E0A6EFB2E001C01D92A237A1
:10036000B207E1F711E0C5E9D1E000E006C021974E
:100370000109802FFE010E94451DC439D10780E08C
:100380000807A9F70E9462180C94791E0C940000CB
:1003900008958CBD9DBD0895FC01818D928D0895B9
:1003A00008958150823108F05AC0E82FF0E0882784
:1003B000E352FE4F8F4F0C94451DFD010102EF01EA
:1003C000F501F9012F0204020A020E0214021802BA
:1003D0001C02220226022F022A02300234028091DD
:1003E00080008F77809380000895809180008F7DBA
:1003F000F9CF80918000877FF5CF84B58F7784BD5A
:10040000089584B58F7DFBCF8091B0008F77809366
:10041000B00008958091B0008F7DF9CF8091900059
:100420008F77809390000895809190008F7DF9CF11
:1004300080919000877FF5CF8091A0008F77809387
:10044000A00008958091A0008F7DF9CF8091A00039
:10045000877FF5CF809120018F77809320010895C9
:10046000809120018F7DF9CF80912001877FF5CF8A
:100470001F93CF93DF93282F30E0F901EE5DFD4FFE
:100480008491F901E456FD4FD491F901EE51FD4FED
:10049000C491CC23A9F0162F81110E94D101EC2F19
:1004A000F0E0EE0FFF1FE859FD4FA591B4918FB713
:1004B000F894EC91111108C0D095DE23DC938FBF26
:1004C000DF91CF911F910895DE2BF8CFCF93DF936B
:1004D00090E0FC01E456FD4F24918E519D4FFC01AC
:1004E00084918823D1F090E0880F991FFC01EE578A
:1004F000FD4FA591B491FC01E859FD4FC591D491F0
:1005000061110EC09FB7F8948C91E22FE0958E2375
:100510008C932881E223E8839FBFDF91CF910895D8
:100520008FB7F894EC91E22BEC938FBFF6CF3FB7E7
:10053000F8948091170390911803A0911903B0913A
:100540001A0326B5A89B05C02F3F19F00196A11DDF
:10055000B11D3FBFBA2FA92F982F8827BC01CD010D
:10056000620F711D811D911D42E0660F771F881F6C
:10057000991F4A95D1F708958F929F92AF92BF929B
:10058000CF92DF92EF92FF926B017C010E94970263
:100590004B015C01C114D104E104F104B9F00E94E3
:1005A0009702681979098A099B09683E7340810599
:1005B000910580F321E0C21AD108E108F10888EE24
:1005C000880E83E0981EA11CB11CE4CFFF90EF9031
:1005D000DF90CF90BF90AF909F908F9008952FB7EE
:1005E000F894609113037091140380911503909116
:1005F00016032FBF0895AF92BF92CF92DF92EF9272
:10060000FF920F931F93CF93DF936C017B018B01BC
:10061000040F151FEB015E01AE18BF08C017D1070C
:1006200059F06991D601ED91FC910190F081E02D96
:10063000C6011995892B79F7C501DF91CF911F91DB
:100640000F91FF90EF90DF90CF90BF90AF90089503
:10065000FC01538D448D252F30E0842F90E0821BC8
:10066000930B541710F0CF96089501970895FC014D
:10067000918D828D981761F0A28DAE0FBF2FB11DA5
:100680005D968C91928D9F5F9F73928F90E00895FD
:100690008FEF9FEF0895FC01918D828D981731F0B7
:1006A000828DE80FF11D858D90E008958FEF9FEF0B
:1006B0000895FC01918D228D892F90E0805C9F4FE1
:1006C000821B91098F73992708958AE693E00E940F
:1006D000590321E0892B09F420E0822F0895FC01C1
:1006E000A48DA80FB92FB11DA35ABF4F2C91848D93
:1006F00090E001968F739927848FA689B7892C93F0
:10070000A089B1898C91837080648C93938D848D42
:10071000981306C00288F389E02D80818F7D808345
:100720000895EF92FF920F931F93CF93DF93EC0105
:1007300081E0888F9B8D8C8D98131AC0E889F98988
:10074000808185FF15C09FB7F894EE89FF8960838B
:10075000E889F98980818370806480839FBF81E00C
:1007600090E0DF91CF911F910F91FF90EF9008954E
:10077000F62E0B8D10E00F5F1F4F0F731127E02E29
:100780008C8D8E110CC00FB607FCFACFE889F98961
:10079000808185FFF5CFCE010E946F03F1CFEB8DF5
:1007A000EC0FFD2FF11DE35AFF4FF0829FB7F89435
:1007B0000B8FEA89FB8980818062CFCFCF93DF9353
:1007C000EC01888D8823B9F0AA89BB89E889F98969
:1007D0008C9185FD03C0808186FD0DC00FB607FC9E
:1007E000F7CF8C9185FFF2CF808185FFEDCFCE01D1
:1007F0000E946F03E9CFDF91CF91089580E090E0F0
:10080000892B29F00E94650381110E94000080E07D
:1008100090E0892B49F080E090E0892B29F00E943C
:10082000000081110E94000080E090E0892B49F0D7
:1008300080E090E0892B29F00E94000081110E9445
:10084000000080E090E0892B49F080E090E0892B67
:1008500029F00E94000081110C9400000895FC0111
:1008600020812EBD9B012150310941F051810DB4F1
:1008700007FEFDCF4EB55EBD4193F5CF61507109C6
:10088000860F971F0DB407FEFDCF2EB5FC01208308
:100890000895E0916403F091650380819091630372
:1008A000892B80830895E0916403F0916503908122
:1008B0008091630380958923808308958EBD000015
:1008C0000DB407FEFDCF8EB50895AF92BF92CF92C3
:1008D000DF92EF92FF920F931F93CF93DF9300D09D
:1008E00000D01F921F92CDB7DEB78C017B016A0149
:1008F000809167038333E1F45801A40EB51EA0165E
:10090000B10609F46FC00E94530480EF0E945E0498
:10091000812F0E945E04802F0E945E040F5F1F4F94
:10092000F70181917F010E945E040E944904E7CF94
:100930005B01A40EB51E8433C1F40E9453041983D5
:100940000A838D2D80688B83CC8264E070E0CE01B9
:1009500001960E942F04AE14BF0409F441C0F701B0
:1009600081917F010E945E04F6CF0E9453040F3FE5
:10097000110509F028F419820A8384E08B830CC0E6
:1009800017FD17C019820A8333E0169507953A952B
:10099000E1F7007E0C600B8386E0C816D104A0F559
:1009A000F701DE011496EA15FB0599F081918D930C
:1009B000FACFC80126E0969587952A95E1F7807EC3
:1009C00019830A830115104C10F48461D7CF8C6110
:1009D000D5CFB6016D5F7F4FCE0101960E942F04E7
:1009E0000E944904C60128960FB6F894DEBF0FBED8
:1009F000CDBFDF91CF911F910F91FF90EF90DF90CE
:100A0000CF90BF90AF90089563E070E0CE01019663
:100A10000E942F04F70181917F010E945E04AE14B1
:100A2000BF04C1F7DDCFCF93DF931F92CDB7DEB701
:100A3000898341E050E0BE016F5F7F4F90E080E02E
:100A40000E9465040F90DF91CF91089590E020916E
:100A50006703233339F40C96982F990F990F990F48
:100A600080E008954896F8CFDA01E0916803F0E05D
:100A7000FE2FEE27E60FF71F90E0982F8827A90199
:100A8000BD018E0F9F1F0C946504CF93DF931F92BF
:100A90001F92CDB7DEB779836A8322E030E0AE01E2
:100AA0004F5F5F4F60E170E00E9434050F900F9040
:100AB000DF91CF910895CF93DF931F921F92CDB70F
:100AC000DEB779836A8322E030E0AE014F5F5F4F8B
:100AD00064E070E00E9434050F900F90DF91CF9199
:100AE0000895CF93DF931F92CDB7DEB720916803AF
:100AF00030E0322F2227260F371F90E0982F8827CB
:100B0000498341E050E0BE016F5F7F4F820F931F2A
:100B10000E9465040F90DF91CF910895CF93DF93EA
:100B20001F92CDB7DEB76983DC01ED91FC910280A5
:100B3000F381E02D41E050E0BE016F5F7F4F1995DA
:100B40000F90DF91CF910895CF93DF931F92CDB790
:100B5000DEB76983DC01ED91FC910280F381E02D29
:100B600041E050E0BE016F5F7F4F19950F90DF911C
:100B7000CF910895FC019485FB018485981303C0EF
:100B800081E0983008F080E00895CF93DF931F92C2
:100B9000CDB7DEB76983DC01ED91FC910280F38172
:100BA000E02D41E050E0BE016F5F7F4F19950F903F
:100BB000DF91CF9108950895FF920F931F93CF93E4
:100BC000DF93EB01FC01178A168A2A81211109C0E3
:100BD0002B81211106C02C81211103C02D812223DC
:100BE00001F141155105E9F08A01FC01F08C80E525
:100BF00091E00E94C901AE014E5F5F4F24E030E0FA
:100C00006CE070E08F2D0E943405B8018F2D0E949A
:100C1000450581E090E0DF91CF911F910F91FF900A
:100C2000089580E0F7CFFC01848595850895FC0147
:100C300084899589089526EA32E0FC013183208376
:100C4000FB014089518962897389FC014283538386
:100C5000648375830895DC01ED91FC91048CF58D1E
:100C6000E02D1994FC01768765870895DC01ED91EC
:100C7000FC9102A0F3A1E02D199591E08927089538
:100C8000862F089581E08627089521E0FC01848560
:100C9000883008F020E0822F08950895089590E0AC
:100CA00080E008956F927F928F929F92AF92BF9251
:100CB000CF92DF92EF92FF920F931F93CF93DF9328
:100CC0007C0160E081E30E94380261E081E30E94E0
:100CD0003802CFE0D0E010E000E092E5C92E92E0CB
:100CE000D92E2CECA22E22E0B22E32E1832E33E05C
:100CF000932EF6018491F5017490F40164906620BE
:100D000009F438C081110E94D101E62DF0E0EE0F08
:100D1000FF1FE85FFD4FA591B4918C91782231E0DF
:100D200020E009F430E0832F922F0C2E02C0880FB0
:100D3000991F0A94E2F7082B192B61E08EE20E94BA
:100D4000380260E08EE20E943802219790F6F701A7
:100D50001383028380E0DF91CF911F910F91FF9069
:100D6000EF90DF90CF90BF90AF909F908F907F904B
:100D70006F90089590E080E0D8CF8091FA028111C1
:100D80000BC01092F6021092F7021092F902109224
:100D9000F80281E08093FA0286EF92E008950C94C5
:100DA000E91DFB0101900020E9F73197AF01461BD7
:100DB000570BDC01ED91FC910280F381E02D199439
:100DC0008F929F92AF92BF92EF92FF920F931F93D9
:100DD000CF93DF93CDB7DEB7A1970FB6F894DEBF00
:100DE0000FBECDBF7C01FA01CB0119A2223008F45D
:100DF0002AE08E010F5D1F4F822E912CB12CA12C69
:100E0000BF01A50194010E94141DF901CA016A30B5
:100E10000CF5605DD8016E938D01232B242B252BBF
:100E200079F790E080E0109721F0BD01C7010E94A2
:100E3000D106A1960FB6F894DEBF0FBECDBFDF91ED
:100E4000CF911F910F91FF90EF90BF90AF909F9027
:100E50008F900895695CDECF8F929F92AF92BF9280
:100E6000CF92DF92EF92FF920F931F93CF93DF9376
:100E70007C01EB016C0182E0C80ED11C4701E5E06A
:100E80008E0E911C10E000E0F60141916F0150E0E0
:100E900070E060E02AE0CE010E94E0065C01E8819B
:100EA000F9810190F081E02D6EE2CE0119958A0D55
:100EB0009B1D080F191FC814D90431F7F70145818C
:100EC00050E070E060E02AE0CE010E94E006800F72
:100ED000911FDF91CF911F910F91FF90EF90DF90C5
:100EE000CF90BF90AF909F908F9008950F931F93D6
:100EF000CF93DF93EC010E94D1068C0168EA72E087
:100F0000CE010E94D106800F911FDF91CF911F91DA
:100F10000F910895AF92BF92CF92DF92EF92FF921E
:100F20000F931F93CF93DF9300D01F92CDB7DEB7FF
:100F30008C016B017A01809167038333E9F45B01D3
:100F40006801C40ED51EC016D106A9F10E94530433
:100F50008FE00E945E04812F0E945E04802F0E9419
:100F60005E040F5F1F4F80E00E945E04F5018193D5
:100F70005F010E944904E7CF843369F50E9453045E
:100F800019830A838F2D8F778B83EC8264E070E066
:100F9000CE0101960E942F04A70170E060E0C60117
:100FA0000E94721EE114F10421F0B701C6010E94F3
:100FB0002F040E944904C7010F900F900F900F90CB
:100FC000DF91CF911F910F91FF90EF90DF90CF9025
:100FD000BF90AF9008950E9453040F3F110509F090
:100FE00030F419820A831B8263E070E0D1CF17FDD1
:100FF0000BC019820A8333E0169507953A95E1F7FD
:10100000007E08600B83F0CFC80126E09695879597
:101010002A95E1F7807E19830A830115104C18F494
:1010200080618B83E1CF8861FCCFCF93DF931F92E8
:10103000CDB7DEB72091680330E0322F2227260F8C
:10104000371F90E0982F882741E050E0BE016F5F86
:101050007F4F820F931F0E948A0789810F90DF9133
:10106000CF910895CF93C82F462F61E070E00E9482
:10107000710561E070E08C2F0E9415088111F9CF95
:10108000CF910895CF93C82F80E591E00E94C901C8
:1010900068E070E08C2FCF910C943208CF93C82F6A
:1010A00080E591E00E94C90160E170E08C2FCF9152
:1010B0000C943208CF93DF93EC01888D883020F4B4
:1010C0000E944E0888E0888FDF91CF91089563E0F9
:1010D00070E00C941508CF93C82F80E591E00E9432
:1010E000C9018C2FCF910C946708EF92FF920F9358
:1010F0001F93CF93DF937C0180916703D4E0833308
:1011000009F0D8E003E513E0C0E0F8012191319146
:101110008F01F701848195812817390729F0CF5F66
:10112000DC13F3CF80E006C08C2F0E946B08843163
:10113000B1F781E0DF91CF911F910F91FF90EF9078
:101140000895CF93DF93EC018C858830D0F40E9412
:101150006B08843189F0882379F0883169F021E0C7
:101160008C3159F4E881F9810084F185E02DCE01BC
:10117000199521E0892B09F420E0822FDF91CF918E
:10118000089580E0FBCFCF92DF92EF92FF92CF9352
:10119000DF93EC018C85883068F40E9442080E943D
:1011A000EF026B017C018C850E946B08811109C0E4
:1011B00088E08C87DF91CF91FF90EF90DF90CF9008
:1011C000089561E070E080E090E00E94BC020E941F
:1011D000EF02AB01BC014C195D096E097F098D85D9
:1011E0009E85B0E0A0E0481759076A077B07D8F250
:1011F0008C850E944E08DCCFCF93FC01C08D80E52A
:1012000091E00E94C90160E270E08C2F0E943208D8
:1012100062E070E08C2F0E94150884FD16C062E029
:1012200070E08C2F0E94150883FF0AC048E162E03D
:1012300070E08C2F0E94710580E090E0CF910895BE
:1012400080E591E00E94C901E3CF40E162E070E0F7
:101250008C2F0E94710581E0F0CFCF93DF931F9216
:10126000CDB7DEB741E050E0BE016F5F7F4F90E049
:1012700080E00E948A0789810F90DF91CF910895C5
:10128000CF93DF93C4E1D0E00E942D09882361F061
:1012900061E070E080E090E00E94BC022197A1F73D
:1012A00080E0DF91CF91089581E0FBCFCF92DF9274
:1012B000EF92FF920F931F93CF93DF93CDB7DEB7DB
:1012C000C454D1090FB6F894DEBF0FBECDBFFC01E8
:1012D00082819381A481B58123968CAF9DAFAEAFFF
:1012E000BFAF239721E023962FAF239723964CADD2
:1012F0005DAD6EAD7FAD23974BAB5CAB6DAB7EABA5
:1013000089AF9AAFABAFBCAF8DA79EA7AFA7B8AB65
:1013100028AB4DA55EA56FA578A94FA358A769A7CF
:101320007AA72EAB4BA95CA96DA97EA949A35AA3A4
:101330006BA37CA38B8F9C8FAD8FBE8F46EA52E050
:101340005C8B4B8B3FEF3D8B3E8B3F8B188E5E87CC
:101350004D872AA7CFA0D8A4E9A4FAA4CF86D88A1B
:10136000E98AFA8A2CA309A11AA12BA13CA1098719
:101370001A872B873C875A8349838B839C83AD8351
:10138000BE83809169038111A2C060E372E080E0B6
:1013900090E00E94BC021FB7F8948091660381110F
:1013A00027C0E7E1F3E08491E1EDF2E09491E82FCA
:1013B000F0E0EE0FFF1FEE57FD4FA591B491EC91B9
:1013C000E92321F461E085E30E94380261E085E3CE
:1013D0000E9466028CB580618CBD8CB580648CBD2A
:1013E00061E084E30E94660261E083E30E9466029A
:1013F000809166038F5F809366031FBF8091020216
:10140000282F30E0F901EE51FD4FE491F0E0EE0FAE
:10141000FF1FE859FD4F4591549150936503409348
:101420006403F901E456FD4FE491E093630361E046
:101430000E9466020E94490480E591E00E94C90171
:1014400084E38093670380E80E9413050E944009AB
:10145000882309F472C088E00E9413050E942D09B8
:10146000883009F06AC080E10E9413050E942D09AE
:10147000803109F062C080E00E9413050E942D09AE
:10148000182F81115AC041E050E0BE016D5B7F4FC3
:101490008FE190E00E948A0724968FAD24978330D5
:1014A00009F04BC080E48093680342E06EE170E095
:1014B000812F0E94710542E06FE170E0812F0E9450
:1014C00071051F5F183089F781E08093690380E51B
:1014D00091E00E94C90146E050E063E072E089E0DB
:1014E00090E00E94650444E050E0BE016D5F7F4FD4
:1014F0008FE090E00E94650444E050E0BE01615F2F
:101500007F4F81E090E00E94650444E050E0BE011E
:101510006B5E7F4F85E090E00E94650481E08C87E0
:1015200089859A85AB85BC85809327049093280490
:10153000A0932904B0932A046FC087E380936703C4
:1015400080E80E9413050E944009882339F188E051
:101550000E9413050E942D09883001F580E10E9448
:1015600013050E942D09182F8031C1F480E00E94DC
:1015700013050E942D09811111C041E050E0BE0108
:101580006D5B7F4F89E390E00E948A0724968FADC0
:101590002497843019F41093680396CF83E38093E3
:1015A000670380E80E9413050E944009882391F197
:1015B00080E10E9413050E942D09803159F582E1D6
:1015C0000E9413050E942D09823121F580E00E94BE
:1015D00013050E942D0981111DC084E080936803CA
:1015E00015E525961FAF259741E050E0BE016C5BE5
:1015F0007F4F8BE190E00E94650424961FAF2497F3
:1016000041E050E0BE016D5B7F4F8AE190E00E94B7
:1016100065045ACF10926703CC5BDF4F0FB6F89486
:10162000DEBF0FBECDBFDF91CF911F910F91FF9015
:10163000EF90DF90CF9008951F93CF93DF931F9289
:10164000CDB7DEB7182F80E591E00E94C901812F48
:101650000E94260527E0129FF0011124E55EFC4F51
:1016600022813381377041E050E0BE016F5F7F4FD0
:10167000820F931F0E948A0789810F90DF91CF917B
:101680001F910895FC01808D883040F4218D328DAA
:10169000232B21F00E941C0B90E008958FEF9FEF09
:1016A0000895CF93DF93FC012485283028F08FEF35
:1016B0009FEFDF91CF910895EC010190F081E02D33
:1016C0000084F185E02D1995892B89F38C850E9482
:1016D0001C0B90E0EECFDA01E0916803F0E0FE2F02
:1016E000EE27E60FF71F90E0982F8827A901BD018C
:1016F0008E0F9F1F0C948A078F929F92AF92BF927A
:10170000CF92DF92EF92FF920F931F93CF93DF93CD
:10171000CDB7DEB760970FB6F894DEBF0FBECDBF72
:101720007C0190916703911115C018E0812F60969C
:101730000FB6F894DEBF0FBECDBFDF91CF911F91E2
:101740000F91FF90EF90DF90CF90BF90AF909F9060
:101750008F90089508E0933309F404E06B0180E56D
:1017600091E00E94C9019E012F5F3F4F590149013D
:1017700010E0812F0E946708F40181934F018823B4
:10178000C1F01F5F0113F5CF00E0F50181915F010A
:101790008D3149F0883139F08A51823020F00F5F65
:1017A0001013F3CFC2CF60E170E0802F0E943208A7
:1017B000102FA12EB12CF501EE0FFF1FED5AFC4F9B
:1017C0001182108283EE93E00197F1F742E870E016
:1017D00060E0812F0E9471054FEF62E070E0812F81
:1017E0000E947105B601C114D10491F480910002E8
:1017F0009091010201968115F0EC9F0708F45CC0FE
:1018000090930102809300026091000270910102A6
:10181000812F0E945B0586E0EFE0F2E0DE01199681
:1018200001900D928A95E1F7F70183818F778C877C
:1018300084818D8785818E87A7014E5F5F4F24E06D
:1018400030E06CE070E0812F0E943405B601812FFA
:101850000E94450526E030E0AE01475F5F4F66E03D
:1018600070E0812F0E94340561E070E0812F0E94BA
:10187000320827E02A9DC0012B9D900D11249C0168
:10188000255E3C4F7901F9011182108222E030E09F
:10189000AE01415F5F4F68E270E0812F0E946B0BE9
:1018A0008F859889982789279827F70193838283C2
:1018B0001682158214823ACF80E090ECA1CFCF92AD
:1018C000DF92EF92FF920F931F93CF93DF9300D09D
:1018D00000D0CDB7DEB78C016B017A01FC01808DA1
:1018E000883010F40E944E0886EA92E09A83898339
:1018F000F60182819381A481B5818B839C83AD8322
:10190000BE83B701CE0101960E947C0BF801808F47
:101910008830A0F4F586E486128E118E81E026963A
:101920000FB6F894DEBF0FBECDBFDF91CF911F91F0
:101930000F91FF90EF90DF90CF90089580E0EFCF70
:101940007F928F929F92AF92BF92CF92DF92EF924F
:10195000FF920F931F93CF93DF931F921F92CDB7E8
:10196000DEB7782E8B014A01590122E030E0AE014A
:101970004F5F5F4F64E270E00E946B0BE980FA807A
:10198000FE24EF24FE24E00EF11E970137704091F3
:101990006703072D10E0433309F042C0085F1F4F73
:1019A000102F0027110F110F110FC901800F911F68
:1019B0004733C9F1A9014A0D5B1D4130584098F1E8
:1019C00060E078E06B01C21AD30AA601B4010E945C
:1019D0006504A5014C195D09B4016C0D7D1DC8019C
:1019E0000E946504EA0CFB1CF982EA8222E030E0E6
:1019F000AE014F5F5F4F64E270E0872D0E943405B7
:101A00000F900F90DF91CF911F910F91FF90EF906A
:101A1000DF90CF90BF90AF909F908F907F90089570
:101A2000005F1F4FBDCFA501B401DACFEF92FF9247
:101A30001F93CF93DF931F921F92CDB7DEB7182F5E
:101A400022E030E0AE014F5F5F4F60E270E00E9445
:101A50006B0BE980FA80FE24EF24FE2422E030E0C4
:101A6000AE014F5F5F4F60E270E0812F0E946B0B11
:101A700089819A81982789279827E816F90689F499
:101A800087E0189FF0011124E55EFC4FF582E482A7
:101A9000C7010F900F90DF91CF911F91FF90EF90B2
:101AA00008957C01DBCF1F93CF93DF93182F80E540
:101AB00091E00E94C901812F0E94160DEC01812F37
:101AC0000E946708873121F08C3111F0D0E0C0E02E
:101AD000CE01DF91CF911F910895CF93DF93EC0159
:101AE0008C85883060F40E946B08873111F08C314E
:101AF00031F48C850E94530D8115984088F3DF9155
:101B0000CF910895FC018485883010F40C94530D16
:101B100090E080E00895CF92DF92EF92FF921F93C2
:101B2000CF93DF93182F7B01EA014130584010F02A
:101B3000C0E0D8E080E591E00E94C901812F0E94B9
:101B4000160D6C01812F0E946708873111F08C31CE
:101B500021F5CC16DD0670F380E591E00E94C90105
:101B60009E01A70170E060E0812F0E94A00C60E25E
:101B700070E0812F0E94320862E070E0812F0E94A5
:101B8000150884FD0DC0812F0E9467088823B9F0D5
:101B900080E591E00E94C901EFCFD0E0C0E0DCCF4A
:101BA00040E162E070E0812F0E947105CE01DF917B
:101BB000CF911F91FF90EF90DF90CF900895D0E0EC
:101BC000C0E0F4CF0F931F93CF93DF938C01EA0112
:101BD000FC018485883048F40E948B0D892B39F4F0
:101BE00081E090E0F80193838283D0E0C0E0CE01F1
:101BF000DF91CF911F910F9108959F92AF92BF9265
:101C0000CF92DF92EF92FF920F931F93CF93DF93C8
:101C10008C015B01942EE52EFC01C688D788F08CE0
:101C200080E591E00E94C9018F2D0E94160DC92DFB
:101C3000DE2D8C179D0708F4EC019E01A501B6016D
:101C40008F2D0E94A00CF801868997898C0F9D1F0B
:101C5000978B868BCE01DF91CF911F910F91FF90D3
:101C6000EF90DF90CF90BF90AF909F900895FF923C
:101C70000F931F93CF93DF931F921F92CDB7DEB7C1
:101C8000F82E22E030E0AE014F5F5F4F66E270E079
:101C90000E946B0B09811A8110270127102722E06F
:101CA00030E0AE014F5F5F4F66E270E08F2D0E9423
:101CB0006B0B89819A81982789279827081719071C
:101CC00049F4C8010F900F90DF91CF911F910F91B0
:101CD000FF9008958C01E3CF1F93CF93DF93182FCC
:101CE00087E0189FE0011124C55EDC4F888199814F
:101CF000009761F480E591E00E94C901812F0E9464
:101D0000370E2E81821B910999838883DF91CF91B1
:101D10001F9108959F92AF92BF92CF92DF92EF9260
:101D2000FF920F931F93CF93DF93EC017B01809180
:101D30006703811121C01B821A8288EE93E0A0E024
:101D4000B0E08C839D83AE83BF8384E692E0998369
:101D5000888388E08C8788EE93E09E878D87CE010C
:101D6000DF91CF911F910F91FF90EF90DF90CF9077
:101D7000BF90AF909F90089534E0932E833311F07D
:101D800028E0922E83E5C82E83E0D82E10E098E05C
:101D9000B92EA12CD6012D913D916D01F7018481C1
:101DA00095812817390791F4812F0E946B08082F1D
:101DB000873111F08C3139F5812F0E946C0E892BFF
:101DC00059F50C3119F4812F0E9442081F5F9112BE
:101DD000E1CFA11008C0D701ED91FC910084F185FD
:101DE000E02DC70119951B821A8288EE93E0A0E0CE
:101DF000B0E08C839D83AE83BF8384E692E09983B9
:101E00008883BC86A8CF843149F08111DFCFF601E9
:101E1000329711821082DACFB12ED8CFAA24A394A0
:101E2000D5CF8F929F92AF92BF92CF92DF92EF92D7
:101E3000FF920F931F93CF93DF93CDB7DEB72F970A
:101E40000FB6F894DEBF0FBECDBF5C014B017A0127
:101E5000809167038823C9F104E0833309F008E027
:101E6000B501CE0101960E948A0E83E5C82E83E05B
:101E7000D82E10E0F601219131916F01F501848196
:101E800095812817390751F4812F0E946B088731FB
:101E900029F4A701B401812F0E948B0D1F5F01134C
:101EA000E9CFC7012F960FB6F894DEBF0FBECDBFA6
:101EB000DF91CF911F910F91FF90EF90DF90CF9026
:101EC000BF90AF909F908F900895F12CE12CE9CFB7
:101ED000FC018485883010F40C946C0E90E080E056
:101EE00008954F925F927F928F929F92AF92BF928E
:101EF000CF92DF92EF92FF920F931F93CF93DF93D6
:101F00001F921F92CDB7DEB7782E6B014A01A82E23
:101F1000B12C27E0829FC0011124FC01E55EFC4F3B
:101F20007F010081118180E591E00E94C9010815BF
:101F3000190554F4872D0E94370EF70126818C0174
:101F4000021B1109118300830115110519F5872D55
:101F50000E946708843159F0882349F001E010E0BD
:101F60008C3111F410E000E0119501951109C801C0
:101F70000F900F90DF91CF911F910F91FF90EF90F5
:101F8000DF90CF90BF90AF909F908F907F905F90A9
:101F90004F900895801691060CF4840187E08A9D85
:101FA000F0018B9DF00D1124E55EFC4FE280F38083
:101FB000C114D10451F12701F7E05F22872D0E945F
:101FC0002605840D951D20916703273309F453C01E
:101FD0009801240D351D2130384008F44CC020E014
:101FE00038E0490184189508A401B6010E948A07C7
:101FF0002601480C591C6801C818D908872D0E9471
:102000002605A601B2010E948A07E00EF11E87E0B4
:102010008A9DF0018B9DF00D1124E55EFC4FF3824B
:10202000E28220813181201B310B31832083868124
:10203000800F912F911D8A3F910510F4232BF1F40D
:1020400087E08A9DF0018B9DF00D1124E55EFC4F29
:102050001682F982EA8222E030E0AE014F5F5F4FE4
:1020600068E270E0872D0E94340560E470E0872DFF
:102070000E9432087CCFA801B601C5CF868377CFF6
:10208000CF93DF93FC01218D328D2115310529F489
:102090008FEF9FEFDF91CF910895EC01808D421774
:1020A000530708F0A9010E94710F1816190684F74A
:1020B000298D3A8D281B390B3A8F298FEBCF0F933F
:1020C0001F93CF93DF931F92CDB7DEB7FC01218D15
:1020D000328D232B41F48FEF9FEF0F90DF91CF9143
:1020E0001F910F9108958C0141E050E0BE016F5F98
:1020F0007F4FFC01808D0E94710F181619065CF746
:10210000F801818D928D0197928F818F898190E066
:10211000E4CFCF93DF931F92CDB7DEB741E050E01D
:10212000BE016F5F7F4FFC0184850E94710F1816FE
:10213000190634F4898190E00F90DF91CF910895D2
:102140008FEF9FEFF9CFFC018485883010F40C9459
:10215000710F90E080E008958F929F92AF92BF92AE
:10216000CF92DF92EF92FF920F931F93CF93DF9363
:1021700000D000D000D01F92CDB7DEB7909167039A
:10218000911115C018E0812F2A960FB6F894DEBF82
:102190000FBECDBFDF91CF911F910F91FF90EF90B8
:1021A000DF90CF90BF90AF909F908F90089528E0E0
:1021B000F22E933311F494E0F92E6B01082F80E591
:1021C00091E00E94C9019E012F5F3F4F59014901D3
:1021D00010E0812F0E946708F40181934F0188234A
:1021E000C1F01F5FF112F5CFF12CF50191915F0164
:1021F0009D3149F0983139F09A51923020F0F394A2
:102200001F11F3CFBFCF60E170E08F2D0E94320825
:102210001F2DE12EF12CF701EE0FFF1FED5AFC4FA1
:102220001182108283EE93E00197F1F7402F70E066
:1022300060E0812F0E9471054FEF62E070E0812F16
:102240000E947105B601CD2889F480910002909119
:10225000010201968115F0EC9F0798F1909301021D
:10226000809300026091000270910102812F0E9410
:102270005B0561E070E0812F0E94320827E02E9D0F
:10228000C0012F9D900D11249C01255E3C4F7901CA
:10229000F9011182108222E030E0AE01475F5F4F0A
:1022A00068E270E0812F0E946B0B89859A859827E0
:1022B00089279827F70193838283168215821482D7
:1022C00062CF80E090ECCACF0F931F93CF93DF9340
:1022D000EC018B01888D883010F40E944E08B80103
:1022E00082E00E94AC10888F883050F41D870C87E4
:1022F0001A8E198E81E0DF91CF911F910F91089571
:1023000080E0F9CF0F931F93CF938C01FC01648180
:10231000758181E20E94AC10C82F8830F8F480E506
:1023200091E00E94C9018C2F0E946708833131F02F
:102330008C2FCF911F910F910C94420862E070E0B6
:102340008C2F0E943208F80184819581EC2FF0E0F7
:10235000EE0FFF1FED5AFC4F91838083CF911F91A9
:102360000F9108950F931F93CF93DF9300D000D068
:10237000CDB7DEB78C0186EA92E09A838983FB01B0
:1023800082819381A481B5818B839C83AD83BE833D
:10239000CE0101960E945609C8010E94821126961C
:1023A0000FB6F894DEBF0FBECDBFDF91CF911F9166
:1023B0000F910895CF92DF92EF92FF921F93CF93E8
:1023C000DF93EC017B016A018C85883048F40E9420
:1023D0006B08882319F08C850E94420888E08C875E
:1023E000F70182819381A481B5810097A105B10590
:1023F00051F490E080E0DF91CF911F91FF90EF903A
:10240000DF90CF9008958F3F9F4FAF4FBF4F89F31D
:1024100070E060E081E20E94AC10182F8C87883059
:1024200040F780E591E00E94C901A7014E5F5F4F30
:1024300024E030E06CE070E0812F0E943405B601AA
:10244000812F0E94450564E070E0812F0E943208D0
:102450000E94EF026B017C018C850E946B08873122
:1024600011F18C3101F1882321F20E94EF02AB01BE
:10247000BC014C195D096E097F098D859E85B0E010
:10248000A0E084179507A607B70738F061E070E071
:1024900080E090E00E94BC02DFCF8C850E944E0855
:1024A00088E08C87A6CF81E090E0A5CF0F931F93A3
:1024B000CF93DF931F921F92CDB7DEB7FC01248527
:1024C0002830E0F48C0180E591E00E94C90122E00F
:1024D00030E0AE014F5F5F4F60E170E0F80184854E
:1024E0000E946B0B89819A819827892798270F90E2
:1024F0000F90DF91CF911F910F91089590E080E0B0
:10250000F6CF0F931F93CF93DF931F921F92CDB7F8
:10251000DEB7FC0124852830E0F48C0180E591E0F1
:102520000E94C90122E030E0AE014F5F5F4F64E0DE
:1025300070E0F80184850E946B0B89819A8198274D
:10254000892798270F900F90DF91CF911F910F91BE
:10255000089590E080E0F6CF0F931F93CF93DF9321
:1025600000D000D01F921F92CDB7DEB78C01D801EA
:1025700059964D915C915A974115510551F0ED9145
:10258000FC91048CF58DE02D70E060E0C801199598
:10259000EECFF801808D0E946C0E892BB1F148E0DE
:1025A00050E0BE016F5F7F4FD80158968C910E941A
:1025B000710F18161906F4F4D801509684E0FE0144
:1025C000319601900D928A95E1F78D8190E0982FD8
:1025D00088272E81820F911DF801958B848B8F8126
:1025E000282F30E0322F22278885820F932F911DCC
:1025F000928F818F28960FB6F894DEBF0FBECDBFA5
:10260000DF91CF911F910F91089590E080E0F2CF7C
:102610004F925F926F927F928F929F92AF92BF92F2
:10262000CF92DF92EF92FF920F931F93CF93DF939E
:10263000CDB7DEB763970FB6F894DEBF0FBECDBF40
:102640007C016B013A01FB0120E090E080E06AE050
:102650003191332309F461C040ED430F4A3008F053
:102660004DC0689FA001699F500D1124CA01C097F9
:10267000830F911D37FD9A958F3F910549F340F3E4
:10268000F701428153816481758180913304909177
:102690003404A0913504B0913604481759076A07ED
:1026A0007B0709F40DC28701085F1F4F0E94EF02EC
:1026B0006F7077277C5FC8010E946411813009F038
:1026C00004C286EA92E09A838983F701828193812A
:1026D000A481B5818B839C83AD83BE8345E350E0A9
:1026E000BE016F5F7F4FC8010E94DC05892BA9F5F1
:1026F000D12CC12CC8010E945A0817C03E3209F0E3
:10270000BFCF233009F4BCCFD301A20FB11D129665
:102710008C932F5F90E080E09BCF233009F0B0CF07
:10272000F3018583CC24C394D12CC60163960FB6E4
:10273000F894DEBF0FBECDBFDF91CF911F910F91F7
:10274000FF90EF90DF90CF90BF90AF909F908F90D1
:102750007F906F905F904F9008950E94EF02F70175
:102760007783668342E050E0B7016A5F7F4FC8011C
:102770000E94FD0D81E090E09A83898342E050E061
:10278000BE016F5F7F4FC8010E94FD0D80E091E0A8
:102790009A83898342E050E0BE016F5F7F4FC8019A
:1027A0000E94FD0D1A82198242E050E0BE016F5F67
:1027B0007F4FC8010E94FD0D42E050E0BE016F5FF7
:1027C0007F4FC8010E94FD0D42E050E0BE016F5FE7
:1027D0007F4FC8010E94FD0D5601F60180818823BC
:1027E00001F16501F60181912F01882311F08E32EC
:1027F000B1F446018A189B081814190474F48D86E4
:1028000041E050E0BE01635F7F4FC8010E94FD0DB3
:10281000A401B501C8010E94FD0D5201DECF620185
:10282000E1CF1D8641E050E0BE01635F7F4FC801EC
:102830000E94FD0DC12CDD24D394DA82C98242E0CE
:1028400050E0BE016F5F7F4FC8010E94FD0DDA822C
:10285000C98242E050E0BE016F5F7F4FC8010E9415
:10286000FD0DC8010E94FC08892B09F441CFF3E05B
:10287000AF2EB12C230122E0420E511CD4C0F7012F
:102880004281538164817581808D918DA28DB38D3C
:10289000481759076A077B0709F008C1848D958D91
:1028A000C59709F003C181A192A15DEFC52EDD247A
:1028B000DA940C970CF4ADC04CE050E0BE016F5FB1
:1028C0007F4FC8010E9440108B819C8198278927E7
:1028D00098279A8B898BF7014681578129813A8104
:1028E0004217530709F0E7C097FFE5C08F70927059
:1028F0003BEFC32EDD24DA94892B09F08AC06F8068
:1029000078847624672476242AEFC22EDD24DA9494
:102910006114710409F47DC0D12CC12C8D819E817C
:10292000982789279827C816D906F8F441E050E07F
:10293000BE01635F7F4FC8010E9440104D85442354
:1029400031F050E070E060E0C8010E9440108D85D9
:102950008111ECCF44E050E070E060E0C8010E94DB
:102960004010FFEFCF1ADF0AD9CF912C812C41E024
:1029700050E0BE016D5E7F4FC8010E9440104B8940
:10298000842F807C09F06CC0442331F050E070E06B
:1029900060E0C8010E9440108B898111E8CF42E0BD
:1029A00050E0BE01615F7F4FC8010E94401042E0CD
:1029B00050E0BE01635F7F4FC8010E94401044E0B9
:1029C00050E070E060E0C8010E94401042E050E03A
:1029D000BE016F5E7F4FC8010E9440108F859889AD
:1029E00049895A898115914009F043C0CD84DE841C
:1029F000DC24CD24DC2481E0C816D104D1F54115B6
:102A0000544009F04AC044E050E0B201C8010E94BD
:102A1000401021E0A21AB10809F46CCEFFEFCF16E6
:102A2000DF0609F067CE0E94EF023B014C01C801AE
:102A30000E94AC12181619060CF421CF0E94EF0266
:102A400066197709880999096938734181059105E3
:102A500048F562E370E080E090E00E94BC02E7CFBE
:102A600041E050E070E060E0C8010E9440101B8A25
:102A700093CF54274527542770E060E0C8010E9497
:102A80004010FFEF8F1A9F0A6814790409F06FCF86
:102A900096EFC92EDD24DA94BCCFE7EFCE2EDD24ED
:102AA000DA94B7CFCC24CA94DC2CB3CF6EEFC62E09
:102AB000DD24DA94AECF4CEFC42EDD24DA94A9CF16
:102AC0008EEFC82EDD24DA9430CED12CC12C2DCE41
:102AD000CF92DF92EF92FF920F931F93CF93DF93EA
:102AE000CDB7DEB7AF970FB6F894DEBF0FBECDBF40
:102AF0007C016A0106EA12E01A8309831C861B86A0
:102B000088EE93E0A0E0B0E08D879E87AF87B88B1A
:102B100089E192E09A878987188F0F8B198E1A8E18
:102B20001B8E1C8E88E089A31BA70AA71CA61DA6C6
:102B30001EA61FA68091270490912804A091290425
:102B4000B0912A048EA39FA3A8A7B9A78B839C83C7
:102B5000AD83BE8318861F82AE01465D5F4FCE01F6
:102B600001960E94081381309105B1F4D701ED91CF
:102B7000FC910488F589E02D1DA30CA38CA59DA5CF
:102B8000AEA5BFA58EA39FA3A8A7B9A7A601BE0106
:102B90006C5D7F4FC7011995AF960FB6F894DEBFF5
:102BA0000FBECDBFDF91CF911F910F91FF90EF909E
:102BB000DF90CF900895CF92DF92EF92FF920F9324
:102BC0001F93CF93DF93CDB7DEB7AF970FB6F894CF
:102BD000DEBF0FBECDBF8C016B017A0186EA92E0A9
:102BE0009A8389831B821C821D821E821C861B86FF
:102BF00048EE53E060E070E04D875E876F87788B2A
:102C000029E132E03A872987988F8F8B198E1A8EA7
:102C10001B8E1C8E28E029A39BA78AA71CA61DA695
:102C20001EA61FA6D8011C968C91883060F40E94C5
:102C30006B08882321F0F80184850E94420888E00F
:102C4000D8011C968C938091270490912804A09120
:102C50002904B0912A048EA39FA3A8A7B9A78B83A8
:102C60009C83AD83BE8318861F82AE01465D5F4F95
:102C7000B601CE0101960E9408130097C1F0D80159
:102C8000ED91FC910684F785E02D86EA92E09DA304
:102C90008CA38CA59DA5AEA5BFA58EA39FA3A8A719
:102CA000B9A7A701BE016C5D7F4FC8011995AF960A
:102CB0000FB6F894DEBF0FBECDBFDF91CF911F914D
:102CC0000F91FF90EF90DF90CF900895EF92FF92D9
:102CD0000F931F93CF93DF9300D01F92CDB7DEB732
:102CE0008C017B01FB0184858830A8F086EA92E0A4
:102CF000F801918380831282138214821582C801A5
:102D00000F900F900F900F90DF91CF911F910F9127
:102D1000FF90EF90089580E591E00E94C90124E0C2
:102D200030E0AE014F5F5F4F6CE070E0F7018485EB
:102D30000E946B0B86EA92E0F8019183808389817F
:102D40009A81AB81BC8182839383A483B583D7CFDF
:102D50001F920F920FB60F9211242F933F938F93D0
:102D60009F93AF93BF938091130390911403A0910D
:102D70001503B09116033091120323E0230F2D3772
:102D800058F50196A11DB11D2093120380931303E2
:102D900090931403A0931503B09316038091170327
:102DA00090911803A0911903B0911A030196A11DE7
:102DB000B11D8093170390931803A0931903B09348
:102DC0001A03BF91AF919F918F913F912F910F90D7
:102DD0000FBE0F901F90189526E8230F0296A11D95
:102DE000B11DD2CF1F920F920FB60F9211240BB6C6
:102DF0000F922F933F934F935F936F937F938F9394
:102E00009F93AF93BF93EF93FF938AE693E00E9463
:102E10006F03FF91EF91BF91AF919F918F917F9140
:102E20006F915F914F913F912F910F900BBE0F903B
:102E30000FBE0F901F9018951F920F920FB60F9212
:102E400011240BB60F922F938F939F93EF93FF93C1
:102E5000E0917A03F0917B038081E0918003F0910F
:102E6000810382FD1DC09081809183038F5F8F73EA
:102E700020918403821741F0E0918303F0E0E6594A
:102E8000FC4F958F80938303FF91EF919F918F91DA
:102E90002F910F900BBE0F900FBE0F901F901895A3
:102EA0008081F2CF10926D0310926C0348EE53E0D4
:102EB00060E070E040936E0350936F036093700383
:102EC0007093710382E592E090936B0380936A03A1
:102ED00085EC90E0909377038093760384EC90E008
:102EE000909379038093780380EC90E090937B0338
:102EF00080937A0381EC90E090937D0380937C0330
:102F000082EC90E090937F0380937E0386EC90E0C8
:102F10009093810380938003109283031092840323
:102F2000109285031092860386EA92E0909308043B
:102F3000809307041092090410920A0410920B0463
:102F400010920C0490930E0480930D0410920F04C1
:102F50001092100410921104109212049093140411
:102F60008093130410921504109216041092170403
:102F70001092180490931A048093190410921B0461
:102F800010921C0410921D0410921E0490932004B1
:102F900080931F04109221041092220410922304A3
:102FA0001092240490932C0480932B0410922D04EF
:102FB00010922E0410922F04109230049093260445
:102FC000809325041092270410922804109229045B
:102FD00010922A04909332048093310410923304A7
:102FE00010923404109235041092360490933804F1
:102FF000809337041092390410923A0410923B04E3
:1030000010923C0490933E0480933D0410923F0440
:10301000109240041092410410924204909369046B
:103020008093680410926A0410926B0410926C04EE
:1030300010926D04909363048093620480EC8093FB
:10304000640488EA80936504109266048DE8809396
:1030500067048091580481112EC01092460410928A
:10306000450486E992E0909344048093430486EFFC
:1030700091E0909348048093470410924C0410927E
:103080004B0440934D0450934E0460934F0470934F
:10309000500484E692E090934A048093490488E0C7
:1030A0008093550488EE93E09093570480935604E0
:1030B00081E08093580483E494E0909361048093CA
:1030C00060040895CF93DF93CDB7DEB7C257D1091F
:1030D0000FB6F894DEBF0FBECDBF789484B5826082
:1030E00084BD84B5816084BD85B5826085BD85B5AC
:1030F000816085BD80916E00816080936E0010922A
:1031000081008091810082608093810080918100A4
:103110008160809381008091800081608093800035
:103120008091B10084608093B1008091B000816093
:103130008093B00080919100826080939100809193
:1031400091008160809391008091900081608093D4
:1031500090008091A10082608093A1008091A100E5
:1031600081608093A1008091A00081608093A00085
:1031700080912101826080932101809121018160F1
:1031800080932101809120018160809320018091B2
:103190007A00846080937A0080917A0082608093C4
:1031A0007A0080917A00816080937A0080917A0021
:1031B000806880937A001092C100E0917A03F091C8
:1031C0007B0382E08083E0917603F09177031082A5
:1031D000E0917803F091790380E18083109282037B
:1031E000E0917E03F0917F0386E08083E0917C0391
:1031F000F0917D03808180618083E0917C03F09178
:103200007D03808188608083E0917C03F0917D0361
:10321000808180688083E0917C03F0917D038081D0
:103220008F7D808385E3809302028091600490917A
:10323000610426EA32E03A83298340916404509184
:10324000650460916604709167044B835C836D83B1
:103250007E83BE016F5F7F4F0E94B2116BEA72E006
:103260008AE693E00E94760767EB72E08AE693E0D5
:103270000E94D1066AE673E082E694E00E942C0781
:1032800068EA72E08AE693E00E94D1060E94BD06D9
:1032900061E081E30E94660260E080E30E946602D2
:1032A00061E08EE20E94660261E080E10E946602B7
:1032B00060E08EE20E94380261E081E30E94380201
:1032C00060E080E10E9438026CEB72E08AE693E0F5
:1032D0000E9476070FE312E0D801FD908D0161E0B6
:1032E0008F2D0E94660260E08F2D0E943802B2E0AE
:1032F00006341B0789F762EC72E08AE693E00E94CD
:10330000760706E412E0F801F180E08061E08E2D9E
:103310000E94660261E08F2D0E94660260E08E2DA1
:103320000E94380260E08F2D0E9438020E5F1F4F0E
:10333000F2E00E341F0739F73E012DE3620E711CD7
:103340001E0135E1230E311C80915804811132C0D9
:10335000109246041092450446E952E0509344040A
:103360004093430486EF91E0909348048093470490
:1033700010924C0410924B0428EE33E040E050E0F1
:1033800020934D0430934E0440934F0450935004C7
:1033900044E652E050934A044093490488E0809305
:1033A000550488EE93E0909357048093560481E08F
:1033B0008093580463E474E0CE01805A9F4F0E94CA
:1033C0008A0EAD968FADAD978830E8F589E494E02C
:1033D0000E94A108811137C0A4968EAD9FADA4971D
:1033E00090934C0480934B04A8968CAD9DADAEADEC
:1033F000BFADA89780934D0490934E04A0934F04C3
:10340000B0935004AC968CAD9DADAEADBFADAC9756
:103410008093510490935204A0935304B0935404A6
:10342000AD968FADAD9780935504AF968EAD9FADA1
:10343000AF97909357048093560468EC72E08AE645
:1034400093E00E94760789E494E00E94680F8C0163
:10345000181619060CF0AAC2730189E494E00E94C0
:103460008910D7018D937D01CD01861997098017A9
:1034700091079CF3B801615071090115110509F418
:1034800095C280910203811103C081E08093020301
:1034900080910A03811103C081E080930A038DADFE
:1034A00089A721E030E081E090E04EE7F42E5AEA6F
:1034B000E52EE9E2F0E0EC0FFD1FE80FF91F2617FB
:1034C000370730F5D301A20FB31FDC90BDE7DB1245
:1034D0001CC0A9014F5F5F4F40175107B0F4D301E3
:1034E000A40FB51FAC91AD3569F0AE3529F0AA3205
:1034F00031F40196E08202C00196F0829A012F5FBA
:103500003F4FD7CF0196D082F9CF0196D082F7CF27
:10351000660D771DDB01CC90C08299A4BEE79B1697
:1035200049F08EE78D8B80EE8E8B8AEA8F8B03E0DD
:1035300010E01DC0EAEACE1619F09D8A81EEF4CFA4
:103540008AA5803B09F05DC00E94BD068C010E94E7
:103550005206D80112969C91129713968C919D8ACF
:1035600020EC2E8B9F8B888FC98E05E010E08D8913
:103570008983DE01569681E090E0015011093DE714
:103580006EE57DE52AE2D22E7C01EFEFEE1AFE0A0F
:10359000E1E0F0E0EC0FFD1FE80FF91FAD0142196B
:1035A00053094017510708F0EEC12D9141E050E05A
:1035B0004C0F5D1FE40EF51E2E3709F4D7C12A3AD1
:1035C00009F4DCC12D3789F4E1E0F0E0EC0FFD1FD8
:1035D000E80FF91F3083FC01319641E050E04C0FB9
:1035E0005D1FE40FF51F02967083AC014F5F5F4FC4
:1035F000E1E0F0E0EC0FFD1F8E0F9F1FFC01208328
:10360000BBC1813B09F0AFC08BA4082D10E0C801FD
:103610000197079728F09D8A82EE8E8B80EDB1C0CE
:103620002DA58CA5E8EEF3E08E9F60018F9FD00C56
:1036300011240D2C000CEE08FF08822F90E0B0E062
:10364000A0E08A309105A105B10508F06EC030E018
:10365000A4E6B0E00E94361DC60ED71EE81EF91E75
:1036600080E190E00E944D1D5C01DC0111961C93ED
:103670000E93FC01C382D482E582F6821786F8019C
:10368000E25CFD4F808112968C9360E0C114D104FE
:10369000E104F10491F00E94EF02F5016783708765
:1036A00081879287128161E0812F0E943802C701D1
:1036B000B6010E94BC0260E0812F0E9438028EE7B2
:1036C0008D8B81EC8E8B8F8A83E090E0C114D104C6
:1036D000E104F104F1F0C701B60128EE33E040E067
:1036E00050E00E94141D022F162FD72E7C0124E6D5
:1036F00030E040E050E00E94141D672B682B692BDE
:1037000011F520930000088F80910000898F85E0DB
:1037100090E08C010F5F1F4F820D931D2AEADC01A0
:103720002C93C5010E94E91D22CF84369105A10585
:10373000B10520F430E0AAE0B0E08CCFC80ED91E6D
:10374000EA1EFB1E8DCF612F7D2DC7012AE030E0E0
:1037500040E050E00E94141D672B682B692B89F212
:1037600010930000D0CF823B09F0FBC04BA4DD24B6
:10377000DA94D40CB3E0BD1548F49D8A83EE8E8BA9
:1037800081ED8F8BC88E04E010E0F1CE8CA48FEF1A
:10379000880D8E3F28F49D8A83EE8E8B84EDF1CFC9
:1037A000ADA4BEA4EFA4F8A859A88FEF850D87306B
:1037B00018F09D8A83EE31CFEAA9E096EFAFE0974B
:1037C000E13148F08EE78D8B83EE8E8B85ED8F8B0C
:1037D0008AEA888FD8CF8DE090E00E944D1D8C0141
:1037E000ED2DF0E04A944A94DC014C9211968C92B3
:1037F00011971396BC92AE9212971596FC92EE9288
:10380000149716965C921697E0962FADE097179650
:103810002C9317971B961C921E921A971C961C921B
:103820001C97EE0FFF1FEA5BFD4F808118968C936B
:1038300018973181E1963FAFE19719963C9360E08C
:10384000811001C061E00E943802D12CC12C852D6D
:1038500090E0AC01425C5D4FE3965FAF4EAFE39703
:10386000D8011A96ED90FC90CA14DB0409F466C0E6
:10387000C114D10409F044C061E0E396EEADFFADA0
:10388000E39780810E943802E096BFADE097B031A7
:1038900009F1F8018485811141C00E94BD064C01E7
:1038A0000E945206D40112968D919C91E0960FAC25
:1038B000E09702C0969587950A94E2F7E096BFAD2F
:1038C000E097B33040F181709927892B19F081E09E
:1038D000F801848761E0E1968FADE1970E9438029C
:1038E000BFEFEB1AFB0AF801F386E28660E0E1968F
:1038F0008FADE1970E943802FFEFCF1ADF0AB0CFF9
:10390000AE14BF0409F0C0CF60E0E396AEADBFAD2A
:10391000E3978C91B7CF80959095D5CF8481958191
:10392000009721F0019795838483D4CFE52DF0E0B3
:10393000E25CFD4F60E080810E9438028EE78D8B53
:1039400082EC8E8B4F8AE88EF98ED8011C968C9172
:103950008A8F8AEA8B8FC8010E94E91D07E010E078
:1039600006CE9D8A8AEE8E8BCF8AE1CD3083AC0164
:103970004E5F5F4FF7016083CA0106CE3083029627
:10398000F701D08221CE020D131DD8018C918083C6
:1039900089E494E00E94A108882359F0A701BE01A0
:1039A0006F5F7F4F89E494E00E94E20D0E94FE0366
:1039B000CBCC63E474E0CE018F5A9F4F0E948A0EF5
:1039C0006E968FAD6E97883088F765962EAD3FADB9
:1039D000659730934C0420934B0469964CAD5DADD4
:1039E0006EAD7FAD699740934D0450934E04609344
:1039F0004F04709350046D964CAD5DAD6EAD7FADD0
:103A00006D97409351045093520460935304709304
:103A1000540480935504A0968EAD9FADA0979093CB
:103A2000570480935604BACFA1E21A2EAA1BBB1BDF
:103A3000FD010DC0AA1FBB1FEE1FFF1FA217B3077A
:103A4000E407F50720F0A21BB30BE40BF50B661F90
:103A5000771F881F991F1A9469F760957095809554
:103A600090959B01AC01BD01CF010895A29FB001CB
:103A7000B39FC001A39F700D811D1124911DB29FA2
:103A8000700D811D1124911D0895EE0FFF1F881FD9
:103A90008BBF0790F691E02D19940F931F93CF934E
:103AA000DF938230910510F482E090E0E0917004A1
:103AB000F091710430E020E0B0E0A0E0309799F49C
:103AC0002115310509F44AC0281B390B2430310572
:103AD000D8F58A819B816115710589F1FB0193837A
:103AE0008283FE0111C040815181028113814817F8
:103AF0005907E0F04817590799F4109761F01296AA
:103B00000C93129713961C933296CF01DF91CF91AD
:103B10001F910F9108950093700410937104F4CFD6
:103B20002115310551F04217530738F0A901DB0187
:103B30009A01BD01DF01F801C1CFEF01F9CF9093E8
:103B4000710480937004CDCFFE01E20FF31F8193C7
:103B500091932250310939832883D7CF20916E0465
:103B600030916F04232B41F420910B0230910C0211
:103B700030936F0420936E042091090230910A0261
:103B80002115310541F42DB73EB740910D025091FA
:103B90000E02241B350BE0916E04F0916F04E217C6
:103BA000F307A0F42E1B3F0B2817390778F0AC0160
:103BB0004E5F5F4F2417350748F04E0F5F1F50933D
:103BC0006F0440936E04819391939FCFF0E0E0E007
:103BD0009CCFCF93DF930097E9F0FC0132971382DB
:103BE0001282A0917004B0917104ED0130E020E0E8
:103BF0001097A1F420813181820F931F20916E04D0
:103C000030916F042817390709F061C0F0936F04F1
:103C1000E0936E04DF91CF910895EA01CE17DF079C
:103C2000E8F54A815B819E0141155105B1F7E90133
:103C3000FB83EA8349915991C40FD51FEC17FD0707
:103C400061F4808191810296840F951FE901998327
:103C50008883828193819B838A83F0E0E0E01296DF
:103C60008D919C9113970097B9F52D913C911197E7
:103C7000CD010296820F931F20916E0430916F0444
:103C80002817390739F6309751F5109271041092C0
:103C90007004B0936F04A0936E04BCCFD383C2832F
:103CA00040815181840F951FC817D90761F44E5F79
:103CB0005F4F88819981480F591F518340838A81C2
:103CC0009B81938382832115310509F0B0CFF09356
:103CD0007104E09370049ECFFD01DC01C0CF13821C
:103CE0001282D7CFDC0101C06D9341505040E0F704
:063CF0000895F894FFCFD7
:103CF60000C00ADEADBEEFFEED00007204800001DA
:103D0600005E000000000000008E05FD0D4F06D08D
:103D160001CC015F10420B64115F0C5A08DC056888
:103D260015FC08AC1240102B061B061706130616C8
:103D36001718191A1B1C200D210C220B230A000030
:103D460000009103FB022803DE03590337034B03EC
:103D560000000000C505E20D820D6D0D680F89108B
:103D6600510BDA11DB15A310C308A10845064D0651
:103D7600CF0642064006BA05360681126616561268
:103D8600320600000000A405110F4F064E068211F0
:103D96007508000000002C070D0A00746370206887
:103DA600616E646C65720049503A200072656C6100
:103DB60079006D6F746F720074637020636C69654F
:103DC6006E7420646973636F6E6E656374656420D8
:103DD600616E64206E657720636C69656E74206120
:063DE600636365707400C8
:00000001FF
