:100000000C94AD010C94DE010C94DE010C94DE0125
:100010000C94DE010C94DE010C94DE010C94DE01E4
:100020000C94DE010C94DE010C94DE010C94DE01D4
:100030000C94DE010C94DE010C94DE010C94DE01C4
:100040000C94DE010C94DE010C94DE010C94DE01B4
:100050000C94DE010C94DE010C94DE010C94D41699
:100060000C94DE010C9448170C941E170C94DE01BE
:100070000C94DE010C94DE010C94DE010C94DE0184
:100080000C94DE010C94DE010C94DE010C94DE0174
:100090000C94DE010C94DE010C94DE010C94DE0164
:1000A0000C94DE010C94DE010C94DE010C94DE0154
:1000B0000C94DE010C94DE010C94DE010C94DE0144
:1000C0000C94DE010C94DE010C94DE010C94DE0134
:1000D0000C94DE010C94DE010C94DE010C94DE0124
:1000E0000C94DE010C9419020C94EA060C943E0266
:1000F0000C945D0B0C94DD050C9465060C94420287
:100100000C947A100C944C020C9415020C94071663
:100110000C944E060C942F060C942B060C94A605FA
:100120000C947E170C9448020C944F030C94AD125F
:100130000C947A0C0C94180E0C9466060C946C0BB0
:100140000C94D8120C94880D0C9471030C942C0F01
:100150000C9494150C9434020C94D2050C94170949
:100160000C9433060C9430020C949D110C94580698
:100170000C94BC050C947F110C94BE100C9463037A
:100180000C94A4100C949D0D0C945A060C94830F9F
:100190000C94DE080C94FD0D0C94E4010C944A06BA
:1001A0000C9482120C945B100C9407020C94F603CE
:1001B0000C9492160C9422020C942C020C94470777
:1001C0000C9440030C9413030C9447020C94BC0849
:1001D0000C940D020C9443060C941C020C94110216
:1001E0000C9475080C9426020C945D060C94A903DB
:1001F0000C9467060C9406120C943A020C94E801D5
:100200000C9490080C94F4050000200023002600B4
:1002100029002C002F00320000010000030106011C
:10022000090100000A0B02090C0D0E080703040166
:1002300000000000000000000000000000000000BE
:10024000000000000000000000000000000012118B
:10025000100000000000000000000000000000008E
:10026000000000000000000000000000000000008E
:10027000000000000000000000002200250028000F
:100280002B002E003100340002010000050108019E
:100290000B0100002100240027002A002D0030005F
:1002A000330001010000040107010A0101021020CE
:1002B000200808102040102040800201020108049C
:1002C0000201010204081020408080402010080430
:1002D0000201800402018040201008040201080489
:1002E00002010102040810204080010204081020CD
:1002F0004080044080048008101020400408102032
:1003000040800505050507050808080802020202E5
:100310000A0A0808040404040101010101010101A1
:100320000303030303030303040707070C0C0C0C6C
:100330000C0C0C0C02020202060606060606060655
:100340000B0B0B0B0B0B0B0B050505080807070424
:1003500004040A0A0A0A0A0A7E1711241FBECFEFF4
:10036000D1E2DEBFCDBF00E00CBF14E0A0E0B2E000
:10037000E4EAFEE300E00BBF02C007900D92A83153
:10038000B107D9F725E0A8E1B4E001C01D92A43976
:10039000B207E1F711E0CDEAD1E000E006C0219715
:1003A0000109802FFE010E941C1ECC3AD10780E07B
:1003B0000807A9F70E948E180C94501F0C94000097
:1003C00008958CBD9DBD0895FC01818D928D089589
:1003D00008958150823108F05AC0E82FF0E0882754
:1003E000EB50FE4F8F4F0C941C1E15021902070292
:1003F0000D02110247021C02220226022C023002C8
:1004000034023A023E024702420248024C02809104
:1004100080008F77809380000895809180008F7D89
:10042000F9CF80918000877FF5CF84B58F7784BD29
:10043000089584B58F7DFBCF8091B0008F77809336
:10044000B00008958091B0008F7DF9CF8091900029
:100450008F77809390000895809190008F7DF9CFE1
:1004600080919000877FF5CF8091A0008F77809357
:10047000A00008958091A0008F7DF9CF8091A00009
:10048000877FF5CF809120018F7780932001089599
:10049000809120018F7DF9CF80912001877FF5CF5A
:1004A0001F93CF93DF93282F30E0F901EE5DFD4FCE
:1004B0008491F901E455FD4FD491F901EE5FFC4FB1
:1004C000C491CC23A9F0162F81110E94E901EC2FD1
:1004D000F0E0EE0FFF1FE858FD4FA591B4918FB7E4
:1004E000F894EC91111108C0D095DE23DC938FBFF6
:1004F000DF91CF911F910895DE2BF8CFCF93DF933B
:1005000090E0FC01E455FD4F24918E5F9C4FFC016F
:1005100084918823D1F090E0880F991FFC01EE565A
:10052000FD4FA591B491FC01E858FD4FC591D491C0
:1005300061110EC09FB7F8948C91E22FE0958E2345
:100540008C932881E223E8839FBFDF91CF910895A8
:100550008FB7F894EC91E22BEC938FBFF6CF3FB7B7
:10056000F8948091390490913A04A0913B04B091A1
:100570003C0426B5A89B05C02F3F19F00196A11D8C
:10058000B11D3FBFBA2FA92F982F8827BC01CD01DD
:10059000620F711D811D911D42E0660F771F881F3C
:1005A000991F4A95D1F708958F929F92AF92BF926B
:1005B000CF92DF92EF92FF926B017C010E94AF021B
:1005C0004B015C01C114D104E104F104B9F00E94B3
:1005D000AF02681979098A099B09683E7340810551
:1005E000910580F321E0C21AD108E108F10888EEF4
:1005F000880E83E0981EA11CB11CE4CFFF90EF9001
:10060000DF90CF90BF90AF909F908F9008952FB7BD
:10061000F89460913504709136048091370490917C
:1006200038042FBF0895AF92BF92CF92DF92EF921E
:10063000FF920F931F93CF93DF936C017B018B018C
:10064000040F151FEB015E01AE18BF08C017D107DC
:1006500059F06991D601ED91FC910190F081E02D66
:10066000C6011995892B79F7C501DF91CF911F91AB
:100670000F91FF90EF90DF90CF90BF90AF900895D3
:10068000FC01538D448D252F30E0842F90E0821B98
:10069000930B541710F0CF96089501970895FC011D
:1006A000918D828D981761F0A28DAE0FBF2FB11D75
:1006B0005D968C91928D9F5F9F73928F90E00895CD
:1006C0008FEF9FEF0895FC01918D828D981731F087
:1006D000828DE80FF11D858D90E008958FEF9FEFDB
:1006E0000895FC01918D228D892F90E0805C9F4FB1
:1006F000821B91098F73992708958CE894E00E94DA
:10070000710321E0892B09F420E0822F0895FC0178
:10071000A48DA80FB92FB11DA35ABF4F2C91848D62
:1007200090E001968F739927848FA689B7892C93BF
:10073000A089B1898C91837080648C93938D848D12
:10074000981306C00288F389E02D80818F7D808315
:100750000895EF92FF920F931F93CF93DF93EC01D5
:1007600081E0888F9B8D8C8D98131AC0E889F98958
:10077000808185FF15C09FB7F894EE89FF8960835B
:10078000E889F98980818370806480839FBF81E0DC
:1007900090E0DF91CF911F910F91FF90EF9008951E
:1007A000F62E0B8D10E00F5F1F4F0F731127E02EF9
:1007B0008C8D8E110CC00FB607FCFACFE889F98931
:1007C000808185FFF5CFCE010E948703F1CFEB8DAD
:1007D000EC0FFD2FF11DE35AFF4FF0829FB7F89405
:1007E0000B8FEA89FB8980818062CFCFCF93DF9323
:1007F000EC01888D8823B9F0AA89BB89E889F98939
:100800008C9185FD03C0808186FD0DC00FB607FC6D
:10081000F7CF8C9185FFF2CF808185FFEDCFCE01A0
:100820000E948703E9CFDF91CF91089580E090E0A7
:10083000892B29F00E947D0381110E94000080E035
:1008400090E0892B49F080E090E0892B29F00E940C
:10085000000081110E94000080E090E0892B49F0A7
:1008600080E090E0892B29F00E94000081110E9415
:10087000000080E090E0892B49F080E090E0892B37
:1008800029F00E94000081110C9400000895FC01E1
:1008900020812EBD9B012150310941F051810DB4C1
:1008A00007FEFDCF4EB55EBD4193F5CF6150710996
:1008B000860F971F0DB407FEFDCF2EB5FC012083D8
:1008C0000895E0918604F0918704808190918504D9
:1008D000892B80830895E0918604F09187049081AC
:1008E0008091850480958923808308958EBD0000C2
:1008F0000DB407FEFDCF8EB50895AF92BF92CF9293
:10090000DF92EF92FF920F931F93CF93DF9300D06C
:1009100000D01F921F92CDB7DEB78C017B016A0118
:10092000809189048333E1F45801A40EB51EA0160A
:10093000B10609F46FC00E946B0480EF0E94760438
:10094000812F0E947604802F0E9476040F5F1F4F34
:10095000F70181917F010E9476040E946104E7CF34
:100960005B01A40EB51E8433C1F40E946B0419838D
:100970000A838D2D80688B83CC8264E070E0CE0189
:1009800001960E944704AE14BF0409F441C0F70168
:1009900081917F010E947604F6CF0E946B040F3F85
:1009A000110509F028F419820A8384E08B830CC0B6
:1009B00017FD17C019820A8333E0169507953A95FB
:1009C000E1F7007E0C600B8386E0C816D104A0F529
:1009D000F701DE011496EA15FB0599F081918D93DC
:1009E000FACFC80126E0969587952A95E1F7807E93
:1009F00019830A830115104C10F48461D7CF8C61E0
:100A0000D5CFB6016D5F7F4FCE0101960E9447049E
:100A10000E946104C60128960FB6F894DEBF0FBE8F
:100A2000CDBFDF91CF911F910F91FF90EF90DF909D
:100A3000CF90BF90AF90089563E070E0CE01019633
:100A40000E944704F70181917F010E947604AE1451
:100A5000BF04C1F7DDCFCF93DF931F92CDB7DEB7D1
:100A6000898341E050E0BE016F5F7F4F90E080E0FE
:100A70000E947D040F90DF91CF91089590E0209126
:100A80008904233339F40C96982F990F990F990FF5
:100A900080E008954896F8CFDA01E0918A04F0E00A
:100AA000FE2FEE27E60FF71F90E0982F8827A90169
:100AB000BD018E0F9F1F0C947D04CF93DF931F9277
:100AC0001F92CDB7DEB779836A8322E030E0AE01B2
:100AD0004F5F5F4F60E170E00E944C050F900F90F8
:100AE000DF91CF910895CF93DF931F921F92CDB7DF
:100AF000DEB779836A8322E030E0AE014F5F5F4F5B
:100B000064E070E00E944C050F900F90DF91CF9150
:100B10000895CF93DF931F92CDB7DEB720918A045B
:100B200030E0322F2227260F371F90E0982F88279A
:100B3000498341E050E0BE016F5F7F4F820F931FFA
:100B40000E947D040F90DF91CF910895CF93DF93A2
:100B50001F92CDB7DEB76983DC01ED91FC91028075
:100B6000F381E02D41E050E0BE016F5F7F4F1995AA
:100B70000F90DF91CF910895CF93DF931F92CDB760
:100B8000DEB76983DC01ED91FC910280F381E02DF9
:100B900041E050E0BE016F5F7F4F19950F90DF91EC
:100BA000CF910895FC019485FB018485981303C0BF
:100BB00081E0983008F080E00895CF93DF931F9292
:100BC000CDB7DEB76983DC01ED91FC910280F38142
:100BD000E02D41E050E0BE016F5F7F4F19950F900F
:100BE000DF91CF9108950895FF920F931F93CF93B4
:100BF000DF93EB01FC01178A168A2A81211109C0B3
:100C00002B81211106C02C81211103C02D812223AB
:100C100001F141155105E9F08A01FC01F08C80E5F4
:100C200091E00E94E101AE014E5F5F4F24E030E0B1
:100C30006CE070E08F2D0E944C05B8018F2D0E9452
:100C40005D0581E090E0DF91CF911F910F91FF90C2
:100C5000089580E0F7CFFC01848595850895FC0117
:100C600084899589089526EA32E0FC013183208346
:100C7000FB014089518962897389FC014283538356
:100C8000648375830895DC01ED91FC91048CF58DEE
:100C9000E02D1994FC01768765870895DC01ED91BC
:100CA000FC9102A0F3A1E02D199591E08927089508
:100CB000862F089581E08627089521E0FC01848530
:100CC000883008F020E0822F08950895089590E07C
:100CD00080E008956F927F928F929F92AF92BF9221
:100CE000CF92DF92EF92FF920F931F93CF93DF93F8
:100CF0007C0160E081E30E94500261E081E30E9498
:100D00005002F70113821282CFE0D0E010E000E041
:100D100092E5C92E92E0D92E2CEDA22E22E0B22E21
:100D200032E3832E33E0932EF6018491F501749023
:100D3000F4016490662009F438C081110E94E90131
:100D4000E62DF0E0EE0FFF1FE85FFD4FA591B49197
:100D50008C91782231E020E009F430E0832F922F4B
:100D60000C2E02C0880F991F0A94E2F7082B192B4A
:100D700061E08EE20E94500260E08EE20E9450022A
:100D8000219790F6F7011383028380E0DF91CF91E2
:100D90001F910F91FF90EF90DF90CF90BF90AF9099
:100DA0009F908F907F906F90089590E080E0D8CFD3
:100DB00080911C0481110BC0109218041092190428
:100DC00010921B0410921A0481E080931C0488E1A5
:100DD00094E008950C94C01EFB0101900020E9F7F7
:100DE0003197AF01461B570BDC01ED91FC9102805E
:100DF000F381E02D19948F929F92AF92BF92EF9260
:100E0000FF920F931F93CF93DF93CDB7DEB7A197D8
:100E10000FB6F894DEBF0FBECDBF7C01FA01CB0147
:100E200019A2223008F42AE08E010F5D1F4F822E96
:100E3000912CB12CA12CBF01A50194010E94EB1DA6
:100E4000F901CA016A300CF5605DD8016E938D011D
:100E5000232B242B252B79F790E080E0109721F0AD
:100E6000BD01C7010E94EC06A1960FB6F894DEBF43
:100E70000FBECDBFDF91CF911F910F91FF90EF90EB
:100E8000BF90AF909F908F900895695CDECF8F9256
:100E90009F92AF92BF92CF92DF92EF92FF920F9309
:100EA0001F93CF93DF937C01EB016C0182E0C80EAE
:100EB000D11C4701E5E08E0E911C10E000E0F60128
:100EC00041916F0150E070E060E02AE0CE010E94A5
:100ED000FB065C01E881F9810190F081E02D6EE272
:100EE000CE0119958A0D9B1D080F191FC814D9042E
:100EF00031F7F701458150E070E060E02AE0CE0173
:100F00000E94FB06800F911FDF91CF911F910F91DF
:100F1000FF90EF90DF90CF90BF90AF909F908F9019
:100F200008950F931F93CF93DF93EC010E94EC067B
:100F30008C0168EA72E0CE010E94EC06800F911FDE
:100F4000DF91CF911F910F910895AF92BF92CF92F1
:100F5000DF92EF92FF920F931F93CF93DF9300D016
:100F60001F92CDB7DEB78C016B017A0180918904A5
:100F70008333E9F45B016801C40ED51EC016D106A7
:100F8000A9F10E946B048FE00E947604812F0E94D9
:100F90007604802F0E9476040F5F1F4F80E00E942E
:100FA0007604F50181935F010E946104E7CF8433E9
:100FB00069F50E946B0419830A838F2D8F778B83C9
:100FC000EC8264E070E0CE0101960E944704A70124
:100FD00070E060E0C6010E94491FE114F10421F0B5
:100FE000B701C6010E9447040E946104C7010F9027
:100FF0000F900F900F90DF91CF911F910F91FF9065
:10100000EF90DF90CF90BF90AF9008950E946B0457
:101010000F3F110509F030F419820A831B8263E047
:1010200070E0D1CF17FD0BC019820A8333E016950B
:1010300007953A95E1F7007E08600B83F0CFC80171
:1010400026E0969587952A95E1F7807E19830A8395
:101050000115104C18F480618B83E1CF8861FCCFBF
:10106000CF93DF931F92CDB7DEB720918A0430E093
:10107000322F2227260F371F90E0982F882741E034
:1010800050E0BE016F5F7F4F820F931F0E94A50744
:1010900089810F90DF91CF910895CF93C82F462F6C
:1010A00061E070E00E94890561E070E08C2F0E9491
:1010B00030088111F9CFCF910895CF93C82F80E5E3
:1010C00091E00E94E10168E070E08C2FCF910C94D8
:1010D0004D08CF93C82F80E591E00E94E10160E1C7
:1010E00070E08C2FCF910C944D08CF93DF93EC01DF
:1010F000888D883020F40E94690888E0888FDF910D
:10110000CF91089563E070E00C943008CF93C82F1E
:1011100080E591E00E94E1018C2FCF910C94820830
:10112000EF92FF920F931F93CF93DF937C018091F7
:101130008904D4E0833309F0D8E005E714E0C0E087
:10114000F801219131918F01F70184819581281750
:10115000390729F0CF5FDC13F3CF80E006C08C2F76
:101160000E9486088431B1F781E0DF91CF911F9111
:101170000F91FF90EF900895CF93DF93EC018C8552
:101180008830D0F40E948608843189F0882379F071
:10119000883169F021E08C3159F4E881F9810084CB
:1011A000F185E02DCE01199521E0892B09F420E08D
:1011B000822FDF91CF91089580E0FBCFCF92DF9215
:1011C000EF92FF92CF93DF93EC018C85883068F427
:1011D0000E945D080E9407036B017C018C850E94C0
:1011E0008608811109C088E08C87DF91CF91FF903C
:1011F000EF90DF90CF90089561E070E080E090E0A4
:101200000E94D4020E940703AB01BC014C195D0986
:101210006E097F098D859E85B0E0A0E048175907CB
:101220006A077B07D8F28C850E946908DCCFCF93D0
:10123000FC01C08D80E591E00E94E10160E270E078
:101240008C2F0E944D0862E070E08C2F0E943008C5
:1012500084FD16C062E070E08C2F0E94300883FF8E
:101260000AC048E162E070E08C2F0E94890580E0AE
:1012700090E0CF91089580E591E00E94E101E3CFF5
:1012800040E162E070E08C2F0E94890581E0F0CFA0
:10129000CF93DF931F92CDB7DEB741E050E0BE01A0
:1012A0006F5F7F4F90E080E00E94A50789810F90DB
:1012B000DF91CF910895CF93DF93C4E1D0E00E94F6
:1012C0004809882361F061E070E080E090E00E94CE
:1012D000D4022197A1F780E0DF91CF91089581E0BA
:1012E000FBCFCF92DF92EF92FF920F931F93CF939A
:1012F000DF93CDB7DEB7C454D1090FB6F894DEBF83
:101300000FBECDBFFC0182819381A481B58123965C
:101310008CAF9DAFAEAFBFAF239721E023962FAF29
:10132000239723964CAD5DAD6EAD7FAD23974BAB50
:101330005CAB6DAB7EAB89AF9AAFABAFBCAF8DA7EB
:101340009EA7AFA7B8AB28AB4DA55EA56FA578A9A2
:101350004FA358A769A77AA72EAB4BA95CA96DA983
:101360007EA949A35AA36BA37CA38B8F9C8FAD8FBF
:10137000BE8F46EA52E05C8B4B8B3FEF3D8B3E8B42
:101380003F8B188E5E874D872AA7CFA0D8A4E9A4EB
:10139000FAA4CF86D88AE98AFA8A2CA309A11AA1CD
:1013A0002BA13CA109871A872B873C875A83498345
:1013B0008B839C83AD83BE8380918B048111A2C0FB
:1013C00060E372E080E090E00E94D4021FB7F894DE
:1013D00080918804811127C0E7E3F3E08491E1EE76
:1013E000F2E09491E82FF0E0EE0FFF1FEE56FD4F74
:1013F000A591B491EC91E92321F461E085E30E9489
:10140000500261E085E30E947E028CB580618CBD54
:101410008CB580648CBD61E084E30E947E0261E053
:1014200083E30E947E02809188048F5F809388040A
:101430001FBF80910202282F30E0F901EE5FFC4FC0
:10144000E491F0E0EE0FFF1FE858FD4F45915491F5
:101450005093870440938604F901E455FD4FE491CD
:10146000E093850461E00E947E020E94610480E5B1
:1014700091E00E94E10184E38093890480E80E9466
:101480002B050E945B09882309F472C088E00E9442
:101490002B050E944809883009F06AC080E10E944B
:1014A0002B050E944809803109F062C080E00E944B
:1014B0002B050E944809182F81115AC041E050E0C5
:1014C000BE016D5B7F4F8FE190E00E94A5072496DF
:1014D0008FAD2497833009F04BC080E480938A0459
:1014E00042E06EE170E0812F0E94890542E06FE1E9
:1014F00070E0812F0E9489051F5F183089F781E015
:1015000080938B0480E591E00E94E10146E050E089
:1015100063E072E089E090E00E947D0444E050E0E6
:10152000BE016D5F7F4F8FE090E00E947D0444E03C
:1015300050E0BE01615F7F4F81E090E00E947D043A
:1015400044E050E0BE016B5E7F4F85E090E00E947A
:101550007D0481E08C8789859A85AB85BC858093E5
:10156000490590934A05A0934B05B0934C056FC075
:1015700087E38093890480E80E942B050E945B0921
:10158000882339F188E00E942B050E9448098830A1
:1015900001F580E10E942B050E944809182F803137
:1015A000C1F480E00E942B050E944809811111C0FE
:1015B00041E050E0BE016D5B7F4F89E390E00E9407
:1015C000A50724968FAD2497843019F410938A04CC
:1015D00096CF83E38093890480E80E942B050E94C4
:1015E0005B09882391F180E10E942B050E94480944
:1015F000803159F582E10E942B050E944809823111
:1016000021F580E00E942B050E94480981111DC030
:1016100084E080938A0415E525961FAF259741E065
:1016200050E0BE016C5B7F4F8BE190E00E947D0437
:1016300024961FAF249741E050E0BE016D5B7F4FC1
:101640008AE190E00E947D045ACF10928904CC5B1D
:10165000DF4F0FB6F894DEBF0FBECDBFDF91CF9145
:101660001F910F91FF90EF90DF90CF9008951F93FF
:10167000CF93DF931F92CDB7DEB7182F80E591E0AF
:101680000E94E101812F0E943E0527E0129FF00198
:101690001124E35CFB4F22813381377041E050E03D
:1016A000BE016F5F7F4F820F931F0E94A507898144
:1016B0000F90DF91CF911F910895FC01808D8830AC
:1016C00040F4218D328D232B21F00E94370B90E0C6
:1016D00008958FEF9FEF0895CF93DF93FC0124854A
:1016E000283028F08FEF9FEFDF91CF910895EC0124
:1016F0000190F081E02D0084F185E02D1995892B72
:1017000089F38C850E94370B90E0EECFDA01E091EF
:101710008A04F0E0FE2FEE27E60FF71F90E0982FE7
:101720008827A901BD018E0F9F1F0C94A5078F92DA
:101730009F92AF92BF92CF92DF92EF92FF920F9360
:101740001F93CF93DF93CDB7DEB760970FB6F894B2
:10175000DEBF0FBECDBF7C0190918904911115C0F1
:1017600018E0812F60960FB6F894DEBF0FBECDBF94
:10177000DF91CF911F910F91FF90EF90DF90CF906D
:10178000BF90AF909F908F90089508E0933309F435
:1017900004E06B0180E591E00E94E1019E012F5F72
:1017A0003F4F5901490110E0812F0E948208F40146
:1017B00081934F018823C1F01F5F0113F5CF00E033
:1017C000F50181915F018D3149F0883139F08A51FD
:1017D000823020F00F5F1013F3CFC2CF60E170E0D2
:1017E000802F0E944D08102FA12EB12CF501EE0F75
:1017F000FF1FEB58FB4F1182108283EE93E001979D
:10180000F1F742E870E060E0812F0E9489054FEF18
:1018100062E070E0812F0E948905B601C114D104F5
:1018200091F4809100029091010201968115F0ECF3
:101830009F0708F45CC090930102809300026091BE
:10184000000270910102812F0E94730586E0EFE093
:10185000F2E0DE01199601900D928A95E1F7F70109
:1018600083818F778C8784818D8785818E87A7017F
:101870004E5F5F4F24E030E06CE070E0812F0E940B
:101880004C05B601812F0E945D0526E030E0AE01D7
:10189000475F5F4F66E070E0812F0E944C0561E07A
:1018A00070E0812F0E944D0827E02A9DC0012B9DEA
:1018B000900D11249C01235C3B4F7901F9011182A9
:1018C000108222E030E0AE01415F5F4F68E270E0DD
:1018D000812F0E94860B8F859889982789279827C2
:1018E000F701938382831682158214823ACF80E0B7
:1018F00090ECA1CFCF92DF92EF92FF920F931F93C4
:10190000CF93DF9300D000D0CDB7DEB78C016B0151
:101910007A01FC01808D883010F40E94690886EA03
:1019200092E09A838983F60182819381A481B581B3
:101930008B839C83AD83BE83B701CE0101960E9449
:10194000970BF801808F8830A0F4F586E486128E1C
:10195000118E81E026960FB6F894DEBF0FBECDBF84
:10196000DF91CF911F910F91FF90EF90DF90CF907B
:10197000089580E0EFCF7F928F929F92AF92BF92B7
:10198000CF92DF92EF92FF920F931F93CF93DF934B
:101990001F921F92CDB7DEB7782E8B014A015901F5
:1019A00022E030E0AE014F5F5F4F64E270E00E94E2
:1019B000860BE980FA80FE24EF24FE24E00EF11E5F
:1019C0009701377040918904072D10E0433309F0E7
:1019D00042C0085F1F4F102F0027110F110F110F6A
:1019E000C901800F911F4733C9F1A9014A0D5B1D41
:1019F0004130584098F160E078E06B01C21AD30A98
:101A0000A601B4010E947D04A5014C195D09B40131
:101A10006C0D7D1DC8010E947D04EA0CFB1CF9823F
:101A2000EA8222E030E0AE014F5F5F4F64E270E097
:101A3000872D0E944C050F900F90DF91CF911F9141
:101A40000F91FF90EF90DF90CF90BF90AF909F905D
:101A50008F907F900895005F1F4FBDCFA501B40107
:101A6000DACFEF92FF921F93CF93DF931F921F92D3
:101A7000CDB7DEB7182F22E030E0AE014F5F5F4FE9
:101A800060E270E00E94860BE980FA80FE24EF2479
:101A9000FE2422E030E0AE014F5F5F4F60E270E075
:101AA000812F0E94860B89819A8198278927982700
:101AB000E816F90689F487E0189FF0011124E35C29
:101AC000FB4FF582E482C7010F900F90DF91CF9119
:101AD0001F91FF90EF9008957C01DBCF1F93CF9370
:101AE000DF93182F80E591E00E94E101812F0E9491
:101AF000310DEC01812F0E948208873121F08C3159
:101B000011F0D0E0C0E0CE01DF91CF911F91089598
:101B1000CF93DF93EC018C85883060F40E948608B7
:101B2000873111F08C3131F48C850E946E0D811556
:101B3000984088F3DF91CF910895FC018485883027
:101B400010F40C946E0D90E080E00895CF92DF9237
:101B5000EF92FF921F93CF93DF93182F7B01EA013F
:101B60004130584010F0C0E0D8E080E591E00E949C
:101B7000E101812F0E94310D6C01812F0E948208AA
:101B8000873111F08C3121F5CC16DD0670F380E53C
:101B900091E00E94E1019E01A70170E060E0812FC9
:101BA0000E94BB0C60E270E0812F0E944D0862E051
:101BB00070E0812F0E94300884FD0DC0812F0E94AB
:101BC00082088823B9F080E591E00E94E101EFCF1F
:101BD000D0E0C0E0DCCF40E162E070E0812F0E9405
:101BE0008905CE01DF91CF911F91FF90EF90DF909B
:101BF000CF900895D0E0C0E0F4CF0F931F93CF9320
:101C0000DF938C01EA01FC018485883048F40E944E
:101C1000A60D892B39F481E090E0F801938382834B
:101C2000D0E0C0E0CE01DF91CF911F910F910895D8
:101C30009F92AF92BF92CF92DF92EF92FF920F935B
:101C40001F93CF93DF938C015B01942EE52EFC0153
:101C5000C688D788F08C80E591E00E94E1018F2D45
:101C60000E94310DC92DDE2D8C179D0708F4EC0163
:101C70009E01A501B6018F2D0E94BB0CF80186893B
:101C800097898C0F9D1F978B868BCE01DF91CF910B
:101C90001F910F91FF90EF90DF90CF90BF90AF908A
:101CA0009F900895FF920F931F93CF93DF931F92FE
:101CB0001F92CDB7DEB7F82E22E030E0AE014F5FC5
:101CC0005F4F66E270E00E94860B09811A8110273F
:101CD0000127102722E030E0AE014F5F5F4F66E240
:101CE00070E08F2D0E94860B89819A819827892721
:101CF00098270817190749F4C8010F900F90DF9132
:101D0000CF911F910F91FF9008958C01E3CF1F9306
:101D1000CF93DF93182F87E0189FE0011124C35C55
:101D2000DB4F88819981009761F480E591E00E9402
:101D3000E101812F0E94520E2E81821B910999830D
:101D40008883DF91CF911F9108959F92AF92BF92A8
:101D5000CF92DF92EF92FF920F931F93CF93DF9377
:101D6000EC017B0180918904811121C01B821A82C0
:101D700088EE93E0A0E0B0E08C839D83AE83BF83C8
:101D800084E692E09983888388E08C8788EE93E0EC
:101D90009E878D87CE01DF91CF911F910F91FF908C
:101DA000EF90DF90CF90BF90AF909F90089534E078
:101DB000932E833311F028E0922E85E7C82E84E01D
:101DC000D82E10E098E0B92EA12CD6012D913D918E
:101DD0006D01F701848195812817390791F4812FCE
:101DE0000E948608082F873111F08C3139F5812F38
:101DF0000E94870E892B59F50C3119F4812F0E940E
:101E00005D081F5F9112E1CFA11008C0D701ED91CD
:101E1000FC910084F185E02DC70119951B821A827F
:101E200088EE93E0A0E0B0E08C839D83AE83BF8317
:101E300084E692E099838883BC86A8CF843149F0F8
:101E40008111DFCFF601329711821082DACFB12EE5
:101E5000D8CFAA24A394D5CF8F929F92AF92BF924E
:101E6000CF92DF92EF92FF920F931F93CF93DF9366
:101E7000CDB7DEB72F970FB6F894DEBF0FBECDBF3C
:101E80005C014B017A01809189048823C9F104E047
:101E9000833309F008E0B501CE0101960E94A50E3A
:101EA00085E7C82E84E0D82E10E0F601219131910B
:101EB0006F01F501848195812817390751F4812F2D
:101EC0000E948608873129F4A701B401812F0E945E
:101ED000A60D1F5F0113E9CFC7012F960FB6F89427
:101EE000DEBF0FBECDBFDF91CF911F910F91FF904D
:101EF000EF90DF90CF90BF90AF909F908F9008951C
:101F0000F12CE12CE9CFFC018485883010F40C948D
:101F1000870E90E080E008954F925F927F928F92BB
:101F20009F92AF92BF92CF92DF92EF92FF920F9368
:101F30001F93CF93DF931F921F92CDB7DEB7782EFA
:101F40006B014A01A82EB12C27E0829FC001112409
:101F5000FC01E35CFB4F7F010081118180E591E092
:101F60000E94E1010815190554F4872D0E94520EB4
:101F7000F70126818C01021B1109118300830115D1
:101F8000110519F5872D0E948208843159F08823A4
:101F900049F001E010E08C3111F410E000E01195FF
:101FA00001951109C8010F900F90DF91CF911F91FA
:101FB0000F91FF90EF90DF90CF90BF90AF909F90E8
:101FC0008F907F905F904F900895801691060CF44B
:101FD000840187E08A9DF0018B9DF00D1124E35C64
:101FE000FB4FE280F380C114D10451F12701F7E0E7
:101FF0005F22872D0E943E05840D951D2091890446
:10200000273309F453C09801240D351D2130384081
:1020100008F44CC020E038E0490184189508A40178
:10202000B6010E94A5072601480C591C6801C81872
:10203000D908872D0E943E05A601B2010E94A5077E
:10204000E00EF11E87E08A9DF0018B9DF00D1124BA
:10205000E35CFB4FF382E28220813181201B310B54
:10206000318320838681800F912F911D8A3F9105B6
:1020700010F4232BF1F487E08A9DF0018B9DF00D85
:102080001124E35CFB4F1682F982EA8222E030E001
:10209000AE014F5F5F4F68E270E0872D0E944C05F4
:1020A00060E470E0872D0E944D087CCFA801B60146
:1020B000C5CF868377CFCF93DF93FC01218D328DFF
:1020C0002115310529F48FEF9FEFDF91CF9108950E
:1020D000EC01808D4217530708F0A9010E948C0F74
:1020E0001816190684F7298D3A8D281B390B3A8F5B
:1020F000298FEBCF0F931F93CF93DF931F92CDB711
:10210000DEB7FC01218D328D232B41F48FEF9FEF41
:102110000F90DF91CF911F910F9108958C0141E0B5
:1021200050E0BE016F5F7F4FFC01808D0E948C0FDD
:10213000181619065CF7F801818D928D0197928F20
:10214000818F898190E0E4CFCF93DF931F92CDB749
:10215000DEB741E050E0BE016F5F7F4FFC01848538
:102160000E948C0F1816190634F4898190E00F90A4
:10217000DF91CF9108958FEF9FEFF9CFFC01848518
:10218000883010F40C948C0F90E080E008958F92CA
:102190009F92AF92BF92CF92DF92EF92FF920F93F6
:1021A0001F93CF93DF9300D000D000D01F92CDB704
:1021B000DEB790918904911115C018E0812F2A96FD
:1021C0000FB6F894DEBF0FBECDBFDF91CF911F9148
:1021D0000F91FF90EF90DF90CF90BF90AF909F90C6
:1021E0008F90089528E0F22E933311F494E0F92EA5
:1021F0006B01082F80E591E00E94E1019E012F5FB5
:102200003F4F5901490110E0812F0E948208F401DB
:1022100081934F018823C1F01F5FF112F5CFF12C9C
:10222000F50191915F019D3149F0983139F09A5152
:10223000923020F0F3941F11F3CFBFCF60E170E034
:102240008F2D0E944D081F2DE12EF12CF701EE0F6E
:10225000FF1FEB58FB4F1182108283EE93E0019732
:10226000F1F7402F70E060E0812F0E9489054FEF69
:1022700062E070E0812F0E948905B601CD2889F4C3
:10228000809100029091010201968115F0EC9F0768
:1022900098F1909301028093000260910002709186
:1022A0000102812F0E94730561E070E0812F0E947E
:1022B0004D0827E02E9DC0012F9D900D11249C01FB
:1022C000235C3B4F7901F9011182108222E030E05A
:1022D000AE01475F5F4F68E270E0812F0E94860B7E
:1022E00089859A85982789279827F7019383828380
:1022F00016821582148262CF80E090ECCACF0F93D1
:102300001F93CF93DF93EC018B01888D883010F4FD
:102310000E946908B80182E00E94C710888F883047
:1023200050F41D870C871A8E198E81E0DF91CF91B2
:102330001F910F91089580E0F9CF0F931F93CF93D2
:102340008C01FC016481758181E20E94C710C82F55
:102350008830F8F480E591E00E94E1018C2F0E9422
:102360008208833131F08C2FCF911F910F910C9403
:102370005D0862E070E08C2F0E944D08F8018481B6
:102380009581EC2FF0E0EE0FFF1FEB58FB4F918390
:102390008083CF911F910F910895EF92FF920F9339
:1023A0001F93CF93DF9300D000D0CDB7DEB78C0161
:1023B0007B016BEA72E08CE894E00E94910786EA68
:1023C00092E09A838983F70182819381A481B58108
:1023D0008B839C83AD83BE83CE0101960E947109DD
:1023E000C8010E949D1165EB72E08CE894E00E94A8
:1023F000910726960FB6F894DEBF0FBECDBFDF91D2
:10240000CF911F910F91FF90EF900895CF92DF929F
:10241000EF92FF921F93CF93DF93EC017B016A0150
:102420008C85883048F40E948608882319F08C85B2
:102430000E945D0888E08C87F70182819381A481E6
:10244000B5810097A105B10551F490E080E0DF91DE
:10245000CF911F91FF90EF90DF90CF9008958F3F25
:102460009F4FAF4FBF4F89F370E060E081E20E9461
:10247000C710182F8C87883040F780E591E00E94C4
:10248000E101A7014E5F5F4F24E030E06CE070E0B7
:10249000812F0E944C05B601812F0E945D0564E0EA
:1024A00070E0812F0E944D080E9407036B017C01A0
:1024B0008C850E948608873111F18C3101F18823C7
:1024C00021F20E940703AB01BC014C195D096E09A2
:1024D0007F098D859E85B0E0A0E084179507A6074B
:1024E000B70738F061E070E080E090E00E94D4022D
:1024F000DFCF8C850E94690888E08C87A6CF81E0B9
:1025000090E0A5CF0F931F93CF93DF931F921F925D
:10251000CDB7DEB7FC0124852830E0F48C0180E5DE
:1025200091E00E94E10122E030E0AE014F5F5F4F99
:1025300060E170E0F80184850E94860B89819A81B0
:102540009827892798270F900F90DF91CF911F919F
:102550000F91089590E080E0F6CF0F931F93CF93F3
:10256000DF931F921F92CDB7DEB7FC012485283080
:10257000E0F48C0180E591E00E94E10122E030E08E
:10258000AE014F5F5F4F64E070E0F80184850E9408
:10259000860B89819A819827892798270F900F9019
:1025A000DF91CF911F910F91089590E080E0F6CFD9
:1025B0000F931F93CF93DF9300D000D01F921F92F1
:1025C000CDB7DEB78C01D80159964D915C915A97E1
:1025D0004115510551F0ED91FC91048CF58DE02DE4
:1025E00070E060E0C8011995EECFF801808D0E947F
:1025F000870E892BB1F148E050E0BE016F5F7F4F3D
:10260000D80158968C910E948C0F18161906F4F474
:10261000D801509684E0FE01319601900D928A9582
:10262000E1F78D8190E0982F88272E81820F911DF0
:10263000F801958B848B8F81282F30E0322F222751
:102640008885820F932F911D928F818F28960FB6C8
:10265000F894DEBF0FBECDBFDF91CF911F910F91D8
:10266000089590E080E0F2CF4F925F926F927F9258
:102670008F929F92AF92BF92CF92DF92EF92FF9292
:102680000F931F93CF93DF93CDB7DEB763970FB64A
:10269000F894DEBF0FBECDBF7C016B013A01FB0198
:1026A00020E090E080E06AE03191332309F461C0DA
:1026B00040ED430F4A3008F04DC0689FA001699F6C
:1026C000500D1124CA01C097830F911D37FD9A95B3
:1026D0008F3F910549F340F3F701428153816481B3
:1026E00075818091550590915605A0915705B0913F
:1026F0005805481759076A077B0709F40DC2870177
:10270000085F1F4F0E9407036F7077277C5FC80127
:102710000E947F11813009F004C286EA92E09A8318
:102720008983F70182819381A481B5818B839C8306
:10273000AD83BE8345E350E0BE016F5F7F4FC801AC
:102740000E94F405892BA9F5D12CC12CC8010E9447
:10275000750817C03E3209F0BFCF233009F4BCCF53
:10276000D301A20FB11D12968C932F5F90E080E0F1
:102770009BCF233009F0B0CFF3018583CC24C394E1
:10278000D12CC60163960FB6F894DEBF0FBECDBF45
:10279000DF91CF911F910F91FF90EF90DF90CF903D
:1027A000BF90AF909F908F907F906F905F904F9071
:1027B00008950E940703F7017783668342E050E0A3
:1027C000B7016A5F7F4FC8010E94180E81E090E058
:1027D0009A83898342E050E0BE016F5F7F4FC8015A
:1027E0000E94180E80E091E09A83898342E050E0D5
:1027F000BE016F5F7F4FC8010E94180E1A821982B6
:1028000042E050E0BE016F5F7F4FC8010E94180E8A
:1028100042E050E0BE016F5F7F4FC8010E94180E7A
:1028200042E050E0BE016F5F7F4FC8010E94180E6A
:102830005601F6018081882301F16501F60181913D
:102840002F01882311F08E32B1F446018A189B08BB
:102850001814190474F48D8641E050E0BE01635FE2
:102860007F4FC8010E94180EA401B501C8010E9443
:10287000180E5201DECF6201E1CF1D8641E050E02B
:10288000BE01635F7F4FC8010E94180EC12CDD247A
:10289000D394DA82C98242E050E0BE016F5F7F4F7D
:1028A000C8010E94180EDA82C98242E050E0BE01DF
:1028B0006F5F7F4FC8010E94180EC8010E94170960
:1028C000892B09F441CFF3E0AF2EB12C230122E094
:1028D000420E511CD4C0F70142815381648175813D
:1028E000808D918DA28DB38D481759076A077B079C
:1028F00009F008C1848D958DC59709F003C181A1A8
:1029000092A15DEFC52EDD24DA940C970CF4ADC0D6
:102910004CE050E0BE016F5F7F4FC8010E945B102A
:102920008B819C819827892798279A8B898BF7011F
:102930004681578129813A814217530709F0E7C040
:1029400097FFE5C08F7092703BEFC32EDD24DA94C1
:10295000892B09F08AC06F807884762467247624D6
:102960002AEFC22EDD24DA946114710409F47DC0CB
:10297000D12CC12C8D819E81982789279827C81634
:10298000D906F8F441E050E0BE01635F7F4FC80113
:102990000E945B104D85442331F050E070E060E010
:1029A000C8010E945B108D858111ECCF44E050E09E
:1029B00070E060E0C8010E945B10FFEFCF1ADF0AF1
:1029C000D9CF912C812C41E050E0BE016D5E7F4F4C
:1029D000C8010E945B104B89842F807C09F06CC079
:1029E000442331F050E070E060E0C8010E945B10C9
:1029F0008B898111E8CF42E050E0BE01615F7F4FDB
:102A0000C8010E945B1042E050E0BE01635F7F4F4F
:102A1000C8010E945B1044E050E070E060E0C80133
:102A20000E945B1042E050E0BE016F5E7F4FC80124
:102A30000E945B108F85988949895A898115914038
:102A400009F043C0CD84DE84DC24CD24DC2481E085
:102A5000C816D104D1F54115544009F04AC044E0EC
:102A600050E0B201C8010E945B1021E0A21AB10837
:102A700009F46CCEFFEFCF16DF0609F067CE0E9497
:102A800007033B014C01C8010E94D8121816190611
:102A90000CF421CF0E940703661977098809990968
:102AA000693873418105910548F562E370E080E083
:102AB00090E00E94D402E7CF41E050E070E060E097
:102AC000C8010E945B101B8A93CF542745275427C7
:102AD00070E060E0C8010E945B10FFEF8F1A9F0A50
:102AE0006814790409F06FCF96EFC92EDD24DA94CB
:102AF000BCCFE7EFCE2EDD24DA94B7CFCC24CA9436
:102B0000DC2CB3CF6EEFC62EDD24DA94AECF4CEFC3
:102B1000C42EDD24DA94A9CF8EEFC82EDD24DA94FA
:102B200030CED12CC12C2DCECF92DF92EF92FF92DE
:102B30000F931F93CF93DF93CDB7DEB7AF970FB649
:102B4000F894DEBF0FBECDBF7C016A0106EA12E039
:102B50001A8309831C861B8688EE93E0A0E0B0E010
:102B60008D879E87AF87B88B89E192E09A878987A6
:102B7000188F0F8B198E1A8E1B8E1C8E88E089A3DE
:102B80001BA70AA71CA61DA61EA61FA68091490565
:102B900090914A05A0914B05B0914C058EA39FA33F
:102BA000A8A7B9A78B839C83AD83BE8318861F8299
:102BB000AE01465D5F4FCE0101960E943413813015
:102BC0009105B1F4D701ED91FC910488F589E02DD0
:102BD0001DA30CA38CA59DA5AEA5BFA58EA39FA3E9
:102BE000A8A7B9A7A601BE016C5D7F4FC7011995C3
:102BF000AF960FB6F894DEBF0FBECDBFDF91CF9179
:102C00001F910F91FF90EF90DF90CF900895CF929A
:102C1000DF92EF92FF920F931F93CF93DF93CDB785
:102C2000DEB7AF970FB6F894DEBF0FBECDBF8C01F5
:102C30006B017A0186EA92E09A8389831B821C8267
:102C40001D821E821C861B8648EE53E060E070E009
:102C50004D875E876F87788B29E132E03A87298735
:102C6000988F8F8B198E1A8E1B8E1C8E28E029A3AD
:102C70009BA78AA71CA61DA61EA61FA6D8011C9648
:102C80008C91883060F40E948608882321F0F80136
:102C900084850E945D0888E0D8011C968C93809101
:102CA000490590914A05A0914B05B0914C058EA322
:102CB0009FA3A8A7B9A78B839C83AD83BE831886E7
:102CC0001F82AE01465D5F4FB601CE0101960E94A4
:102CD00034130097C1F0D801ED91FC910684F7857B
:102CE000E02D86EA92E09DA38CA38CA59DA5AEA5C0
:102CF000BFA58EA39FA3A8A7B9A7A701BE016C5D1E
:102D00007F4FC8011995AF960FB6F894DEBF0FBE7E
:102D1000CDBFDF91CF911F910F91FF90EF90DF908A
:102D2000CF900895EF92FF920F931F93CF93DF936D
:102D300000D01F92CDB7DEB78C017B01FB018485EB
:102D40008830A8F086EA92E0F801918380831282AD
:102D5000138214821582C8010F900F900F900F906C
:102D6000DF91CF911F910F91FF90EF90089580E533
:102D700091E00E94E10124E030E0AE014F5F5F4F3F
:102D80006CE070E0F70184850E94860B86EA92E091
:102D9000F8019183808389819A81AB81BC81828390
:102DA0009383A483B583D7CF1F920F920FB60F9250
:102DB00011242F933F938F939F93AF93BF93809151
:102DC000350490913604A0913704B09138043091C5
:102DD000340423E0230F2D3758F50196A11DB11DB2
:102DE000209334048093350490933604A0933704E1
:102DF000B09338048091390490913A04A0913B0437
:102E0000B0913C040196A11DB11D809339049093AB
:102E10003A04A0933B04B0933C04BF91AF919F91BF
:102E20008F913F912F910F900FBE0F901F9018958B
:102E300026E8230F0296A11DB11DD2CF1F920F923B
:102E40000FB60F9211240BB60F922F933F934F930F
:102E50005F936F937F938F939F93AF93BF93EF9302
:102E6000FF938CE894E00E948703FF91EF91BF915C
:102E7000AF919F918F917F916F915F914F913F9112
:102E80002F910F900BBE0F900FBE0F901F901895B3
:102E90001F920F920FB60F9211240BB60F922F9321
:102EA0008F939F93EF93FF93E0919C04F0919D0487
:102EB0008081E091A204F091A30482FD1DC0908165
:102EC0008091A5048F5F8F732091A604821741F033
:102ED000E091A504F0E0E457FB4F958F8093A504A3
:102EE000FF91EF919F918F912F910F900BBE0F90BB
:102EF0000FBE0F901F9018958081F2CF10928F0413
:102F000010928E0448EE53E060E070E0409390042D
:102F100050939104609392047093930482E592E03D
:102F200090938D0480938C0485EC90E090939904A9
:102F30008093980484EC90E090939B0480939A048F
:102F400080EC90E090939D0480939C0481EC90E051
:102F500090939F0480939E0482EC90E09093A10450
:102F60008093A00486EC90E09093A3048093A20445
:102F70001092A5041092A6041092A7041092A8041F
:102F800086EA92E090932A058093290510922B05FA
:102F900010922C0510922D0510922E05909330055D
:102FA00080932F051092310510923205109233054F
:102FB00010923405909336058093350510923705AD
:102FC000109238051092390510923A0590933C05FD
:102FD00080933B0510923D0510923E0510923F05EF
:102FE000109240059093420580934105109243054D
:102FF00010924405109245051092460590934E0597
:1030000080934D0510924F05109250051092510576
:1030100010925205909348058093470510924905F8
:1030200010924A0510924B0510924C05909354054E
:10303000809353051092550510925605109257052E
:103040001092580590935A058093590510925B058C
:1030500010925C0510925D0510925E0590936005DC
:1030600080935F05109261051092620510926305CE
:103070001092640590938B0580938A0510928C05BD
:1030800010928D0510928E0510928F0590938505F4
:103090008093840580EC8093860588EA8093870579
:1030A000109288058DE88093890580917A058111B9
:1030B0002EC0109268051092670586E992E0909301
:1030C00066058093650586EF91E090936A0580938D
:1030D000690510926E0510926D0540936F0550932F
:1030E0007005609371057093720584E692E0909389
:1030F0006C0580936B0588E08093770588EE93E0FC
:10310000909379058093780581E080937A0585E630
:1031100095E090938305809382050895CF93DF9384
:10312000CDB7DEB7C057D1090FB6F894DEBF0FBEDA
:10313000CDBF789484B5826084BD84B5816084BD40
:1031400085B5826085BD85B5816085BD80916E0045
:10315000816080936E001092810080918100826076
:1031600080938100809181008160809381008091B3
:1031700080008160809380008091B10084608093A2
:10318000B1008091B00081608093B0008091910087
:103190008260809391008091910081608093910082
:1031A000809190008160809390008091A100826066
:1031B0008093A1008091A10081608093A100809103
:1031C000A00081608093A0008091210182608093A3
:1031D0002101809121018160809321018091200152
:1031E00081608093200180917A00846080937A00CE
:1031F00080917A00826080937A0080917A00816069
:1032000080937A0080917A00806880937A0010928F
:10321000C100E0919C04F0919D0482E08083E091E4
:103220009804F09199041082E0919A04F0919B0423
:1032300080E180831092A404E091A004F091A104A5
:1032400086E08083E0919E04F0919F0480818061FC
:103250008083E0919E04F0919F0480818860808348
:10326000E0919E04F0919F04808180688083E091CA
:103270009E04F0919F0480818F7D808385E38093FD
:103280000202809182059091830526EA32E03A831A
:10329000298340918605509187056091880570913A
:1032A00089054B835C836D837E83BE016F5F7F4F97
:1032B0000E94CD1167EC72E08CE894E00E949107C7
:1032C00063ED72E08CE894E00E94EC066CE874E038
:1032D00084E895E00E94470768EA72E08CE894E091
:1032E0000E94EC060E94D80661E081E30E947E0203
:1032F00060E080E30E947E0261E08EE20E947E0236
:1033000061E080E10E947E0260E08EE20E94500255
:1033100061E081E30E94500260E080E10E9450027F
:1033200068ED72E08CE894E00E9491070FE312E0F0
:10333000D801FD908D0161E08F2D0E947E0260E03A
:103340008F2D0E945002B2E006341B0789F76EED04
:1033500072E08CE894E00E94910706E412E06EE4CB
:10336000C62E62E0D62EF801F180E08061E08E2D5D
:103370000E947E0261E08F2D0E947E0260E08E2D11
:103380000E94500260E08F2D0E9450020E5F1F4F7E
:10339000C016D10641F71E01FDE32F0E311C3E0180
:1033A00025E1620E711C80917A05811132C0109264
:1033B00068051092670546E952E050936605409310
:1033C000650586EF91E090936A05809369051092F8
:1033D0006E0510926D0588EE93E0A0E0B0E080935A
:1033E0006F0590937005A0937105B093720584E604
:1033F00092E090936C0580936B0588E0809377054D
:1034000088EE93E0909379058093780581E080932E
:103410007A0565E675E0CE01805A9F4F0E94A50EA1
:10342000AD968FADAD978830E8F58BE695E00E94BC
:10343000BC08811137C0A4968EAD9FADA497909320
:103440006E0580936D05A8968CAD9DADAEADBFADFC
:10345000A89780936F0590937005A0937105B09322
:103460007205AC968CAD9DADAEADBFADAC97809303
:10347000730590937405A0937505B0937605AD968A
:103480008FADAD9780937705AF968EAD9FADAF971B
:10349000909379058093780564EE72E08CE894E06F
:1034A0000E9491078BE695E00E94830F8C0118160D
:1034B00019060CF042C371018BE695E00E94A4103E
:1034C000D7018D937D01CD01821993098017910752
:1034D0009CF3B801615071090115110509F42DC360
:1034E00080912404811103C081E0809324048091A1
:1034F0002C04811103C081E080932C048DAD89A739
:1035000021E030E081E090E04EE7E42E5AEAD52E4B
:10351000E9E2F0E0EC0FFD1FE80FF91F261737076F
:1035200030F5D101A20FB31FFC90BDE7FB121CC008
:10353000A9014F5F5F4F40175107B0F4D101A40FAD
:10354000B51FAC91AD3569F0AE3529F0AA3231F432
:103550000196D08202C00196E0829A012F5F3F4F10
:10356000D7CF0196F082F9CF0196F082F7CF620DA6
:10357000731DDB01FC90F08284E1F30111928A95C6
:10358000E9F799A4FEE79F1679F062E173E08CE811
:1035900094E00E9491078EE78D8B80EE8E8B8AEAF5
:1035A0008F8B03E010E0DFC02AEAF21649F063E2F5
:1035B00073E08CE894E00E9491079D8A81EEEECF43
:1035C0008AA5803BD1F462E373E08CE894E00E942A
:1035D00091070E94D8068C010E946A06D8011296B3
:1035E0009C91129713968C919D8A20EC2E8B9F8B29
:1035F000888FF98E05E010E0B6C0813B09F01DC14F
:103600006AE473E08CE894E00E9491078BA4082D93
:1036100010E0C8010197079728F09D8A82EE8E8BF3
:1036200080ED21C1FCA4BDA46BE673E08CE894E0BE
:103630000E94EC064F2D50E070E060E02AE08CE83C
:1036400094E00E94FB0668EA72E08CE894E00E9435
:10365000EC0688EE93E0F89E6001F99ED00C1124F0
:103660000D2C000CEE08FF0863E873E08CE894E092
:103670000E94EC062AE0B701A6018CE894E00E94C3
:10368000FB0668EA72E08CE894E00E94EC068B2D61
:1036900090E0B0E0A0E08A309105A105B10508F006
:1036A000ACC02B2D30E0A4E6B0E00E940D1EC60E8B
:1036B000D71EE81EF91E80E190E00E94241E5C01E6
:1036C000FC0111830083DC01C382D482E582F6828F
:1036D0001786F801E25CFD4F108112961C93C1140D
:1036E000D104E104F10409F06DC260E0812F0E9471
:1036F000500260E0812F0E9450028EE78D8B81EC9A
:103700008E8B8F8A83E090E0C114D104E104F10430
:10371000F9F0C701B60128EE33E040E050E00E9426
:10372000EB1D022F162FD72E7C0124E630E040E05F
:1037300050E00E94EB1D672B682B692B09F06CC0D1
:1037400020930000088F80910000898F85E090E031
:103750008C010F5F1F4F860D971D2AEAFC01208305
:10376000C5010E94C01E8D898983DE01569681E0C5
:1037700090E0015011093DE76EE57DE52AE2D22E89
:103780007C01EFEFEE1AFE0AE1E0F0E0EC0FFD1F26
:10379000E80FF91FAD01461957094017510708F006
:1037A000B9C12D9141E050E04C0F5D1FE40EF51EB4
:1037B0002E3709F4A2C12A3A09F4A7C12D3789F49A
:1037C000E1E0F0E0EC0FFD1FE80FF91F3083FC0192
:1037D000319641E050E04C0F5D1FE40FF51F02965B
:1037E0007083AC014F5F5F4FE1E0F0E0EC0FFD1F35
:1037F0008E0F9F1FFC01208386C184369105A10591
:10380000B10528F42B2D30E0AAE0B0E04ECFC80E71
:10381000D91EEA1EFB1E4FCF612F7D2DC7012AE066
:1038200030E040E050E00E94EB1D672B682B692BD5
:1038300009F486CF1093000085CF823B09F032C196
:1038400062EA73E08CE894E00E949107FBA5E196A0
:10385000FFAFE1975F2E5A9423E0251538F49D8A37
:1038600083EE8E8B81ED8F8BF88E3AC069EB73E01F
:103870008CE894E00E94EC06E1968FADE197482F2A
:1038800050E070E060E02AE08CE894E00E94FB06E3
:1038900068EA72E08CE894E00E94EC06ECA48FEFFA
:1038A0008E0D8E3F28F49D8A83EE8E8B84EDDBCFC8
:1038B000ADA4BEA4CFA4D8A889A88FEF880D873067
:1038C00018F09D8A83EEABCEFAA890E19F1558F4CC
:1038D0008EE78D8B83EE8E8B85ED8F8B8AEA888FBA
:1038E00004E010E040CFABA9E096AFAFE0978FE0E7
:1038F00090E00E94241E8C01E52DF0E0DC015C923A
:103900001196EC9211971396BC92AE92129715965F
:10391000DC92CE92149716968C9216971796FC927C
:103920001797E0962FADE09718962C9318971C9652
:103930001C921E921B971D961C921D971E961C9200
:103940001E97EE0FFF1FEA5BFD4F808119968C9347
:10395000199751801A965C9261E0E11060E00E9434
:103960005002E82DF0E0E25CFD4F408061E0842DE4
:103970000E945002D12CC12CD8011D969C90CA14D3
:10398000DB0409F444C0B0E1FB16D9F0911032C059
:103990000E94D8064C010E946A06F401828193813C
:1039A0000F2C02C0969587950A94E2F7F2E0FF1576
:1039B000F0F481709927892B21F0E1E0D8011D9660
:1039C000EC9361E0852D0E945002F8018385948577
:1039D00001969487838760E0852D0E9450028BEAD0
:1039E00094E00197F1F7FFEFCF1ADF0AC5CF80957A
:1039F0009095DFCFD80114968D919C9115970097E3
:103A000031F0019715969C938E931497DACF66EC5C
:103A100073E08CE894E00E94910760E0842D0E949E
:103A20005002E0962FADE0972031D9F00E94D806E1
:103A30006C010E946A06D60112968D919C91E096C7
:103A40000FACE09702C0969587950A94E2F7E0964E
:103A5000BFADE097B33018F1817099278170F801FC
:103A600086878EE78D8B82EC8E8BE196FFADE1979A
:103A7000FF8BE88ED8011B969C911B971C968C910E
:103A80001C97998F8A8F9B8E1E968C918C8F8AEAB9
:103A90008D8FC8010E94C01E09E010E064CE8095A1
:103AA0009095DACF833B21F567ED73E08CE894E0E5
:103AB0000E9491070BA58FEF800F873018F09D8A29
:103AC00084EEADCD1CA5123028F09D8A84EE8E8B3D
:103AD00086EDC9CEE02FF0E0E25CFD4F612F8081E2
:103AE0000E9450029D8A83EC8E8B0F8B188F81CDA4
:103AF0009D8A8AEE8E8BFF8A54CD3083AC014E5F57
:103B00005F4FF7016083CA013BCE30830296F70115
:103B1000D08256CE060D171DD8018C9180838BE67E
:103B200095E00E94BC08882359F0A701BE016F5F91
:103B30007F4F8BE695E00E94FD0D0E94160433CC6A
:103B400065E675E0CE018F5A9F4F0E94A50E6E96D6
:103B50008FAD6E97883078F565962EAD3FAD659741
:103B600030936E0520936D0569964CAD5DAD6EADDD
:103B70007FAD699740936F05509370056093710511
:103B8000709372056D964CAD5DAD6EAD7FAD6D976A
:103B90004093730550937405609375057093760593
:103BA00080937705A0968EAD9FADA09790937905F1
:103BB00080937805BACF6CEE73E08CE894E00E94B5
:103BC0009107BBCF61E0812F0E945002C701B6016F
:103BD0000E94D4028ECDA1E21A2EAA1BBB1BFD01AE
:103BE0000DC0AA1FBB1FEE1FFF1FA217B307E407DC
:103BF000F50720F0A21BB30BE40BF50B661F771F34
:103C0000881F991F1A9469F7609570958095909513
:103C10009B01AC01BD01CF010895A29FB001B39FEC
:103C2000C001A39F700D811D1124911DB29F700DC5
:103C3000811D1124911D0895EE0FFF1F881F8BBF5A
:103C40000790F691E02D19940F931F93CF93DF9374
:103C50008230910510F482E090E0E0919205F091BD
:103C6000930530E020E0B0E0A0E0309799F4211512
:103C7000310509F44AC0281B390B24303105D8F529
:103C80008A819B816115710589F1FB019383828390
:103C9000FE0111C0408151810281138148175907EB
:103CA000E0F04817590799F4109761F012960C93B9
:103CB000129713961C933296CF01DF91CF911F91EB
:103CC0000F9108950093920510939305F4CF211559
:103CD000310551F04217530738F0A901DB019A0171
:103CE000BD01DF01F801C1CFEF01F9CF909393053A
:103CF00080939205CDCFFE01E20FF31F8193919344
:103D00002250310939832883D7CF209190053091F3
:103D10009105232B41F420910B0230910C0230933A
:103D20009105209390052091090230910A022115F6
:103D3000310541F42DB73EB740910D0250910E026E
:103D4000241B350BE0919005F0919105E217F307E4
:103D5000A0F42E1B3F0B2817390778F0AC014E5FFB
:103D60005F4F2417350748F04E0F5F1F50939105A2
:103D700040939005819391939FCFF0E0E0E09CCF3A
:103D8000CF93DF930097E9F0FC0132971382128200
:103D9000A0919205B0919305ED0130E020E01097DD
:103DA000A1F420813181820F931F209190053091E1
:103DB00091052817390709F061C0F0939105E09348
:103DC0009005DF91CF910895EA01CE17DF07E8F55E
:103DD0004A815B819E0141155105B1F7E901FB83E1
:103DE000EA8349915991C40FD51FEC17FD0761F47F
:103DF000808191810296840F951FE90199838883C0
:103E0000828193819B838A83F0E0E0E012968D911A
:103E10009C9113970097B9F52D913C911197CD0185
:103E20000296820F931F20919005309191052817DB
:103E3000390739F6309751F5109293051092920593
:103E4000B0939105A0939005BCCFD383C2834081EA
:103E50005181840F951FC817D90761F44E5F5F4FDA
:103E600088819981480F591F518340838A819B81A2
:103E7000938382832115310509F0B0CFF093930528
:103E8000E09392059ECFFD01DC01C0CF1382128228
:103E9000D7CFDC0101C06D9341505040E0F7089549
:043EA000F894FFCFC4
:103EA40000C00ADEADBEEFFEED0000940580000107
:103EB400005E00000000000000A605180E6706E87A
:103EC40001E4017A105D0B7F117A0C7508F40594F6
:103ED400151709D8125B10430633062F062B061656
:103EE4001718191A1B1C200D210C220B230A000081
:103EF4000000A90313034003F60371034F03630394
:103F040000000000DD05FD0D9D0D880D830FA4103C
:103F14006C0B06120716BE10DE08BC085D066506AB
:103F2400EA065A065806D2054E06AD1292168212B9
:103F34004A0600000000BC052C0F670666069D11AA
:103F440090080000000047070D0A007463702062A7
:103F54006567696E0074637020626567696E2073BB
:103F6400746172747321007463702068616E646C90
:103F740065720049503A200072656C6179006D6F7A
:103F8400746F720074637020636C69656E7420646E
:103F94006973636F6E6E656374656420616E64201B
:103FA4006E657720636C69656E7420616363657008
:103FB400740073746172742062797465206572721E
:103FC4006F7200656E642062797465206572726F29
:103FD400720073656E736F722072657175657374A8
:103FE4002064697370617463680072656C61792020
:103FF400636F6E74726F6C20776974682074696D76
:10400400652064697370617463680064617461201D
:10401400312028696E746567657220706172742935
:104024003A20006461746120312028696E746567E8
:104034006572207061727429202A20313030303A40
:1040440020006D6F746F7220636F6E74726F6C20DA
:104054006469737061746368006D6F746F725F6E0E
:10406400756D6265720072656C6179206F66662099
:1040740074696D696E670072656C6179206F6E2F6B
:104084006F66662068616E646C657200746370208C
:104094006E6F7420617661696C61626C6520746F07
:1040A4002073656E6420726573706F6E7365206D26
:0840B40065737361676500008C
:00000001FF
