:020000040000FA
:100000000C9495010C94C6010C94C6010C94C60185
:100010000C94C6010C94C6010C94C6010C94C60144
:100020000C94C6010C94C6010C94C6010C94C60134
:100030000C94C6010C94C6010C94C6010C94C60124
:100040000C94C6010C94C6010C94C6010C94C60114
:100050000C94C6010C94C6010C94C6010C94C716EE
:100060000C94C6010C943B170C9411170C94C60108
:100070000C94C6010C94C6010C94C6010C94C601E4
:100080000C94C6010C94C6010C94C6010C94C601D4
:100090000C94C6010C94C6010C94C6010C94C601C4
:1000A0000C94C6010C94C6010C94C6010C94C601B4
:1000B0000C94C6010C94C6010C94C6010C94C601A4
:1000C0000C94C6010C94C6010C94C6010C94C60194
:1000D0000C94C6010C94C6010C94C6010C94C60184
:1000E0000C94C6010C9401020C94D2060C942602C6
:1000F0000C94C5050C9475120C944D060C942A02B0
:100100000C9434020C94FD010C94F9110C943606F5
:100110000C941B090C9417060C9413060C948E0572
:100120000C94A10D0C94870F0C9471170C94300251
:100130000C9437030C94CB120C9487150C944E0638
:100140000C947E100C94A8100C9459030C94C008C5
:100150000C941C020C94BA050C941B060C94180207
:100160000C9440060C94A4050C948C0D0C944B0339
:100170000C94300F0C9442060C945F100C94CC013C
:100180000C9432060C94A1110C94E2080C94EF012B
:100190000C9479080C941C0E0C94DE030C940A0247
:1001A0000C94700B0C9414020C94FA150C942F07F9
:1001B0000C9428030C94FB020C942F020C94F50170
:1001C0000C942B060C94C2100C947E0C0C94010E13
:1001D0000C9485160C94610B0C9404020C94F90198
:1001E0000C940E020C9445060C9491030C94940804
:1001F0000C944F060C9483110C94A0120C942202C0
:100200000C94D0010C94DC05000020002300260093
:1002100029002C002F00320000010000030106011C
:10022000090100000A0B02090C0D0E080703040166
:1002300000000000000000000000000000000000BE
:10024000000000000000000000000000000012118B
:10025000100000000000000000000000000000008E
:10026000000000000000000000002200250028001F
:100270002B002E00310034000201000005010801AE
:100280000B0100002100240027002A002D0030006F
:10029000330001010000040107010A0101021020DE
:1002A00020080810204010204080020102010804AC
:1002B0000201010204081020408080402010080440
:1002C0000201800402018040201008040201080499
:1002D00002010102040810204080010204081020DD
:1002E0004080050505050705080808080202020206
:1002F0000A0A0808040404040101010101010101C2
:100300000303030303030303040707070C0C0C0C8C
:100310000C0C0C0C02020202060606060606060675
:100320000B0B0B0B0B0B0B0B711711241FBECFEF1D
:10033000D1E2DEBFCDBF00E00CBF14E0A0E0B2E030
:10034000ECEBFEE300E00BBF02C007900D92AE3570
:10035000B107D9F725E0AEE5B4E001C01D92AA3D92
:10036000B207E1F711E0C5E9D1E000E006C021974E
:100370000109802FFE010E94281EC439D10780E0A8
:100380000807A9F70E9481180C945C1F0C940000C8
:1003900008958CBD9DBD0895FC01818D928D0895B9
:1003A00008958150823108F05AC0E82FF0E0882784
:1003B000E352FE4F8F4F0C94281EFD010102EF0106
:1003C000F501F9012F0204020A020E0214021802BA
:1003D0001C02220226022F022A02300234028091DD
:1003E00080008F77809380000895809180008F7DBA
:1003F000F9CF80918000877FF5CF84B58F7784BD5A
:10040000089584B58F7DFBCF8091B0008F77809366
:10041000B00008958091B0008F7DF9CF8091900059
:100420008F77809390000895809190008F7DF9CF11
:1004300080919000877FF5CF8091A0008F77809387
:10044000A00008958091A0008F7DF9CF8091A00039
:10045000877FF5CF809120018F77809320010895C9
:10046000809120018F7DF9CF80912001877FF5CF8A
:100470001F93CF93DF93282F30E0F901EE5DFD4FFE
:100480008491F901E456FD4FD491F901EE51FD4FED
:10049000C491CC23A9F0162F81110E94D101EC2F19
:1004A000F0E0EE0FFF1FE859FD4FA591B4918FB713
:1004B000F894EC91111108C0D095DE23DC938FBF26
:1004C000DF91CF911F910895DE2BF8CFCF93DF936B
:1004D00090E0FC01E456FD4F24918E519D4FFC01AC
:1004E00084918823D1F090E0880F991FFC01EE578A
:1004F000FD4FA591B491FC01E859FD4FC591D491F0
:1005000061110EC09FB7F8948C91E22FE0958E2375
:100510008C932881E223E8839FBFDF91CF910895D8
:100520008FB7F894EC91E22BEC938FBFF6CF3FB7E7
:10053000F89480917F0490918004A0918104B091FF
:10054000820426B5A89B05C02F3F19F00196A11D76
:10055000B11D3FBFBA2FA92F982F8827BC01CD010D
:10056000620F711D811D911D42E0660F771F881F6C
:10057000991F4A95D1F708958F929F92AF92BF929B
:10058000CF92DF92EF92FF926B017C010E94970263
:100590004B015C01C114D104E104F104B9F00E94E3
:1005A0009702681979098A099B09683E7340810599
:1005B000910580F321E0C21AD108E108F10888EE24
:1005C000880E83E0981EA11CB11CE4CFFF90EF9031
:1005D000DF90CF90BF90AF909F908F9008952FB7EE
:1005E000F89460917B0470917C0480917D049091DB
:1005F0007E042FBF0895AF92BF92CF92DF92EF9209
:10060000FF920F931F93CF93DF936C017B018B01BC
:10061000040F151FEB015E01AE18BF08C017D1070C
:1006200059F06991D601ED91FC910190F081E02D96
:10063000C6011995892B79F7C501DF91CF911F91DB
:100640000F91FF90EF90DF90CF90BF90AF90089503
:10065000FC01538D448D252F30E0842F90E0821BC8
:10066000930B541710F0CF96089501970895FC014D
:10067000918D828D981761F0A28DAE0FBF2FB11DA5
:100680005D968C91928D9F5F9F73928F90E00895FD
:100690008FEF9FEF0895FC01918D828D981731F0B7
:1006A000828DE80FF11D858D90E008958FEF9FEF0B
:1006B0000895FC01918D228D892F90E0805C9F4FE1
:1006C000821B91098F739927089582ED94E00E940F
:1006D000590321E0892B09F420E0822F0895FC01C1
:1006E000A48DA80FB92FB11DA35ABF4F2C91848D93
:1006F00090E001968F739927848FA689B7892C93F0
:10070000A089B1898C91837080648C93938D848D42
:10071000981306C00288F389E02D80818F7D808345
:100720000895EF92FF920F931F93CF93DF93EC0105
:1007300081E0888F9B8D8C8D98131AC0E889F98988
:10074000808185FF15C09FB7F894EE89FF8960838B
:10075000E889F98980818370806480839FBF81E00C
:1007600090E0DF91CF911F910F91FF90EF9008954E
:10077000F62E0B8D10E00F5F1F4F0F731127E02E29
:100780008C8D8E110CC00FB607FCFACFE889F98961
:10079000808185FFF5CFCE010E946F03F1CFEB8DF5
:1007A000EC0FFD2FF11DE35AFF4FF0829FB7F89435
:1007B0000B8FEA89FB8980818062CFCFCF93DF9353
:1007C000EC01888D8823B9F0AA89BB89E889F98969
:1007D0008C9185FD03C0808186FD0DC00FB607FC9E
:1007E000F7CF8C9185FFF2CF808185FFEDCFCE01D1
:1007F0000E946F03E9CFDF91CF91089580E090E0F0
:10080000892B29F00E94650381110E94000080E07D
:1008100090E0892B49F080E090E0892B29F00E943C
:10082000000081110E94000080E090E0892B49F0D7
:1008300080E090E0892B29F00E94000081110E9445
:10084000000080E090E0892B49F080E090E0892B67
:1008500029F00E94000081110C9400000895FC0111
:1008600020812EBD9B012150310941F051810DB4F1
:1008700007FEFDCF4EB55EBD4193F5CF61507109C6
:10088000860F971F0DB407FEFDCF2EB5FC01208308
:100890000895E091CC04F091CD0480819091CB0437
:1008A000892B80830895E091CC04F091CD04908150
:1008B0008091CB0480958923808308958EBD0000AC
:1008C0000DB407FEFDCF8EB50895AF92BF92CF92C3
:1008D000DF92EF92FF920F931F93CF93DF9300D09D
:1008E00000D01F921F92CDB7DEB78C017B016A0149
:1008F0008091CF048333E1F45801A40EB51EA016F5
:10090000B10609F46FC00E94530480EF0E945E0498
:10091000812F0E945E04802F0E945E040F5F1F4F94
:10092000F70181917F010E945E040E944904E7CF94
:100930005B01A40EB51E8433C1F40E9453041983D5
:100940000A838D2D80688B83CC8264E070E0CE01B9
:1009500001960E942F04AE14BF0409F441C0F701B0
:1009600081917F010E945E04F6CF0E9453040F3FE5
:10097000110509F028F419820A8384E08B830CC0E6
:1009800017FD17C019820A8333E0169507953A952B
:10099000E1F7007E0C600B8386E0C816D104A0F559
:1009A000F701DE011496EA15FB0599F081918D930C
:1009B000FACFC80126E0969587952A95E1F7807EC3
:1009C00019830A830115104C10F48461D7CF8C6110
:1009D000D5CFB6016D5F7F4FCE0101960E942F04E7
:1009E0000E944904C60128960FB6F894DEBF0FBED8
:1009F000CDBFDF91CF911F910F91FF90EF90DF90CE
:100A0000CF90BF90AF90089563E070E0CE01019663
:100A10000E942F04F70181917F010E945E04AE14B1
:100A2000BF04C1F7DDCFCF93DF931F92CDB7DEB701
:100A3000898341E050E0BE016F5F7F4F90E080E02E
:100A40000E9465040F90DF91CF91089590E020916E
:100A5000CF04233339F40C96982F990F990F990FDF
:100A600080E008954896F8CFDA01E091D004F0E0F4
:100A7000FE2FEE27E60FF71F90E0982F8827A90199
:100A8000BD018E0F9F1F0C946504CF93DF931F92BF
:100A90001F92CDB7DEB779836A8322E030E0AE01E2
:100AA0004F5F5F4F60E170E00E9434050F900F9040
:100AB000DF91CF910895CF93DF931F921F92CDB70F
:100AC000DEB779836A8322E030E0AE014F5F5F4F8B
:100AD00064E070E00E9434050F900F90DF91CF9199
:100AE0000895CF93DF931F92CDB7DEB72091D00446
:100AF00030E0322F2227260F371F90E0982F8827CB
:100B0000498341E050E0BE016F5F7F4F820F931F2A
:100B10000E9465040F90DF91CF910895CF93DF93EA
:100B20001F92CDB7DEB76983DC01ED91FC910280A5
:100B3000F381E02D41E050E0BE016F5F7F4F1995DA
:100B40000F90DF91CF910895CF93DF931F92CDB790
:100B5000DEB76983DC01ED91FC910280F381E02D29
:100B600041E050E0BE016F5F7F4F19950F90DF911C
:100B7000CF910895FC019485FB018485981303C0EF
:100B800081E0983008F080E00895CF93DF931F92C2
:100B9000CDB7DEB76983DC01ED91FC910280F38172
:100BA000E02D41E050E0BE016F5F7F4F19950F903F
:100BB000DF91CF9108950895FF920F931F93CF93E4
:100BC000DF93EB01FC01178A168A2A81211109C0E3
:100BD0002B81211106C02C81211103C02D812223DC
:100BE00001F141155105E9F08A01FC01F08C80E525
:100BF00091E00E94C901AE014E5F5F4F24E030E0FA
:100C00006CE070E08F2D0E943405B8018F2D0E949A
:100C1000450581E090E0DF91CF911F910F91FF900A
:100C2000089580E0F7CFFC01848595850895FC0147
:100C300084899589089526EA32E0FC013183208376
:100C4000FB014089518962897389FC014283538386
:100C5000648375830895DC01ED91FC91048CF58D1E
:100C6000E02D1994FC01768765870895DC01ED91EC
:100C7000FC9102A0F3A1E02D199591E08927089538
:100C8000862F089581E08627089521E0FC01848560
:100C9000883008F020E0822F08950895089590E0AC
:100CA00080E008956F927F928F929F92AF92BF9251
:100CB000CF92DF92EF92FF920F931F93CF93DF9328
:100CC0007C0160E081E30E94380261E081E30E94E0
:100CD0003802F70113821282CFE0D0E010E000E08A
:100CE00092E5C92E92E0D92E2CECA22E22E0B22E53
:100CF00032E1832E33E0932EF6018491F501749056
:100D0000F4016490662009F438C081110E94D10179
:100D1000E62DF0E0EE0FFF1FE85FFD4FA591B491C7
:100D20008C91782231E020E009F430E0832F922F7B
:100D30000C2E02C0880F991F0A94E2F7082B192B7A
:100D400061E08EE20E94380260E08EE20E9438028A
:100D5000219790F6F7011383028380E0DF91CF9112
:100D60001F910F91FF90EF90DF90CF90BF90AF90C9
:100D70009F908F907F906F90089590E080E0D8CF03
:100D80008091620481110BC010925E0410925F0486
:100D9000109261041092600481E0809362048EE5F9
:100DA00094E008950C94CC1EFB0101900020E9F71B
:100DB0003197AF01461B570BDC01ED91FC9102808E
:100DC000F381E02D19948F929F92AF92BF92EF9290
:100DD000FF920F931F93CF93DF93CDB7DEB7A19709
:100DE0000FB6F894DEBF0FBECDBF7C01FA01CB0178
:100DF00019A2223008F42AE08E010F5D1F4F822EC7
:100E0000912CB12CA12CBF01A50194010E94F71DCA
:100E1000F901CA016A300CF5605DD8016E938D014D
:100E2000232B242B252B79F790E080E0109721F0DD
:100E3000BD01C7010E94D406A1960FB6F894DEBF8B
:100E40000FBECDBFDF91CF911F910F91FF90EF901B
:100E5000BF90AF909F908F900895695CDECF8F9286
:100E60009F92AF92BF92CF92DF92EF92FF920F9339
:100E70001F93CF93DF937C01EB016C0182E0C80EDE
:100E8000D11C4701E5E08E0E911C10E000E0F60158
:100E900041916F0150E070E060E02AE0CE010E94D5
:100EA000E3065C01E881F9810190F081E02D6EE2BA
:100EB000CE0119958A0D9B1D080F191FC814D9045E
:100EC00031F7F701458150E070E060E02AE0CE01A3
:100ED0000E94E306800F911FDF91CF911F910F9128
:100EE000FF90EF90DF90CF90BF90AF909F908F904A
:100EF0000895BC0182ED94E00C94D406CF93DF9367
:100F0000482F50E070E060E02AE082ED94E00E941B
:100F1000E306EC0168EA72E082ED94E00E94D406F8
:100F20008C0F9D1FDF91CF9108950F931F93CF9347
:100F3000DF93EC010E94D4068C0168EA72E0CE01D6
:100F40000E94D406800F911FDF91CF911F910F91C6
:100F50000895AF92BF92CF92DF92EF92FF920F93DC
:100F60001F93CF93DF9300D01F92CDB7DEB78C01D4
:100F70006B017A018091CF048333E9F45B0168014E
:100F8000C40ED51EC016D106A9F10E9453048FE0ED
:100F90000E945E04812F0E945E04802F0E945E04E6
:100FA0000F5F1F4F80E00E945E04F50181935F0197
:100FB0000E944904E7CF843369F50E9453041983E2
:100FC0000A838F2D8F778B83EC8264E070E0CE01F3
:100FD00001960E942F04A70170E060E0C6010E9404
:100FE000551FE114F10421F0B701C6010E942F043E
:100FF0000E944904C7010F900F900F900F90DF914E
:10100000CF911F910F91FF90EF90DF90CF90BF9005
:10101000AF9008950E9453040F3F110509F030F47A
:1010200019820A831B8263E070E0D1CF17FD0BC0E9
:1010300019820A8333E0169507953A95E1F7007E09
:1010400008600B83F0CFC80126E0969587952A9516
:10105000E1F7807E19830A830115104C18F4806132
:101060008B83E1CF8861FCCFCF93DF931F92CDB705
:10107000DEB72091D00430E0322F2227260F371F11
:1010800090E0982F882741E050E0BE016F5F7F4FCE
:10109000820F931F0E94A90789810F90DF91CF9142
:1010A0000895CF93C82F462F61E070E00E9471052C
:1010B00061E070E08C2F0E9434088111F9CFCF914C
:1010C0000895CF93C82F80E591E00E94C90168E0A0
:1010D00070E08C2FCF910C945108CF93C82F80E5EE
:1010E00091E00E94C90160E170E08C2FCF910C94D7
:1010F0005108CF93DF93EC01888D883020F40E9453
:101100006D0888E0888FDF91CF91089563E070E0EB
:101110000C943408CF93C82F80E591E00E94C90158
:101120008C2FCF910C948608EF92FF920F931F9310
:10113000CF93DF937C018091CF04D4E0833309F017
:10114000D8E00BEB14E0C0E0F801219131918F0160
:10115000F701848195812817390729F0CF5FDC13C7
:10116000F3CF80E006C08C2F0E948A088431B1F74B
:1011700081E0DF91CF911F910F91FF90EF90089543
:10118000CF93DF93EC018C858830D0F40E948A08DD
:10119000843189F0882379F0883169F021E08C313D
:1011A00059F4E881F9810084F185E02DCE0119958B
:1011B00021E0892B09F420E0822FDF91CF9108955F
:1011C00080E0FBCFCF92DF92EF92FF92CF93DF933D
:1011D000EC018C85883068F40E9461080E94EF025F
:1011E0006B017C018C850E948A08811109C088E00E
:1011F0008C87DF91CF91FF90EF90DF90CF90089593
:1012000061E070E080E090E00E94BC020E94EF028A
:10121000AB01BC014C195D096E097F098D859E8566
:10122000B0E0A0E0481759076A077B07D8F28C8521
:101230000E946D08DCCFCF93FC01C08D80E591E06A
:101240000E94C90160E270E08C2F0E94510862E0A8
:1012500070E08C2F0E94340884FD16C062E070E0BC
:101260008C2F0E94340883FF0AC048E162E070E0DE
:101270008C2F0E94710580E090E0CF91089580E569
:1012800091E00E94C901E3CF40E162E070E08C2F61
:101290000E94710581E0F0CFCF93DF931F92CDB70D
:1012A000DEB741E050E0BE016F5F7F4F90E080E02D
:1012B0000E94A90789810F90DF91CF910895CF9364
:1012C000DF93C4E1D0E00E944C09882361F061E023
:1012D00070E080E090E00E94BC022197A1F780E0DE
:1012E000DF91CF91089581E0FBCFCF92DF92EF9213
:1012F000FF920F931F93CF93DF93CDB7DEB7C45404
:10130000D1090FB6F894DEBF0FBECDBFFC018281BC
:101310009381A481B58123968CAF9DAFAEAFBFAF53
:10132000239721E023962FAF239723964CAD5DADF5
:101330006EAD7FAD23974BAB5CAB6DAB7EAB89AF36
:101340009AAFABAFBCAF8DA79EA7AFA7B8AB28AB8A
:101350004DA55EA56FA578A94FA358A769A77AA741
:101360002EAB4BA95CA96DA97EA949A35AA36BA377
:101370007CA38B8F9C8FAD8FBE8F46EA52E05C8B37
:101380004B8B3FEF3D8B3E8B3F8B188E5E874D879F
:101390002AA7CFA0D8A4E9A4FAA4CF86D88AE98A3C
:1013A000FA8A2CA309A11AA12BA13CA109871A87AB
:1013B0002B873C875A8349838B839C83AD83BE8371
:1013C0008091D1048111A2C060E372E080E090E0DE
:1013D0000E94BC021FB7F8948091CE04811127C0EF
:1013E000E7E1F3E08491E1EDF2E09491E82FF0E0A1
:1013F000EE0FFF1FEE57FD4FA591B491EC91E9233D
:1014000021F461E085E30E94380261E085E30E94F7
:1014100066028CB580618CBD8CB580648CBD61E04A
:1014200084E30E94660261E083E30E946602809189
:10143000CE048F5F8093CE041FBF80910202282FBD
:1014400030E0F901EE51FD4FE491F0E0EE0FFF1FA7
:10145000E859FD4F459154915093CD044093CC04ED
:10146000F901E456FD4FE491E093CB0461E00E9462
:1014700066020E94490480E591E00E94C90184E36C
:101480008093CF0480E80E9413050E945F0988239F
:1014900009F472C088E00E9413050E944C0988304C
:1014A00009F06AC080E10E9413050E944C09803156
:1014B00009F062C080E00E9413050E944C09182FB9
:1014C00081115AC041E050E0BE016D5B7F4F8FE15A
:1014D00090E00E94A90724968FAD2497833009F0ED
:1014E0004BC080E48093D00442E06EE170E0812F35
:1014F0000E94710542E06FE170E0812F0E9471054A
:101500001F5F183089F781E08093D10480E591E076
:101510000E94C90146E050E063E072E089E090E09B
:101520000E94650444E050E0BE016D5F7F4F8FE094
:1015300090E00E94650444E050E0BE01615F7F4F8F
:1015400081E090E00E94650444E050E0BE016B5EE3
:101550007F4F85E090E00E94650481E08C8789855B
:101560009A85AB85BC8580938F0590939005A09359
:101570009105B09392056FC087E38093CF0480E814
:101580000E9413050E945F09882339F188E00E94B8
:1015900013050E944C09883001F580E10E94130573
:1015A0000E944C09182F8031C1F480E00E9413057D
:1015B0000E944C09811111C041E050E0BE016D5BF9
:1015C0007F4F89E390E00E94A90724968FAD24976E
:1015D000843019F41093D00496CF83E38093CF0422
:1015E00080E80E9413050E945F09882391F180E141
:1015F0000E9413050E944C09803159F582E10E9436
:1016000013050E944C09823121F580E00E941305E8
:101610000E944C0981111DC084E08093D00415E51F
:1016200025961FAF259741E050E0BE016C5B7F4FD0
:101630008BE190E00E94650424961FAF249741E05F
:1016400050E0BE016D5B7F4F8AE190E00E9465042F
:101650005ACF1092CF04CC5BDF4F0FB6F894DEBFA9
:101660000FBECDBFDF91CF911F910F91FF90EF90F3
:10167000DF90CF9008951F93CF93DF931F92CDB744
:10168000DEB7182F80E591E00E94C901812F0E94EA
:10169000260527E0129FF0011124ED57FB4F228110
:1016A0003381377041E050E0BE016F5F7F4F820FA2
:1016B000931F0E94A90789810F90DF91CF911F91FD
:1016C0000895FC01808D883040F4218D328D232BCC
:1016D00021F00E943B0B90E008958FEF9FEF08955B
:1016E000CF93DF93FC012485283028F08FEF9FEF04
:1016F000DF91CF910895EC010190F081E02D0084FD
:10170000F185E02D1995892B89F38C850E943B0B7F
:1017100090E0EECFDA01E091D004F0E0FE2FEE276A
:10172000E60FF71F90E0982F8827A901BD018E0FC3
:101730009F1F0C94A9078F929F92AF92BF92CF9256
:10174000DF92EF92FF920F931F93CF93DF93CDB76A
:10175000DEB760970FB6F894DEBF0FBECDBF7C0139
:101760009091CF04911115C018E0812F60960FB6AB
:10177000F894DEBF0FBECDBFDF91CF911F910F91C7
:10178000FF90EF90DF90CF90BF90AF909F908F90A1
:10179000089508E0933309F404E06B0180E591E0DB
:1017A0000E94C9019E012F5F3F4F5901490110E07E
:1017B000812F0E948608F40181934F018823C1F094
:1017C0001F5F0113F5CF00E0F50181915F018D31BD
:1017D00049F0883139F08A51823020F00F5F1013C0
:1017E000F3CFC2CF60E170E0802F0E945108102F2C
:1017F000A12EB12CF501EE0FFF1FE554FB4F118216
:10180000108283EE93E00197F1F742E870E060E028
:10181000812F0E9471054FEF62E070E0812F0E94DE
:101820007105B601C114D10491F480910002909128
:10183000010201968115F0EC9F0708F45CC09093BB
:101840000102809300026091000270910102812FD9
:101850000E945B0586E0EFE0F2E0DE011996019060
:101860000D928A95E1F7F70183818F778C878481C8
:101870008D8785818E87A7014E5F5F4F24E030E022
:101880006CE070E0812F0E943405B601812F0E9428
:10189000450526E030E0AE01475F5F4F66E070E04F
:1018A000812F0E94340561E070E0812F0E94510871
:1018B00027E02A9DC0012B9D900D11249C012D57DE
:1018C0003B4F7901F9011182108222E030E0AE0134
:1018D000415F5F4F68E270E0812F0E948A0B8F8525
:1018E0009889982789279827F701938382831682FE
:1018F000158214823ACF80E090ECA1CFCF92DF9294
:10190000EF92FF920F931F93CF93DF9300D000D0FD
:10191000CDB7DEB78C016B017A01FC01808D883078
:1019200010F40E946D0886EA92E09A838983F6019A
:1019300082819381A481B5818B839C83AD83BE8397
:10194000B701CE0101960E949B0BF801808F883071
:10195000A0F4F586E486128E118E81E026960FB6ED
:10196000F894DEBF0FBECDBFDF91CF911F910F91D5
:10197000FF90EF90DF90CF90089580E0EFCF7F92BF
:101980008F929F92AF92BF92CF92DF92EF92FF928F
:101990000F931F93CF93DF931F921F92CDB7DEB7A4
:1019A000782E8B014A01590122E030E0AE014F5FF1
:1019B0005F4F64E270E00E948A0BE980FA80FE24A7
:1019C000EF24FE24E00EF11E970137704091CF0402
:1019D000072D10E0433309F042C0085F1F4F102F5E
:1019E0000027110F110F110FC901800F911F4733ED
:1019F000C9F1A9014A0D5B1D4130584098F160E0E2
:101A000078E06B01C21AD30AA601B4010E946504F2
:101A1000A5014C195D09B4016C0D7D1DC8010E9422
:101A20006504EA0CFB1CF982EA8222E030E0AE0198
:101A30004F5F5F4F64E270E0872D0E9434050F9086
:101A40000F90DF91CF911F910F91FF90EF90DF905A
:101A5000CF90BF90AF909F908F907F900895005F40
:101A60001F4FBDCFA501B401DACFEF92FF921F93B4
:101A7000CF93DF931F921F92CDB7DEB7182F22E0CE
:101A800030E0AE014F5F5F4F60E270E00E948A0B72
:101A9000E980FA80FE24EF24FE2422E030E0AE014B
:101AA0004F5F5F4F60E270E0812F0E948A0B898157
:101AB0009A81982789279827E816F90689F487E0FC
:101AC000189FF0011124ED57FB4FF582E482C70106
:101AD0000F900F90DF91CF911F91FF90EF9008959D
:101AE0007C01DBCF1F93CF93DF93182F80E591E02C
:101AF0000E94C901812F0E94350DEC01812F0E94A7
:101B00008608873121F08C3111F0D0E0C0E0CE01A1
:101B1000DF91CF911F910895CF93DF93EC018C85D6
:101B2000883060F40E948A08873111F08C3131F4DA
:101B30008C850E94720D8115984088F3DF91CF91BA
:101B40000895FC018485883010F40C94720D90E0A7
:101B500080E00895CF92DF92EF92FF921F93CF9390
:101B6000DF93182F7B01EA014130584010F0C0E0AC
:101B7000D8E080E591E00E94C901812F0E94350DD7
:101B80006C01812F0E948608873111F08C3121F57C
:101B9000CC16DD0670F380E591E00E94C9019E013C
:101BA000A70170E060E0812F0E94BF0C60E270E04E
:101BB000812F0E94510862E070E0812F0E9434085A
:101BC00084FD0DC0812F0E9486088823B9F080E52E
:101BD00091E00E94C901EFCFD0E0C0E0DCCF40E14E
:101BE00062E070E0812F0E947105CE01DF91CF91FC
:101BF0001F91FF90EF90DF90CF900895D0E0C0E06C
:101C0000F4CF0F931F93CF93DF938C01EA01FC0174
:101C10008485883048F40E94AA0D892B39F481E02C
:101C200090E0F80193838283D0E0C0E0CE01DF91A1
:101C3000CF911F910F9108959F92AF92BF92CF9233
:101C4000DF92EF92FF920F931F93CF93DF938C015C
:101C50005B01942EE52EFC01C688D788F08C80E5C8
:101C600091E00E94C9018F2D0E94350DC92DDE2DF6
:101C70008C179D0708F4EC019E01A501B6018F2D7C
:101C80000E94BF0CF801868997898C0F9D1F978B46
:101C9000868BCE01DF91CF911F910F91FF90EF9036
:101CA000DF90CF90BF90AF909F900895FF920F93D9
:101CB0001F93CF93DF931F921F92CDB7DEB7F82EFD
:101CC00022E030E0AE014F5F5F4F66E270E00E94BD
:101CD0008A0B09811A8110270127102722E030E0A2
:101CE000AE014F5F5F4F66E270E08F2D0E948A0B5E
:101CF00089819A819827892798270817190749F415
:101D0000C8010F900F90DF91CF911F910F91FF901D
:101D100008958C01E3CF1F93CF93DF93182F87E0B3
:101D2000189FE0011124CD57DB4F888199810097DE
:101D300061F480E591E00E94C901812F0E94560E56
:101D40002E81821B910999838883DF91CF911F9106
:101D500008959F92AF92BF92CF92DF92EF92FF923F
:101D60000F931F93CF93DF93EC017B018091CF04FE
:101D7000811121C01B821A8288EE93E0A0E0B0E0BE
:101D80008C839D83AE83BF8384E692E099838883AE
:101D900088E08C8788EE93E09E878D87CE01DF9167
:101DA000CF911F910F91FF90EF90DF90CF90BF9058
:101DB000AF909F90089534E0932E833311F028E084
:101DC000922E8BEBC82E84E0D82E10E098E0B92E2E
:101DD000A12CD6012D913D916D01F7018481958152
:101DE0002817390791F4812F0E948A08082F87311C
:101DF00011F08C3139F5812F0E948B0E892B59F50A
:101E00000C3119F4812F0E9461081F5F9112E1CFFC
:101E1000A11008C0D701ED91FC910084F185E02D5F
:101E2000C70119951B821A8288EE93E0A0E0B0E00A
:101E30008C839D83AE83BF8384E692E099838883FD
:101E4000BC86A8CF843149F08111DFCFF6013297EB
:101E500011821082DACFB12ED8CFAA24A394D5CF85
:101E60008F929F92AF92BF92CF92DF92EF92FF92AA
:101E70000F931F93CF93DF93CDB7DEB72F970FB696
:101E8000F894DEBF0FBECDBF5C014B017A0180919B
:101E9000CF048823C9F104E0833309F008E0B501D9
:101EA000CE0101960E94A90E8BEBC82E84E0D82E9D
:101EB00010E0F601219131916F01F5018481958146
:101EC0002817390751F4812F0E948A08873129F495
:101ED000A701B401812F0E94AA0D1F5F0113E9CF52
:101EE000C7012F960FB6F894DEBF0FBECDBFDF91AE
:101EF000CF911F910F91FF90EF90DF90CF90BF9007
:101F0000AF909F908F900895F12CE12CE9CFFC01C8
:101F10008485883010F40C948B0E90E080E0089556
:101F20004F925F927F928F929F92AF92BF92CF9289
:101F3000DF92EF92FF920F931F93CF93DF931F9245
:101F40001F92CDB7DEB7782E6B014A01A82EB12CB7
:101F500027E0829FC0011124FC01ED57FB4F7F0158
:101F60000081118180E591E00E94C90108151905E1
:101F700054F4872D0E94560EF70126818C01021B16
:101F80001109118300830115110519F5872D0E9490
:101F90008608843159F0882349F001E010E08C3143
:101FA00011F410E000E0119501951109C8010F909E
:101FB0000F90DF91CF911F910F91FF90EF90DF90E5
:101FC000CF90BF90AF909F908F907F905F904F90F9
:101FD0000895801691060CF4840187E08A9DF00133
:101FE0008B9DF00D1124ED57FB4FE280F380C1145F
:101FF000D10451F12701F7E05F22872D0E942605C9
:10200000840D951D2091CF04273309F453C0980106
:10201000240D351D2130384008F44CC020E038E054
:10202000490184189508A401B6010E94A907260158
:10203000480C591C6801C818D908872D0E9426052C
:10204000A601B2010E94A907E00EF11E87E08A9D59
:10205000F0018B9DF00D1124ED57FB4FF382E282CE
:1020600020813181201B310B318320838681800FB9
:10207000912F911D8A3F910510F4232BF1F487E0F5
:102080008A9DF0018B9DF00D1124ED57FB4F1682B8
:10209000F982EA8222E030E0AE014F5F5F4F68E2F2
:1020A00070E0872D0E94340560E470E0872D0E9467
:1020B00051087CCFA801B601C5CF868377CFCF93D7
:1020C000DF93FC01218D328D2115310529F48FEF2D
:1020D0009FEFDF91CF910895EC01808D4217530758
:1020E00008F0A9010E94900F1816190684F7298D8F
:1020F0003A8D281B390B3A8F298FEBCF0F931F9303
:10210000CF93DF931F92CDB7DEB7FC01218D328DC7
:10211000232B41F48FEF9FEF0F90DF91CF911F9111
:102120000F9108958C0141E050E0BE016F5F7F4F39
:10213000FC01808D0E94900F181619065CF7F801BB
:10214000818D928D0197928F818F898190E0E4CF6C
:10215000CF93DF931F92CDB7DEB741E050E0BE01D1
:102160006F5F7F4FFC0184850E94900F181619063F
:1021700034F4898190E00F90DF91CF9108958FEF33
:102180009FEFF9CFFC018485883010F40C94900FF8
:1021900090E080E008958F929F92AF92BF92CF928D
:1021A000DF92EF92FF920F931F93CF93DF9300D0B4
:1021B00000D000D01F92CDB7DEB79091CF0491111F
:1021C00015C018E0812F2A960FB6F894DEBF0FBE17
:1021D000CDBFDF91CF911F910F91FF90EF90DF90D6
:1021E000CF90BF90AF909F908F90089528E0F22EEF
:1021F000933311F494E0F92E6B01082F80E591E000
:102200000E94C9019E012F5F3F4F5901490110E013
:10221000812F0E948608F40181934F018823C1F029
:102220001F5FF112F5CFF12CF50191915F019D3106
:1022300049F0983139F09A51923020F0F3941F11FF
:10224000F3CFBFCF60E170E08F2D0E9451081F2DAA
:10225000E12EF12CF701EE0FFF1FE554FB4F118229
:10226000108283EE93E00197F1F7402F70E060E079
:10227000812F0E9471054FEF62E070E0812F0E9474
:102280007105B601CD2889F4809100029091010278
:1022900001968115F0EC9F0798F1909301028093CD
:1022A00000026091000270910102812F0E945B0583
:1022B00061E070E0812F0E94510827E02E9DC0014F
:1022C0002F9D900D11249C012D573B4F7901F90151
:1022D0001182108222E030E0AE01475F5F4F68E27A
:1022E00070E0812F0E948A0B89859A85982789271B
:1022F0009827F7019383828316821582148262CF16
:1023000080E090ECCACF0F931F93CF93DF93EC0143
:102310008B01888D883010F40E946D08B80182E02E
:102320000E94CB10888F883050F41D870C871A8E3E
:10233000198E81E0DF91CF911F910F91089580E078
:10234000F9CF0F931F93CF938C01FC0164817581AA
:1023500081E20E94CB10C82F8830F8F480E591E02C
:102360000E94C9018C2F0E948608833131F08C2F86
:10237000CF911F910F910C94610862E070E08C2F57
:102380000E945108F80184819581EC2FF0E0EE0F56
:10239000FF1FE554FB4F91838083CF911F910F91D5
:1023A00008950F931F93CF93DF9300D000D0CDB744
:1023B000DEB78C0186EA92E09A838983FB018281F1
:1023C0009381A481B5818B839C83AD83BE83CE0131
:1023D00001960E947509C8010E94A11126960FB6A8
:1023E000F894DEBF0FBECDBFDF91CF911F910F914B
:1023F0000895CF92DF92EF92FF921F93CF93DF93D6
:10240000EC017B016A018C85883048F40E948A08BF
:10241000882319F08C850E94610888E08C87F70179
:1024200082819381A481B5810097A105B10551F402
:1024300090E080E0DF91CF911F91FF90EF90DF90CF
:10244000CF9008958F3F9F4FAF4FBF4F89F370E0FC
:1024500060E081E20E94CB10182F8C87883040F713
:1024600080E591E00E94C901A7014E5F5F4F24E023
:1024700030E06CE070E0812F0E943405B601812FBE
:102480000E94450564E070E0812F0E9451080E947F
:10249000EF026B017C018C850E948A08873111F163
:1024A0008C3101F1882321F20E94EF02AB01BC01C3
:1024B0004C195D096E097F098D859E85B0E0A0E00D
:1024C00084179507A607B70738F061E070E080E051
:1024D00090E00E94BC02DFCF8C850E946D0888E0EE
:1024E0008C87A6CF81E090E0A5CF0F931F93CF9369
:1024F000DF931F921F92CDB7DEB7FC0124852830F1
:10250000E0F48C0180E591E00E94C90122E030E016
:10251000AE014F5F5F4F60E170E0F80184850E947B
:102520008A0B89819A819827892798270F900F9085
:10253000DF91CF911F910F91089590E080E0F6CF49
:102540000F931F93CF93DF931F921F92CDB7DEB7E8
:10255000FC0124852830E0F48C0180E591E00E94A4
:10256000C90122E030E0AE014F5F5F4F64E070E0F0
:10257000F80184850E948A0B89819A81982789278E
:1025800098270F900F90DF91CF911F910F91089591
:1025900090E080E0F6CF0F931F93CF93DF9300D0AE
:1025A00000D01F921F92CDB7DEB78C01D80159968B
:1025B0004D915C915A974115510551F0ED91FC9167
:1025C000048CF58DE02D70E060E0C8011995EECF28
:1025D000F801808D0E948B0E892BB1F148E050E00C
:1025E000BE016F5F7F4FD80158968C910E94900F6B
:1025F00018161906F4F4D801509684E0FE013196BD
:1026000001900D928A95E1F78D8190E0982F8827AF
:102610002E81820F911DF801958B848B8F81282F3D
:1026200030E0322F22278885820F932F911D928FC1
:10263000818F28960FB6F894DEBF0FBECDBFDF9115
:10264000CF911F910F91089590E080E0F2CF4F92CB
:102650005F926F927F928F929F92AF92BF92CF9232
:10266000DF92EF92FF920F931F93CF93DF93CDB73B
:10267000DEB763970FB6F894DEBF0FBECDBF7C0107
:102680006B013A01FB0120E090E080E06AE03191CB
:10269000332309F461C040ED430F4A3008F04DC0C8
:1026A000689FA001699F500D1124CA01C097830F34
:1026B000911D37FD9A958F3F910549F340F3F7013E
:1026C000428153816481758180919B0590919C0525
:1026D000A0919D05B0919E05481759076A077B0791
:1026E00009F40DC28701085F1F4F0E94EF026F704F
:1026F00077277C5FC8010E948311813009F004C2F2
:1027000086EA92E09A838983F70182819381A4818A
:10271000B5818B839C83AD83BE8345E350E0BE01CE
:102720006F5F7F4FC8010E94DC05892BA9F5D12C72
:10273000C12CC8010E94790817C03E3209F0BFCFF2
:10274000233009F4BCCFD301A20FB11D12968C9394
:102750002F5F90E080E09BCF233009F0B0CFF301F2
:102760008583CC24C394D12CC60163960FB6F8940C
:10277000DEBF0FBECDBFDF91CF911F910F91FF90B4
:10278000EF90DF90CF90BF90AF909F908F907F9011
:102790006F905F904F9008950E94EF02F70177834A
:1027A000668342E050E0B7016A5F7F4FC8010E9434
:1027B0001C0E81E090E09A83898342E050E0BE01E4
:1027C0006F5F7F4FC8010E941C0E80E091E09A83EA
:1027D000898342E050E0BE016F5F7F4FC8010E94D5
:1027E0001C0E1A82198242E050E0BE016F5F7F4FDB
:1027F000C8010E941C0E42E050E0BE016F5F7F4F97
:10280000C8010E941C0E42E050E0BE016F5F7F4F86
:10281000C8010E941C0E5601F6018081882301F137
:102820006501F60181912F01882311F08E32B1F4F8
:1028300046018A189B081814190474F48D8641E027
:1028400050E0BE01635F7F4FC8010E941C0EA401CF
:10285000B501C8010E941C0E5201DECF6201E1CF1A
:102860001D8641E050E0BE01635F7F4FC8010E94BA
:102870001C0EC12CDD24D394DA82C98242E050E0E0
:10288000BE016F5F7F4FC8010E941C0EDA82C982B1
:1028900042E050E0BE016F5F7F4FC8010E941C0EF6
:1028A000C8010E941B09892B09F441CFF3E0AF2E28
:1028B000B12C230122E0420E511CD4C0F701428109
:1028C000538164817581808D918DA28DB38D481760
:1028D00059076A077B0709F008C1848D958DC59754
:1028E00009F003C181A192A15DEFC52EDD24DA9428
:1028F0000C970CF4ADC04CE050E0BE016F5F7F4F11
:10290000C8010E945F108B819C8198278927982796
:102910009A8B898BF7014681578129813A81421729
:10292000530709F0E7C097FFE5C08F7092703BEF47
:10293000C32EDD24DA94892B09F08AC06F80788455
:102940007624672476242AEFC22EDD24DA946114DB
:10295000710409F47DC0D12CC12C8D819E819827F2
:1029600089279827C816D906F8F441E050E0BE013F
:10297000635F7F4FC8010E945F104D85442331F093
:1029800050E070E060E0C8010E945F108D85811109
:10299000ECCF44E050E070E060E0C8010E945F10BE
:1029A000FFEFCF1ADF0AD9CF912C812C41E050E004
:1029B000BE016D5E7F4FC8010E945F104B89842F5E
:1029C000807C09F06CC0442331F050E070E060E09E
:1029D000C8010E945F108B898111E8CF42E050E06E
:1029E000BE01615F7F4FC8010E945F1042E050E06E
:1029F000BE01635F7F4FC8010E945F1044E050E05A
:102A000070E060E0C8010E945F1042E050E0BE014B
:102A10006F5E7F4FC8010E945F108F85988949893A
:102A20005A898115914009F043C0CD84DE84DC24AD
:102A3000CD24DC2481E0C816D104D1F541155440E1
:102A400009F04AC044E050E0B201C8010E945F10A2
:102A500021E0A21AB10809F46CCEFFEFCF16DF0611
:102A600009F067CE0E94EF023B014C01C8010E94B1
:102A7000CB12181619060CF421CF0E94EF0266192A
:102A8000770988099909693873418105910548F5E5
:102A900062E370E080E090E00E94BC02E7CF41E09A
:102AA00050E070E060E0C8010E945F101B8A93CF85
:102AB00054274527542770E060E0C8010E945F104A
:102AC000FFEF8F1A9F0A6814790409F06FCF96EF11
:102AD000C92EDD24DA94BCCFE7EFCE2EDD24DA94C4
:102AE000B7CFCC24CA94DC2CB3CF6EEFC62EDD2436
:102AF000DA94AECF4CEFC42EDD24DA94A9CF8EEF5A
:102B0000C82EDD24DA9430CED12CC12C2DCECF921C
:102B1000DF92EF92FF920F931F93CF93DF93CDB786
:102B2000DEB7AF970FB6F894DEBF0FBECDBF7C0106
:102B30006A0106EA12E01A8309831C861B8688EE66
:102B400093E0A0E0B0E08D879E87AF87B88B89E1E6
:102B500092E09A878987188F0F8B198E1A8E1B8E99
:102B60001C8E88E089A31BA70AA71CA61DA61EA66B
:102B70001FA680918F0590919005A0919105B0912D
:102B800092058EA39FA3A8A7B9A78B839C83AD832F
:102B9000BE8318861F82AE01465D5F4FCE0101964F
:102BA0000E94271381309105B1F4D701ED91FC917A
:102BB0000488F589E02D1DA30CA38CA59DA5AEA5C9
:102BC000BFA58EA39FA3A8A7B9A7A601BE016C5D50
:102BD0007F4FC7011995AF960FB6F894DEBF0FBEB1
:102BE000CDBFDF91CF911F910F91FF90EF90DF90BC
:102BF000CF900895CF92DF92EF92FF920F931F93A1
:102C0000CF93DF93CDB7DEB7AF970FB6F894DEBFA3
:102C10000FBECDBF8C016B017A0186EA92E09A83E8
:102C200089831B821C821D821E821C861B8648EEA5
:102C300053E060E070E04D875E876F87788B29E115
:102C400032E03A872987988F8F8B198E1A8E1B8EC8
:102C50001C8E28E029A39BA78AA71CA61DA61EA63A
:102C60001FA6D8011C968C91883060F40E948A08B7
:102C7000882321F0F80184850E94610888E0D8014A
:102C80001C968C9380918F0590919005A091910551
:102C9000B09192058EA39FA3A8A7B9A78B839C830D
:102CA000AD83BE8318861F82AE01465D5F4FB601BD
:102CB000CE0101960E9427130097C1F0D801ED9133
:102CC000FC910684F785E02D86EA92E09DA38CA313
:102CD0008CA59DA5AEA5BFA58EA39FA3A8A7B9A7A8
:102CE000A701BE016C5D7F4FC8011995AF960FB665
:102CF000F894DEBF0FBECDBFDF91CF911F910F9132
:102D0000FF90EF90DF90CF900895EF92FF920F9396
:102D10001F93CF93DF9300D01F92CDB7DEB78C0106
:102D20007B01FB0184858830A8F086EA92E0F801F7
:102D3000918380831282138214821582C8010F90BE
:102D40000F900F900F90DF91CF911F910F91FF90F7
:102D5000EF90089580E591E00E94C90124E030E001
:102D6000AE014F5F5F4F6CE070E0F70184850E9419
:102D70008A0B86EA92E0F8019183808389819A81A7
:102D8000AB81BC8182839383A483B583D7CF1F9209
:102D90000F920FB60F9211242F933F938F939F930F
:102DA000AF93BF9380917B0490917C04A0917D04AC
:102DB000B0917E0430917A0423E0230F2D3758F52B
:102DC0000196A11DB11D20937A0480937B049093FA
:102DD0007C04A0937D04B0937E0480917F04909145
:102DE0008004A0918104B09182040196A11DB11DBF
:102DF00080937F0490938004A0938104B093820415
:102E0000BF91AF919F918F913F912F910F900FBEE6
:102E10000F901F90189526E8230F0296A11DB11D53
:102E2000D2CF1F920F920FB60F9211240BB60F92B2
:102E30002F933F934F935F936F937F938F939F93C2
:102E4000AF93BF93EF93FF9382ED94E00E946F03E3
:102E5000FF91EF91BF91AF919F918F917F916F9172
:102E60005F914F913F912F910F900BBE0F900FBE2E
:102E70000F901F9018951F920F920FB60F9211246A
:102E80000BB60F922F938F939F93EF93FF93E09145
:102E9000E204F091E3048081E091E804F091E90418
:102EA00082FD1DC090818091EB048F5F8F73209114
:102EB000EC04821741F0E091EB04F0E0EE52FB4F9E
:102EC000958F8093EB04FF91EF919F918F912F91BC
:102ED0000F900BBE0F900FBE0F901F901895808122
:102EE000F2CF1092D5041092D40448EE53E060E083
:102EF00070E04093D6045093D7046093D804709345
:102F0000D90482E592E09093D3048093D20485ECB7
:102F100090E09093DF048093DE0484EC90E0909343
:102F2000E1048093E00480EC90E09093E3048093CC
:102F3000E20481EC90E09093E5048093E40482EC59
:102F400090E09093E7048093E60486EC90E0909301
:102F5000E9048093E8041092EB041092EC041092C0
:102F6000ED041092EE0486EA92E09093700580934F
:102F70006F051092710510927205109273051092F0
:102F800074059093760580937505109277051092DD
:102F900078051092790510927A0590937C058093BC
:102FA0007B0510927D0510927E0510927F05109290
:102FB000800590938205809381051092830510927D
:102FC000840510928505109286059093880580935C
:102FD00087051092890510928A0510928B05109230
:102FE0008C0590939405809393051092950510920B
:102FF0009605109297051092980590938E058093F0
:103000008D0510928F0510929005109291051092E7
:10301000920590939A058093990510929B051092C2
:103020009C0510929D0510929E059093A00580939B
:103030009F051092A1051092A2051092A30510926F
:10304000A4059093A6058093A5051092A70510925C
:10305000A8051092A9051092AA059093D105809316
:10306000D0051092D2051092D3051092D40510927B
:10307000D5059093CB058093CA0580EC8093CC0551
:1030800088EA8093CD051092CE058DE88093CF0518
:103090008091C00581112EC01092AE051092AD0531
:1030A00086E992E09093AC058093AB0586EF91E0C2
:1030B0009093B0058093AF051092B4051092B305BC
:1030C0004093B5055093B6056093B7057093B80566
:1030D00084E692E09093B2058093B10588E08093F6
:1030E000BD0588EE93E09093BF058093BE0581E017
:1030F0008093C0058BEA95E09093C9058093C8053D
:103100000895CF93DF93CDB7DEB7C257D1090FB67D
:10311000F894DEBF0FBECDBF789484B5826084BDC5
:1031200084B5816084BD85B5826085BD85B58160CB
:1031300085BD80916E00816080936E001092810049
:103140008091810082608093810080918100816004
:1031500080938100809180008160809380008091C5
:10316000B10084608093B1008091B0008160809351
:10317000B0008091910082608093910080919100D5
:103180008160809391008091900081608093900095
:103190008091A10082608093A1008091A100816054
:1031A0008093A1008091A00081608093A000809115
:1031B00021018260809321018091210181608093AF
:1031C00021018091200181608093200180917A000B
:1031D000846080937A0080917A00826080937A0084
:1031E00080917A00816080937A0080917A00806873
:1031F00080937A001092C100E091E204F091E30420
:1032000082E08083E091DE04F091DF041082E0919F
:10321000E004F091E10480E180831092EA04E091FF
:10322000E604F091E70486E08083E091E404F09105
:10323000E504808180618083E091E404F091E504FD
:10324000808188608083E091E404F091E5048081CE
:1032500080688083E091E404F091E50480818F7DB3
:10326000808385E3809302028091C8059091C9050F
:1032700026EA32E03A8329834091CC055091CD056E
:103280006091CE057091CF054B835C836D837E8307
:10329000BE016F5F7F4F0E94D1116BEA72E082ED39
:1032A00094E00E94950787EB92E00E94790762ED17
:1032B00074E08AEC95E00E942F0768EA72E082EDE4
:1032C00094E00E94D4060E94C00661E081E30E945F
:1032D000660260E080E30E94660261E08EE20E9486
:1032E000660261E080E10E94660260E08EE20E9478
:1032F000380261E081E30E94380260E080E10E94D0
:1033000038026CEB72E082ED94E00E9495070FE3C7
:1033100012E0D801FD908D0161E08F2D0E946602C0
:1033200060E08F2D0E943802B2E006341B0789F757
:1033300062EC72E082ED94E00E94950706E412E0F0
:103340006EE4C62E62E0D62EF801F180E08061E0E6
:103350008E2D0E94660261E08F2D0E94660260E061
:103360008E2D0E94380260E08F2D0E9438020E5F81
:103370001F4FC016D10641F75E01FDE3AF0EB11C31
:103380002E0125E1420E511CAE01435E5F4FE196D6
:103390005FAF4EAFE1978091C005811132C01092AE
:1033A000AE051092AD0586E992E09093AC0580934E
:1033B000AB0586EF91E09093B0058093AF05109236
:1033C000B4051092B30588EE93E0A0E0B0E08093DE
:1033D000B5059093B605A093B705B093B80584E6FC
:1033E00092E09093B2058093B10588E08093BD058B
:1033F00088EE93E09093BF058093BE0581E08093B3
:10340000C0056BEA75E0CE01805A9F4F0E94A90E5D
:10341000AD968FADAD978830E8F581EB95E00E94D1
:10342000C008811137C0A4968EAD9FADA49790932C
:10343000B4058093B305A8968CAD9DADAEADBFAD80
:10344000A8978093B5059093B605A093B705B09360
:10345000B805AC968CAD9DADAEADBFADAC978093CD
:10346000B9059093BA05A093BB05B093BC05AD9682
:103470008FADAD978093BD05AF968EAD9FADAF97E5
:103480009093BF058093BE0568EC72E082ED94E0F6
:103490000E94950781EB95E00E94870F8C0118161A
:1034A00019060CF056C3750181EB95E00E94A81037
:1034B000D7018D937D01CD018A199B098017910752
:1034C0009CF3B8016150710980916A04811103C0B5
:1034D00081E080936A0480917204811103C081E0CD
:1034E000809372048DAD89A721E030E081E090E007
:1034F0004EE7E42E5AEAD52EE9E2F0E0EC0FFD1F8C
:10350000E80FF91F2617370730F5D501A20FB31FB3
:10351000FC90BDE7FB121CC0A9014F5F5F4F401735
:103520005107B0F4D501A40FB51FAC91AD3569F0CA
:10353000AE3529F0AA3231F40196D08202C001964C
:10354000E0829A012F5F3F4FD7CF0196F082F9CFEB
:103550000196F082F7CF6A0D7B1DDB01FC90F082B3
:1035600084E1F20111928A95E9F7E9A4FEE7EF16EA
:1035700079F066EF72E082ED94E00E9495078EE7A5
:103580008D8B80EE8E8B8AEA8F8B03E010E0CFC0AC
:103590002AEAF21649F067E073E082ED94E00E94B7
:1035A0009507ED8A81EEEECF8AA5803BD1F466E1E6
:1035B00073E082ED94E00E9495070E94C0068C01A2
:1035C0000E945206D80112969C91129713968C91E4
:1035D000ED8A20EC2E8B9F8B888FF98E05E010E012
:1035E000A6C0813B09F00DC16EE273E082ED94E06C
:1035F0000E9495077BA4072D10E0C801019707974B
:1036000028F0ED8A82EE8E8B80ED0FC1FCA49DA484
:103610008FE493E00E9479078F2D0E947E0788EE49
:1036200093E0F89E6001F99ED00C11240D2C000C43
:10363000EE08FF0887E693E00E9479072AE0B701C9
:10364000A60182ED94E00E94E30668EA72E082ED52
:1036500094E00E94D406892D90E0B0E0A0E08A308A
:103660009105A105B10508F0ACC0292D30E0A4E614
:10367000B0E00E94191EC60ED71EE81EF91E80E19A
:1036800090E00E94301E4C01FC0111830083DC019C
:10369000C382D482E582F6821786F801E25CFD4F90
:1036A000108112961C93C114D104E104F10409F0B5
:1036B00095C260E0812F0E94380260E0812F0E9455
:1036C00038028EE78D8B81EC8E8B7F8A83E090E0D1
:1036D000C114D104E104F104F9F0C701B60128EEE8
:1036E00033E040E050E00E94F71D022F162FD72E46
:1036F0007C0124E630E040E050E00E94F71D672B9B
:10370000682B692B09F06CC020930000088F809112
:103710000000898F85E090E08C010F5F1F4F840DC2
:10372000951D2AEAFC012083C4010E94CC1E8D89CC
:103730008983DE01569681E090E0015011093DE752
:103740006EE57DE52AE2D22E7C01EFEFEE1AFE0A4D
:10375000E1E0F0E0EC0FFD1FE80FF91FAD014419A7
:1037600055094017510708F0E1C12D9141E050E0A3
:103770004C0F5D1FE40EF51E2E3709F4CAC12A3A1C
:1037800009F4CFC12D3789F4E1E0F0E0EC0FFD1F23
:10379000E80FF91F3083FC01319641E050E04C0FF7
:1037A0005D1FE40FF51F02967083AC014F5F5F4F02
:1037B000E1E0F0E0EC0FFD1F8E0F9F1FFC01208366
:1037C000AEC184369105A105B10528F4292D30E05C
:1037D000AAE0B0E04ECFC80ED91EEA1EFB1E4FCFA6
:1037E000612F7D2DC7012AE030E040E050E00E94CB
:1037F000F71D672B682B692B09F486CF1093000007
:1038000085CF823B09F05AC166E873E082ED94E00F
:103810000E9495076BA422242A94260CF3E0F2154B
:1038200038F4ED8A83EE8E8B81ED8F8BF88E2BC072
:103830008DE993E00E947907862D0E947E077CA483
:103840008FEF870D8E3F28F4ED8A83EE8E8B84ED0B
:10385000ECCF8DA49EA4CFA4D8A839A88FEF830D58
:10386000873018F0ED8A83EECECE2AA9E2962FAFEC
:10387000E297213158F08EE78D8B83EE8E8B85EDAC
:103880008F8B8AEA888F04E010E051CF6AEA73E0F8
:1038900082ED94E00E9495078DE090E00E94301E3A
:1038A0008C01E22DF0E0DC012C9211967C921197B4
:1038B00013969C928E9212971596DC92CE92149744
:1038C00016963C921697E2962FADE29717962C9398
:1038D00017971B961C921E921A971C961C921C9767
:1038E000EE0FFF1FEA5BFD4F808118968C931897AF
:1038F0004181E3964FAFE39719964C9361E07110C5
:1039000060E00E9438028CEB93E00E947907422D20
:1039100050E070E060E02AE082ED94E00E94E3066F
:1039200068EA72E082ED94E00E94D4068BEC93E0AA
:103930000E947907872D0E947E0786ED93E00E9402
:103940007907A40170E060E02AE082ED94E00E9433
:10395000E30668EA72E082ED94E00E94D40682EE0B
:1039600093E00E947907A60170E060E02AE082ED12
:1039700094E00E94E30668EA72E082ED94E00E941F
:10398000D40681EF93E00E947907832D0E947E0781
:103990008EEF93E00E947907E2968FADE2970E9446
:1039A0007E07E32DF0E0E25CFD4F308061E0832D87
:1039B0000E943802F12CE12C22242394D8011C9679
:1039C000DC90E814F90409F44DC0E296BFADE2972B
:1039D000B031F1F0D1103DC00E94C0066C010E94D0
:1039E0005206F60182819381E2960FACE29702C003
:1039F000969587950A94E2F7E296FFADE297F33049
:103A000028F181709927892B19F0D8011C962C92E6
:103A100061E0E3968FADE3970E943802D8011A96D1
:103A20008D919C911B9701961B969C938E931A9750
:103A300060E0E3968FADE3970E9438028BEA94E052
:103A40000197F1F7BFEFEB1AFB0AB8CF809590957D
:103A5000D8CFF80184819581009721F00197958353
:103A60008483D6CF6CE074E082ED94E00E949507E9
:103A700060E0832D0E9438028EE78D8B82EC8E8B66
:103A80006F8A788EF80192858385998F8A8FDB8E75
:103A90008AEA8C8F7201E1964EAD5FADE1974E15CB
:103AA0005F0531F0D7018D917D010E947E07F3CF34
:103AB000C8010E94CC1E08E010E039CE833B21F5FE
:103AC0006DE174E082ED94E00E9495070BA58FEF05
:103AD000800F873018F0ED8A84EE95CD1CA512304A
:103AE00028F0ED8A84EE8E8B86ED9FCEE02FF0E0FD
:103AF000E25CFD4F612F80810E943802ED8A83ECE9
:103B00008E8B0F8B188F69CDED8A8AEE8E8BFF8A94
:103B10003CCD3083AC014E5F5F4FF7016083CA013B
:103B200013CE30830296F701D0822ECE040D151DE0
:103B3000D8018C91808381EB95E00E94C008882396
:103B400059F0A701BE016F5F7F4F81EB95E00E94A6
:103B5000010E0E94FE031FCC6BEA75E0CE018F5A66
:103B60009F4F0E94A90E6E968FAD6E97883078F5A4
:103B700065962EAD3FAD65973093B4052093B305A0
:103B800069964CAD5DAD6EAD7FAD69974093B5055F
:103B90005093B6056093B7057093B8056D964CAD1C
:103BA0005DAD6EAD7FAD6D974093B9055093BA058D
:103BB0006093BB057093BC058093BD05A0968EAD48
:103BC0009FADA0979093BF058093BE05BACF62E3E7
:103BD00074E082ED94E00E949507BBCF61E0812FF5
:103BE0000E943802C701B6010E94BC0266CDA1E264
:103BF0001A2EAA1BBB1BFD010DC0AA1FBB1FEE1F67
:103C0000FF1FA217B307E407F50720F0A21BB30BB1
:103C1000E40BF50B661F771F881F991F1A9469F72D
:103C200060957095809590959B01AC01BD01CF0189
:103C30000895A29FB001B39FC001A39F700D811D85
:103C40001124911DB29F700D811D1124911D0895A5
:103C5000EE0FFF1F881F8BBF0790F691E02D199480
:103C60000F931F93CF93DF938230910510F482E07E
:103C700090E0E091D805F091D90530E020E0B0E087
:103C8000A0E0309799F42115310509F44AC0281BAA
:103C9000390B24303105D8F58A819B816115710576
:103CA00089F1FB0193838283FE0111C04081518120
:103CB0000281138148175907E0F04817590799F412
:103CC000109761F012960C93129713961C933296EC
:103CD000CF01DF91CF911F910F9108950093D805E7
:103CE0001093D905F4CF2115310551F04217530730
:103CF00038F0A901DB019A01BD01DF01F801C1CF54
:103D0000EF01F9CF9093D9058093D805CDCFFE016F
:103D1000E20FF31F81939193225031093983288355
:103D2000D7CF2091D6053091D705232B41F4209190
:103D30000B0230910C023093D7052093D6052091C9
:103D4000090230910A022115310541F42DB73EB721
:103D500040910D0250910E02241B350BE091D605C7
:103D6000F091D705E217F307A0F42E1B3F0B28179D
:103D7000390778F0AC014E5F5F4F2417350748F0E4
:103D80004E0F5F1F5093D7054093D60581939193B3
:103D90009FCFF0E0E0E09CCFCF93DF930097E9F076
:103DA000FC01329713821282A091D805B091D905F7
:103DB000ED0130E020E01097A1F420813181820FE5
:103DC000931F2091D6053091D7052817390709F0A0
:103DD00061C0F093D705E093D605DF91CF910895A8
:103DE000EA01CE17DF07E8F54A815B819E014115A4
:103DF0005105B1F7E901FB83EA8349915991C40F59
:103E0000D51FEC17FD0761F4808191810296840F24
:103E1000951FE90199838883828193819B838A839B
:103E2000F0E0E0E012968D919C9113970097B9F520
:103E30002D913C911197CD010296820F931F2091F5
:103E4000D6053091D7052817390739F6309751F53F
:103E50001092D9051092D805B093D705A093D60536
:103E6000BCCFD383C28340815181840F951FC81773
:103E7000D90761F44E5F5F4F88819981480F591FC0
:103E8000518340838A819B819383828321153105ED
:103E900009F0B0CFF093D905E093D8059ECFFD018E
:103EA000DC01C0CF13821282D7CFDC0101C06D9339
:103EB00041505040E0F70895F894FFCF00C00ADE6B
:103EC000ADBEEFFEED0000DA05800001005E0000EF
:103ED00000000000008E051C0E4F06D001CC017EB4
:103EE00010610B83117E0C7908DC0587151B09CB4B
:103EF000125F102B061B0617061306161718191A41
:103F00001B1C200D210C220B230A00000000910332
:103F1000FB022803DE03590337034B0300000000B4
:103F2000C505010EA10D8C0D870FA810700BF9119E
:103F3000FA15C210E208C00845064D06D206420630
:103F40004006BA053606A012851675123206000024
:103F50000000A405300F4F064E06A1119408000082
:103F600000002F070D0A007463702068616E646C96
:103F700065720049503A200072656C6179006D6F7E
:103F8000746F720074637020636C69656E74206472
:103F90006973636F6E6E656374656420616E64201F
:103FA0006E657720636C69656E742061636365700C
:103FB0007400737461727420627974652065727222
:103FC0006F7200656E642062797465206572726F2D
:103FD000720073656E736F722072657175657374AC
:103FE0002064697370617463680072656C61792024
:103FF000636F6E74726F6C20776974682074696D7A
:104000006520646973706174636800646174612021
:10401000312028696E746567657220706172742939
:104020003A20006461746120312028696E746567EC
:104030006572207061727429202A20313030303A44
:1040400020006D6F746F7220636F6E74726F6C20DE
:104050006469737061746368006D6F746F725F6E12
:10406000756D626572006D6F746F722072756E206F
:1040700065786563757465006D6F746F72206E7519
:104080006D6265723A20006D6F746F724469723AA6
:1040900020006D6F746F72537465703A20006D6FFD
:1040A000746F72416464537465703A200072656C79
:1040B00061794272616B653A200073656E736F724D
:1040C0004C696D69743A200072656C6179206F6685
:1040D000662074696D696E670072656C6179206F26
:1040E0006E2F6F66662068616E646C657200746323
:1040F00070206E6F7420617661696C61626C6520FE
:10410000746F2073656E6420726573706F6E736573
:0A411000206D6573736167650000A0
:020000040003F7
:10E000000D9489F10D94B2F10D94B2F10D94B2F129
:10E010000D94B2F10D94B2F10D94B2F10D94B2F1F0
:10E020000D94B2F10D94B2F10D94B2F10D94B2F1E0
:10E030000D94B2F10D94B2F10D94B2F10D94B2F1D0
:10E040000D94B2F10D94B2F10D94B2F10D94B2F1C0
:10E050000D94B2F10D94B2F10D94B2F10D94B2F1B0
:10E060000D94B2F10D94B2F10D94B2F10D94B2F1A0
:10E070000D94B2F10D94B2F10D94B2F10D94B2F190
:10E080000D94B2F10D94B2F10D94B2F10D94B2F180
:10E090000D94B2F10D94B2F10D94B2F10D94B2F170
:10E0A0000D94B2F10D94B2F10D94B2F10D94B2F160
:10E0B0000D94B2F10D94B2F10D94B2F10D94B2F150
:10E0C0000D94B2F10D94B2F10D94B2F10D94B2F140
:10E0D0000D94B2F10D94B2F10D94B2F10D94B2F130
:10E0E0000D94B2F141546D656761323536300041AF
:10E0F000726475696E6F206578706C6F72657220DE
:10E1000073746B3530305632206279204D4C530099
:10E11000426F6F746C6F616465723E004875683F52
:10E1200000436F6D70696C6564206F6E203D200048
:10E130004350552054797065202020203D20005FF9
:10E140005F4156525F415243485F5F3D2000415658
:10E1500052204C696243205665723D20004743437C
:10E160002056657273696F6E203D20004350552024
:10E1700049442020202020203D20004C6F7720663D
:10E18000757365202020203D20004869676820665F
:10E190007573652020203D200045787420667573D6
:10E1A00065202020203D20004C6F636B2066757336
:10E1B000652020203D20004D617220203720323024
:10E1C000313300312E362E3800342E332E350056A2
:10E1D00023202020414444522020206F7020636F70
:10E1E00064652020202020696E73747275637469E1
:10E1F0006F6E2061646472202020496E74657272B3
:10E20000757074006E6F20766563746F7200726A49
:10E210006D702020006A6D70200057686174207056
:10E220006F72743A00506F7274206E6F7420737541
:10E2300070706F72746564004D7573742062652030
:10E2400061206C6574746572002000577269747483
:10E25000696E672045450052656164696E672045B7
:10E26000450045452065727220636E743D00504F35
:10E27000525400303D5A65726F2061646472003FF1
:10E280003D43505520737461747300403D454550C3
:10E29000524F4D207465737400423D426C696E6B41
:10E2A000204C454400453D44756D70204545505215
:10E2B0004F4D00463D44756D7020464C415348001B
:10E2C000483D48656C70004C3D4C69737420492F83
:10E2D0004F20506F72747300513D51756974005234
:10E2E0003D44756D702052414D00563D73686F7707
:10E2F00020696E7465727275707420566563746FF0
:10E30000727300593D506F727420626C696E6B00BD
:10E310002A0011241FBECFEFD1E2DEBFCDBF01E046
:10E320000CBF12E0A0E0B2E0EEE1FDEF03E00BBFB6
:10E3300002C007900D92A030B107D9F712E0A0E01B
:10E34000B2E001C01D92AE30B107E1F70F9460F367
:10E350000D948DFE01E20EBF0FEF0DBF11241FBE05
:10E360000D9460F30D9400F020E030E040ED57E0B4
:10E3700005C0FA013197F1F72F5F3F4F2817390792
:10E38000C0F308959C01260F311DC901A0E0B0E043
:10E390002F5F3F4FABBFFC018791882361F08093D3
:10E3A000C6008091C00086FFFCCF8091C0008064D1
:10E3B0008093C000EACF08958DE08093C6008091DD
:10E3C000C00086FFFCCF8091C00080648093C000B5
:10E3D0008AE08093C6008091C00086FFFCCF8091C8
:10E3E000C00080648093C00008950F94C2F10F9420
:10E3F000DCF10895FC019081992359F09093C600B7
:10E400008091C00086FFFCCF8091C0008064809323
:10E41000C0003196992379F70895282F982F929567
:10E420009F70892F805D8A3308F0895F8093C600D2
:10E430008091C00086FFFCCF8091C00080648093F3
:10E44000C000822F8F70982F905D9A3308F0995FEB
:10E450009093C6008091C00086FFFCCF8091C000E1
:10E4600080648093C00008959C01FB01853691056E
:10E470001CF46330710594F0C90164E670E00F94F8
:10E480002EFE605D7F4F6093C6008091C00086FFC6
:10E49000FCCF8091C00080648093C0002B30310598
:10E4A00014F43297B4F0C90164E670E00F942EFEC4
:10E4B0006AE070E00F942EFE605D7F4F6093C600AF
:10E4C0008091C00086FFFCCF8091C0008064809363
:10E4D000C000C9016AE070E00F942EFEC0968093E0
:10E4E000C6008091C00086FFFCCF8091C000806490
:10E4F0008093C00008951F93182F8EE692EE60E07F
:10E500000F94C2F11093C6008091C00086FFFCCF2B
:10E510008091C00080648093C0000F94DCF11F9153
:10E5200008952F923F924F925F926F927F928F92B7
:10E530009F92AF92BF92CF92DF92EF92FF920F9392
:10E540001F93DF93CF93CDB7DEB762970FB6F894E2
:10E55000DEBF0FBECDBF382E622ECA01DB015C01CB
:10E560006D01772420E2222E2E010894411C511CBB
:10E570008BC081E0A81680E0B80681E0C80680E084
:10E58000D80628F0C601AA27BB270F940DF2BB2797
:10E59000AD2D9C2D8B2D0F940DF28A2D0F940DF225
:10E5A0002092C6008091C00086FFFCCF8091C00001
:10E5B00080648093C0009DE29093C6008091C0006B
:10E5C00086FFFCCF8091C00080648093C0002092C1
:10E5D000C6008091C00086FFFCCF8091C00080649F
:10E5E0008093C00019828601750188249924A1E0D6
:10E5F0003A1651F03A1620F0B2E03B1661F409C029
:10E600000BBFF701779007C0C7010F9477FE782EF4
:10E6100002C0F7017080872D0F940DF22092C60082
:10E620008091C00086FFFCCF8091C0008064809301
:10E63000C000872D8052F401EF70F0708F3520F408
:10E64000E40DF51D708204C0E40DF51D8EE280839B
:10E650000894E11CF11C011D111D0894811C911CE2
:10E6600090E18916910409F0C2CF80E190E0A0E02A
:10E67000B0E0A80EB91ECA1EDB1E198AC2010F9493
:10E68000FAF10F94DCF16A94662009F072CF629679
:10E690000FB6F894DEBF0FBECDBFCF91DF911F91B3
:10E6A0000F91FF90EF90DF90CF90BF90AF909F9031
:10E6B0008F907F906F905F904F903F902F90089534
:10E6C0002F923F924F925F926F927F928F929F9282
:10E6D000AF92BF92CF92DF92EF92FF920F931F9370
:10E6E000DF93CF93CDB7DEB7CD53D1400FB6F894BB
:10E6F000DEBF0FBECDBF01E20EBF0FEF0DBF94B75F
:10E70000F894A89514BE80916000886180936000A1
:10E7100010926000789493FF05C0E0910002F091A0
:10E7200001021995279A2F9A8091C00082608093E8
:10E73000C00080E18093C40088E18093C1000000A4
:10E74000EE24FF24870144E0A42EB12CCC24DD2448
:10E7500024C0C5010197F1F70894E11CF11C011DCB
:10E76000111D21E2E2162EE4F20620E0020720E06D
:10E77000120718F031E0C32ED12CC801B70127ECE5
:10E780003BE140E050E00F9441FE611571058105C9
:10E79000910519F485B1805885B98091C00087FD35
:10E7A00003C0C114D104A9F2A6014F5F5F4FC25E3E
:10E7B000DE4F59834883CE51D140C25EDE4F8881FF
:10E7C0009981CE51D140019711F00D9410FEC05D9A
:10E7D000DE4F19821882C053D14060E0C15DDE4F28
:10E7E0001882CF52D14088249924C35DDE4F19820C
:10E7F0001882CD52D140C05EDE4F188219821A8233
:10E800001B82C052D140CE5CDE4F188219821A8220
:10E810001B82C253D140EE24FF2487010BBFF701B6
:10E8200007911691C45CDE4F19830883CC53D14005
:10E830000D940BFEC25EDE4F28813981CE51D1404E
:10E840002130310509F52091C600C25EDE4F1982E4
:10E850001882CE51D14022C02F5F3F4F4F4F5F4FA4
:10E86000213082E138078AE7480780E0580780F0C6
:10E87000C45CDE4FE881F981CC53D140EF5FFF4F9C
:10E8800019F0EE27FF27099420E030E040E050E047
:10E890008091C00087FFE0CF2091C600C35DDE4FAE
:10E8A00048815981CD52D1404F5F5F4FC35DDE4FEC
:10E8B00059834883CD52D140213209F063C64A3092
:10E8C000510508F05FC60894811C911C53E0851621
:10E8D000910409F059C600E010E018C081E280936D
:10E8E000C6008091C00086FFFCCF8091C00080648C
:10E8F0008093C0002F5F3F4F2931310579F70F9486
:10E90000DCF10F5F1F4F0530110519F020E030E0FA
:10E91000E5CF10920A0210920B0210920C02109294
:10E920000D02109206021092070210920802109235
:10E930000902109202021092030210920402109235
:10E9400005028FEE90EE60E00F94F5F180E191EE1C
:10E9500060E00F94C2F18091C00087FFFCCF9091DE
:10E96000C600903608F09F759032B8F09093C600BC
:10E970008091C00086FFFCCF8091C00080648093AE
:10E98000C000A0E2A093C6008091C00086FFFCCF2B
:10E990008091C00080648093C000983409F4D7C18E
:10E9A0009934B8F4923409F459C1933458F490333B
:10E9B00019F1903308F4E3C59F33A1F1903409F0C5
:10E9C000DEC5BDC0953409F470C1963409F0D7C5D1
:10E9D00098C1923509F42BC2933538F49C3409F46C
:10E9E000F5C1913509F0CBC518C2963509F445C279
:10E9F000993509F0C4C567C483E792EE62E00F94CD
:10EA0000F5F110920602109207021092080210927D
:10EA1000090210920A0210920B0210920C0210923C
:10EA20000D0213C18FE792EE62E00F94F5F18FEEC5
:10EA300090EE60E00F94F5F181E291EE60E00F94CA
:10EA4000C2F187EB91EE60E00F94F5F180E391EE77
:10EA500060E00F94C2F184EE90EE60E00F94F5F167
:10EA60008FE391EE60E00F94C2F186E090E061E008
:10EA700070E00F9434F20F94DCF18DE591EE60E0DC
:10EA80000F94C2F189EC91EE60E00F94F5F18EE401
:10EA900091EE60E00F94C2F183EC91EE60E00F9490
:10EAA000F5F18CE691EE60E00F94C2F18EE10F94E7
:10EAB0000DF288E90F940DF281E00F940DF20F949E
:10EAC000DCF18BE791EE60E00F94C2F119E0E0E039
:10EAD000F0E010935700E4918E2F0F940DF20F94F5
:10EAE000DCF18AE891EE60E00F94C2F1E3E0F0E03F
:10EAF00010935700E4918E2F0F940DF20F94DCF1D8
:10EB000089E991EE60E00F94C2F1E2E0F0E0109349
:10EB10005700E4918E2F0F940DF20F94DCF188EAE8
:10EB200091EE60E00F94C2F1E1E0F0E01093570045
:10EB30001491812F0F940DF20F94DCF107CF8BE825
:10EB400092EE62E00F94F5F18BE492EE60E00F94A8
:10EB5000F5F10F94DCF100E010E019C0C8016F2D51
:10EB60000F947FFEFF2031F489E492EE60E00F9471
:10EB7000C2F10BC0F092C6008091C00086FFFCCFAE
:10EB80008091C00080648093C0000F5F1F4FC80158
:10EB900081519F41A0E0B0E0ABBFFC01F790BAE229
:10EBA000FB1621F0E2E000301E07C1F60F94DCF105
:10EBB0000F94DCF187E592EE60E00F94F5F10F948D
:10EBC000DCF1CC24DD2400E010E01EC0C8010F946D
:10EBD00077FEF82E882331F489E492EE60E00F94FA
:10EBE000C2F10BC08093C6008091C00086FFFCCFAD
:10EBF0008091C00080648093C000FE1419F00894D6
:10EC0000C11CD11C0F5F1F4FC80181519F41A0E063
:10EC1000B0E0ABBFFC01E790FAE2EF1621F022E092
:10EC20000030120799F60F94DCF10F94DCF182E6C4
:10EC300092EE60E00F94C2F1C60161E070E00F94C3
:10EC400034F20F94DCF10F94DCF110920202109276
:10EC50000302109204021092050278CE89E992EE26
:10EC600062E00F94F5F1279A2F9A16C02F9880E052
:10EC700090E0E0EDF7E03197F1F7019684369105E9
:10EC8000C1F72F9A80E090E0E0EDF7E03197F1F7DF
:10EC9000019684369105C1F78091C00087FFE6CFC9
:10ECA0008091C00087FFFCCF64C485EA92EE62E0E9
:10ECB0000F94F5F140910202509103026091040219
:10ECC0007091050281E020E10F9491F2809102029F
:10ECD00090910302A0910402B091050280509F4FD1
:10ECE000AF4FBF4F8093020290930302A0930402A0
:10ECF000B093050280509041A040B04008F426CE69
:10ED0000A4CF83EB92EE62E00F94F5F140910602FE
:10ED100050910702609108027091090280E020E1A1
:10ED20000F9491F28091060290910702A09108023F
:10ED3000B091090280509F4FAF4FBF4F80930602A2
:10ED400090930702A0930802B0930902FFCD80ECD4
:10ED500092EE62E00F94F5F183E792EE60E00F949B
:10ED6000F5F18FE792EE60E00F94F5F18BE892EE0B
:10ED700060E00F94F5F189E992EE60E00F94F5F10F
:10ED800085EA92EE60E00F94F5F183EB92EE60E09D
:10ED90000F94F5F180EC92EE60E00F94F5F187ECC2
:10EDA00092EE60E00F94F5F188ED92EE60E00F9442
:10EDB000F5F18FED92EE60E00F94F5F18AEE92EEB0
:10EDC00060E00F94F5F183E093EEBDCD87EC92EE19
:10EDD00062E00F94F5F181E40F947BF282E40F94EA
:10EDE0007BF283E40F947BF284E40F947BF285E45E
:10EDF0000F947BF286E40F947BF287E40F947BF20E
:10EE000088E40F947BF28AE40F947BF28BE40F94F6
:10EE10007BF28CE40F947BF299CD88ED92EE62E068
:10EE20000F94F5F1772473948824992409C48FED05
:10EE300092EE62E00F94F5F140910A0250910B02BC
:10EE400060910C0270910D0282E020E10F9491F22A
:10EE500080910A0290910B02A0910C02B0910D02D8
:10EE600080509F4FAF4FBF4F80930A0290930B0289
:10EE7000A0930C02B0930D0269CD8AEE92EE62E08F
:10EE80000F94F5F184EE90EE60E00F94F5F18FECC5
:10EE900091EE60E00F94F5F1662477244301CC5D98
:10EEA000DE4F19821882C452D140D401C301B695F5
:10EEB000A79597958795CA5DDE4F88839983AA8326
:10EEC000BB83C652D140CC5DDE4FA881B981C4520C
:10EED000D1401196CC5DDE4FB983A883C452D14096
:10EEE000CD0162E070E00F9434F2B0E2B093C6005E
:10EEF0008091C00086FFFCCF8091C0008064809329
:10EF0000C000EDE2E093C6008091C00086FFFCCF18
:10EF10008091C00080648093C000F0E2F093C6004E
:10EF20008091C00086FFFCCF8091C00080648093F8
:10EF3000C000CA5DDE4FE880F9800A811B81C6529D
:10EF4000D140BB27A12F902F8F2D0F940DF2CA5DBA
:10EF5000DE4F8881C652D1400F940DF2B0E2FB2EF5
:10EF6000F092C6008091C00086FFFCCF8091C00067
:10EF700080648093C0000DE30093C6008091C000C0
:10EF800086FFFCCF8091C00080648093C00010E2B7
:10EF90001093C6008091C00086FFFCCF8091C00016
:10EFA00080648093C0008BBEF3012791C65DDE4F65
:10EFB0002883CA52D140A22EBB24CC24DD2408943D
:10EFC000611C711C811C911C8BBEF3018791282E42
:10EFD0003324442455240894611C711C811C911C09
:10EFE0008BBEF3013791C55DDE4F3883CB52D140E4
:10EFF0000894611C711C811C911C8BBEF30147910C
:10F00000C45DDE4F4883CC52D140ADEFEA2EAFEF66
:10F01000FA2EAFEF0A2FAFEF1A2F6E0C7F1C801E57
:10F02000911E142D032DF22CEE24EA0CFB1C0C1D5A
:10F030001D1D0F940DF220E22093C6008091C000A8
:10F0400086FFFCCF8091C00080648093C000C65DC5
:10F05000DE4F8881CA52D1400F940DF230E23093D6
:10F06000C6008091C00086FFFCCF8091C000806404
:10F070008093C000C45DDE4F8881CC52D1400F9494
:10F080000DF240E24093C6008091C00086FFFCCFA5
:10F090008091C00080648093C000C55DDE4F888190
:10F0A000CB52D1400F940DF250E25093C6008091A4
:10F0B000C00086FFFCCF8091C00080648093C000B8
:10F0C0008FEFE8168FEFF80680E0080780E018075A
:10F0D00031F484E092EE60E00F94C2F1DFC0D80119
:10F0E000C7018070907CA070B0708050904CA040A0
:10F0F000B040D1F52FEF3FE340E050E0E222F322B1
:10F1000004231523CA5DDE4FA880B980CA80DB8046
:10F11000C652D140AE0CBF1CC01ED11EAA0CBB1CD7
:10F12000CC1CDD1C8EE092EE60E00F94C2F1BB2798
:10F13000A12F902F8F2D0F940DF28E2D0F940DF285
:10F1400030E23093C6008091C00086FFFCCF8091F2
:10F15000C00080648093C0004EE34093C60080915D
:10F16000C00086FFFCCF87C08EE09EEFA0E0B0E03D
:10F17000E822F9220A231B239CE0E91694E9F90608
:10F1800090E0090790E0190709F088C0C45DDE4FE0
:10F19000A881CC52D140EA2EFF2400E010E0102FCD
:10F1A0000F2DFE2CEE24C55DDE4FB881CB52D14031
:10F1B000EB0EF11C011D111DD601C501817090706F
:10F1C000A070B070DC0199278827E80EF91E0A1F8D
:10F1D0001B1F20EF30E040E050E0A222B322C42207
:10F1E000D52241E1AA0CBB1CCC1CDD1C4A95D1F7F1
:10F1F000EA0CFB1C0C1D1D1D81E090E0A0E0B0E0BE
:10F20000282239224A225B2235E1220C331C441C7D
:10F21000551C3A95D1F7E20CF31C041D151D57013E
:10F220006801AA0CBB1CCC1CDD1C85E192EE60E0E1
:10F230000F94C2F1C801AA27BB270F940DF2BB2778
:10F24000A12F902F8F2D0F940DF28E2D0F940DF274
:10F2500090E29093C6008091C00086FFFCCF809121
:10F26000C00080648093C000AEE3A093C60080918C
:10F27000C00086FFFCCF8091C00080648093C000F6
:10F28000C601AA27BB270F940DF2BB27AD2D9C2DDD
:10F290008B2D0F940DF28A2D0F940DF20F94DCF14B
:10F2A000CC5DDE4FE881F981C452D140F99709F471
:10F2B0004DCBF4E0EF2EF12C012D112D6E0C7F1CA7
:10F2C000801E911EF2CD83E093EE62E00F94F5F183
:10F2D0008AE192EE60E00F94C2F18091C00087FF56
:10F2E000FCCF1091C6001F751093C6008091C0001E
:10F2F00086FFFCCF8091C00080648093C0000F9493
:10F30000DCF1812F81548A3108F036C1163409F4BA
:10F3100095C0173490F4133409F44EC0143430F40B
:10F320001134F1F0123409F01DC130C0143409F465
:10F3300059C0153409F016C16BC01A3409F4C4C0A1
:10F340001B3438F4173409F48FC0183409F00AC19B
:10F35000A1C01B3409F4D2C01C3409F003C1E8C0B9
:10F360008FEF81B90DC082B1809582B980E090E0C5
:10F37000E0EDF7E03197F1F70196883C9105C1F790
:10F380008091C00087FFEFCF12B8EFC08FEF84B934
:10F390000DC085B1809585B980E090E0E0EDF7E0A3
:10F3A0003197F1F70196883C9105C1F78091C00033
:10F3B00087FFEFCF15B8D9C08FEF87B90DC088B1DF
:10F3C000809588B980E090E0E0EDF7E03197F1F7C3
:10F3D0000196883C9105C1F78091C00087FFEFCF6F
:10F3E00018B8C3C08FEF8AB90DC08BB180958BB9A7
:10F3F00080E090E0E0EDF7E03197F1F70196883C8E
:10F400009105C1F78091C00087FFEFCF1BB8ADC059
:10F410008FEF8DB90DC08EB180958EB980E090E0F0
:10F42000E0EDF7E03197F1F70196883C9105C1F7DF
:10F430008091C00087FFEFCF1EB897C08FEF80BBD1
:10F440000DC081B3809581BB80E090E0E0EDF7E0F6
:10F450003197F1F70196883C9105C1F78091C00082
:10F4600087FFEFCF11BA81C08FEF83BB0DC084B38C
:10F47000809584BB80E090E0E0EDF7E03197F1F714
:10F480000196883C9105C1F78091C00087FFEFCFBE
:10F4900014BA6BC08FEF809301010FC080910201FD
:10F4A00080958093020180E090E0E0EDF7E03197F5
:10F4B000F1F70196883C9105C1F78091C00087FF64
:10F4C000EDCF1092020151C08FEF809304010FC065
:10F4D0008091050180958093050180E090E0E0ED4A
:10F4E000F7E03197F1F70196883C9105C1F78091DB
:10F4F000C00087FFEDCF1092050137C08FEF8093DA
:10F5000007010FC08091080180958093080180E079
:10F5100090E0E0EDF7E03197F1F70196883C910536
:10F52000C1F78091C00087FFEDCF109208011DC088
:10F530008FEF80930A010FC080910B01809580931B
:10F540000B0180E090E0E0EDF7E03197F1F70196F4
:10F55000883C9105C1F78091C00087FFEDCF1092E4
:10F560000B0103C085E292EEEEC98091C00087FFD7
:10F57000FCCF8091C600EAC988E392EEE4C98CE131
:10F5800091EEE1C988249924933011F1943028F444
:10F59000913089F09230B8F408C0953061F195301F
:10F5A000F0F0963009F048C043C02B3109F042C951
:10F5B00091E06BE13FC96227C15DDE4F2883CF52E6
:10F5C000D14092E037C9B22FA0E0622793E032C960
:10F5D000822F90E0A82BB92B622794E02BC92E3004
:10F5E00009F039C3622795E0C05DDE4F19821882A9
:10F5F000C053D1401FC9E1E0F0E0EC0FFD1FC05D3A
:10F60000DE4F08811981C053D140E00FF11F2083E4
:10F610000F5F1F4FC05DDE4F19830883C053D14079
:10F6200062270A171B0709F005C9D80196E002C92D
:10F63000261709F010C303C0973009F0FBC87724E0
:10F640009981933109F412C19431C8F4963009F4C8
:10F65000D8C0973050F4923009F406C1933009F4C1
:10F660006DC0913009F059C253C0913109F477C08F
:10F67000923108F0BBC0903109F04FC2F5C098310B
:10F6800009F487C0993150F4953109F4EFC09531F0
:10F6900008F4C6C1963109F040C2C2C19A3109F4DA
:10F6A0006CC09A3108F491C09B3109F45BC09D3164
:10F6B00009F033C29D81903359F48F81882311F46E
:10F6C0009EE11CC0813011F091E018C098E916C08D
:10F6D000892F807591F0903539F4E0E0F0E089E011
:10F6E0008093570094910AC0983539F4E3E0F0E034
:10F6F00089E080935700949101C090E01A821B82A8
:10F700008D818C831D829E831F8227E030E009C299
:10F710001A8288E08B8381E48C8386E58D8382E581
:10F720008E8389E48F8383E5888780E589878FE5E9
:10F730008A8782E38B872BE030E0F3C18A818139AD
:10F7400041F0823941F0803911F48FE005C080E04A
:10F7500003C082E001C08AE01A828B8344C0772410
:10F76000739482C08D81882311F48EE12CC0813086
:10F7700011F081E028C088E926C01A82E1E0F0E0BB
:10F7800089E08093570084918B831C8224E030E0D1
:10F79000C8C18B81803589F48C81883039F4E2E0EE
:10F7A000F0E089E08093570084910DC0E0E0F0E044
:10F7B00089E080935700849106C0E3E0F0E089E09F
:10F7C0008093570084911A82DFCF8D81836C99E0FA
:10F7D000E1E0F0E0082E90935700E89507B600FCB2
:10F7E000FDCF1A821B8223E030E09BC180EC8A832C
:10F7F000CE5CDE4F188219821A821B82C253D1401E
:10F800008EC18A8190E0A0E0B0E0582F44273327D2
:10F8100022278B8190E0A0E0B0E0DC0199278827C7
:10F82000282B392B4A2B5B2B8D8190E0A0E0B0E098
:10F83000282B392B4A2B5B2B8C8190E0A0E0B0E089
:10F84000BA2FA92F982F8827282B392B4A2B5B2BCF
:10F85000220F331F441F551FC05EDE4F288339839C
:10F860004A835B83C052D1401A8259C13A81C95C34
:10F87000DE4F3883C753D140CA5CDE4F1882C6536F
:10F88000D1408B81C82EDD24CA5CDE4F488159816E
:10F89000C653D140C42AD52A933109F082C0CE5C28
:10F8A000DE4F88819981AA81BB81C253D1408050AB
:10F8B000904CA340B04030F583E0CE5CDE4FE88052
:10F8C000F9800A811B81C253D140F70100935B008C
:10F8D00080935700E89507B600FCFDCFCE5CDE4F65
:10F8E000088119812A813B81C253D14000501F4FAA
:10F8F0002F4F3F4FCE5CDE4F088319832A833B8313
:10F90000C253D140C05EDE4F488159816A817B81FC
:10F91000C052D140DE011B9631E08C9111962C91A2
:10F9200011971296C75CDE4F2883C953D140C85C3B
:10F93000DE4F1882C853D14090E0C85CDE4FE881AA
:10F94000F981C853D1408E2B9F2B0C01FA01609393
:10F950005B0030935700E89511244E5F5F4F6F4F67
:10F960007F4F0EEFE02E0FEFF02ECE0CDF1CC114F8
:10F97000D10499F685E0C05EDE4F088119812A81A5
:10F980003B81C052D140F80120935B008093570027
:10F99000E89507B600FCFDCF81E180935700E8951C
:10F9A00035C0C05EDE4F88819981AA81BB81C0527B
:10F9B000D140B695A795979587957C018601ABE0D8
